:10400000782B0020254100002141000021410000C3
:1040100000000000000000000000000000000000A0
:10402000000000000000000000000000214100002E
:1040300000000000000000002141000021410000BC
:10404000214100002141000021410000557600007F
:10405000857100000D750000214100002141000024
:10406000214100007D7B0000214100002141000032
:104070002141000000000000000000008D7E0000D3
:10408000214100002141000021410000D18B0000AE
:10409000214100000000000000000000214100005C
:1040A0002141000021410000214100002141000088
:1040B0000000000010B5064C2378002B07D1054BFB
:1040C000002B02D0044800E000BF0123237010BD84
:1040D00058000020000000003CA40000084B10B570
:1040E000002B03D00749084800E000BF07480368D9
:1040F000002B00D110BD064B002BFBD09847F9E7F1
:10410000000000005C0000203CA400003CA4000073
:104110000000000010B5014B984710BDF9450000A4
:10412000FEE70000F8B5234A234B9A4209D0224B00
:10413000204A03E011681960043304321F498B429E
:10414000F8D31F4B02E000221A6004331D4A934249
:10415000F9D31D4AFF211D4B8B439360FD399023FA
:104160005B001B4AD1501B4AD3780325AB43022482
:104170002343D370D3780C27BB4308263343D37033
:10418000154B987B30229043202210439873997BE3
:10419000B943314399739A7BAA4322439A730F4AD6
:1041A000516880230B4353600D4B98470D4B984744
:1041B000FEE7C0463CA4000000000020580000209C
:1041C00058000020740B002000ED00E000400000CB
:1041D0000070004100500041004800410040004193
:1041E000A59E0000B189000010B5084A93692021FE
:1041F0000B439361064A074B5A80074B98470200CE
:1042000006490748074B984710BDC04600040040C8
:1042100004410000000C00405176000000140040F2
:10422000C80100204D670000F0B5C64600B5C023A8
:10423000DB0598460823424653601F4B1F4A9A628B
:10424000C0210906996243201A5C0124A446A243B6
:1042500001273A43D2B21A5412381A5C0F26324060
:1042600010252A43D2B21A54402240464260144AD2
:104270009A62996246201A5CA2433A43D2B21A5417
:104280003234185D0F2290433843C0B21855713252
:10429000404642600B4A9A6299624722995C6046A6
:1042A00081433943C9B299541A5D32402A43D2B28C
:1042B0001A5504BC9046F0BD00440041080000407F
:1042C0004000004080000040044A116A80235B02E5
:1042D0000B431362024A034B5A80704700040040AC
:1042E0001E400000000C004010B5054B9847054BE0
:1042F0009847002204490548054B984710BDC04621
:10430000C942000029420000004000426401002030
:10431000D55F000010B5104A104B5A808022D2039E
:10432000C023DB055A600E4B0E4A9A620E4A9A620F
:1043300056215A5C042082435A545A5C0338824303
:104340000243D2B25A541B395A5C0F2082435A544A
:10435000064B984710BDC04605400000000C0040C9
:104360000044004100000240400002C01963000008
:10437000024AD36904210B43D36170470004004013
:1043800010B5034B984703490348044B984710BDA9
:1043900071430000004000414801002065630000B7
:1043A000044A136A04210B431362034A034B5A80E5
:1043B0007047C0460004004014400000000C00405C
:1043C00030B50F4B4422995C0125A94301242143B8
:1043D000C9B299543220195C353A914303221143F2
:1043E000C9B2195445215A5CAA432243D2B25A5445
:1043F0001A5C36390A4030210A43D2B21A5430BD11
:104400000044004110B582B0064B9847002300934A
:104410001033054A05490648064CA047064B984705
:1044200002B010BDA143000074000020000800424B
:1044300078010020E9690000C143000010B502487E
:10444000024B984710BDC04610E000E0B562000086
:10445000074B196A802252010A431A62196A8022A4
:1044600092010A431A62034A034B5A807047C046BE
:10447000000400401C400000000C004010B5042265
:10448000C023DB055A600A490A4B8B62C0231B0616
:104490008B624223CA5C012082430243D2B2CA54D7
:1044A00031228B5C0F24A3430343DBB28B5410BD3A
:1044B0000044004104000040044A116A8023DB02EA
:1044C0000B431362024A034B5A80704700040040BA
:1044D00021400000000C004010B5044B98470449EF
:1044E0000448054B9847054B984710BDB944000058
:1044F000004800426C010020916100007D440000F2
:1045000010B5054A054B5A80054A136A02210B4330
:104510001362044B984710BD07400000000C004098
:1045200000040040C9620000084A5221535C012087
:1045300083430343DBB253541939535C0F20834345
:1045400005200343DBB253547047C046004400418A
:10455000044A116A80235B000B431362024A034B37
:104560005A807047000400401A400000000C0040D0
:1045700010B5064B9847064B9847064B98470200E4
:1045800005490648064B984710BDC04651450000F6
:1045900029450000877E0000002000422C010020F9
:1045A000A1650000044A936910210B439361034AFB
:1045B000034B5A807047C04600040040034100008E
:1045C000000C004010B5064B9847482205490120D1
:1045D000054B98470548064B0360064B984710BDAE
:1045E000A5450000349F0000456C000068010020D4
:1045F00000100040FD7E000070B51B4B9847C022A4
:10460000D20580235B0053619360184B184999626F
:10461000C02424069C624825595D012081435955D8
:104620008021090151619160124A9A629C624B217A
:104630005A5C82435A54104B9847104B9847104B82
:104640009847104B9847104B9847104B9847104B82
:104650009847104B9847104B9847104B9847104B72
:104660009847104B984770BD1970000000440041F6
:104670000001004000080040E9420000154300002E
:1046800081430000054400003D440000E941000072
:1046900051440000A17E000001450000714500006A
:1046A000D9440000C5450000002801D0FF23037550
:1046B0007047002801D000230375704710B500280B
:1046C00017D0037D052B01D900230375037D042B2F
:1046D00001D900230AE05A1C02759B00195008E01A
:1046E0005A1C940024589B001C501300032BF7DD28
:1046F000016110BD10B5002825D0017DFF2907D02C
:10470000FE2909D005290BD900230375104802E0C2
:10471000002303750F4810BD002303750E48FAE708
:10472000002912D0012902D00023002205E00068F0
:10473000F1E79C002458121901338B42F9DB100079
:10474000064B9847E7E70648E5E70020E3E7C04661
:10475000839698008196980082969800859800002C
:104760000100FFFF0020704730B500250CE0400835
:104770000133DBB2072B06D8C407F8D54008064C36
:10478000604080B2F4E70135954203DA4B5D584052
:104790000023EFE730BDC04601A0FFFF0022002349
:1047A00005E003210B439BB24000C0B20132072A4F
:1047B00008DC9B009BB241B20029F2DB01210B43D4
:1047C0009BB2F1E71800704710B5104B02001A4079
:1047D0009A4202D0FF23180010BD0021002305E0FB
:1047E00001221343DBB2800080B201310729F2DCE1
:1047F0005B00DBB2820B9203C0242402A242EFD002
:104800008024E401A242EED0FF23E4E755550000E6
:10481000F0B583B0070001914378012B03D8012044
:10482000404203B0F0BD8088234B9847FA2802D05D
:1048300001204042F5E70126204C0DE064080133D9
:10484000DBB2072B06D8E207F8D560081C4C4440C1
:10485000A4B2F4E70136F6B27B789E4217D2350057
:104860007300FB189888144B9847FB280FD07300EF
:10487000FB189888104B9847FC2808D06B00FB1851
:1048800098880D4B984780B244400023D9E7019B9C
:10489000002B0FD07B789E4202D301204042C0E71C
:1048A0007600BF19B888044B9847FB2802D0012036
:1048B0004042B6E72000B4E7C9470000FFFF000010
:1048C00001A0FFFF70B5050044787C2C01D90020C1
:1048D00070BD631C43700800044B984764002C199A
:1048E000A0806B8802336B800120F1E79D470000B8
:1048F00070B505000C009F290BD9A021064B9847E5
:10490000002808D021006031C9B22800024B984726
:1049100001E0014B984770BDC548000010B54378D1
:104920008B4201D8002010BD490040188088044BFC
:1049300098470023A02282425B41D8B2F3E7C046E9
:10494000C947000070B504000D000B78427893420F
:1049500001D3FF2070BD5B00C31898880F4B9847A8
:10496000A02801D9FF20F5E72B785A1C2A705B009C
:10497000E3189888094B9847A028EBD12B786278E8
:10498000934201D3FF20E5E75A1C2A705B00E4182C
:10499000A088024B98476038C0B2DBE7C9470000E7
:1049A000F8B504000E00151E4ED000292DD0097850
:1049B000437899422FD2264B9847002831D00023C4
:1049C0002B60002731782000214B9847002833D0F6
:1049D000310020001F4B98470F2302009A43D3B2A7
:1049E0009F2B24DC2B689A00D21853000209D2B204
:1049F0009B182B600F22104009281FDC9A00D31847
:104A00005A00101828600137DCE701235B4213606D
:104A100002277F4210E001235B42136003277F429D
:104A20000AE001235B422B6004277F4204E001235C
:104A30005B422B6005277F423800F8BD01235B42B3
:104A40002B6006277F42F7E701277F42F4E7C04645
:104A50001D49000045490000F0B5CE4600B582B0C2
:104A600001900E00171E994628D0002929D0002356
:104A7000137009784378994226D2154B984700283D
:104A800001D0002409E00324644212E03C19310003
:104A90000198104B984720702C00651C4D4505DA95
:104AA000317801980A4B98470028EFD13B19002232
:104AB0001A70200002B004BC9146F0BD012464428B
:104AC000F7E701246442F4E702246442F1E7C046B8
:104AD0001D49000045490000F0B5CE4600B586B03E
:104AE00001901600234B9847002838D0002E1BD089
:104AF0001024002C25DD002E21D0013C1E4B9946B0
:104B00000A2130009847CDB21C4F0A213000B84727
:104B10000A21C8470901C9B2294302AB19556421CA
:104B20003000B8470600E4E700210198144B98478D
:104B3000002801D0012517E003256D4214E000256F
:104B400000E000250F2C0FD80135661C02AB195D63
:104B500001980B4B9847002804D03400F2E7022557
:104B60006D4201E003256D42280006B004BC914669
:104B7000F0BDC046C548000091990000859800002E
:104B8000F148000070B50500161E11D00B4B984778
:104B9000002810D00024315D002907D001342800FE
:104BA000074B98470028F6D103246442200070BDCB
:104BB00001246442FAE702246442F7E7C548000092
:104BC000F1480000F0B5C64600B582B00190171E4E
:104BD000984632D0224B9847002831D0002627E053
:104BE0000134E4B2A519A84203DDBA5D7B5D9A42A7
:104BF000F6D0032C14D9FD210198194B98470028B1
:104C000021D021000198174B9847002821D0B95D89
:104C10000198144B9847002809D10520404214E020
:104C2000751CB95D01980F4B9847002814D02E00D1
:104C30004046464509DA0124D4E70120404204E019
:104C40000220404201E00320404202B004BC9046F2
:104C5000F0BD04204042F8E706204042F5E7C04698
:104C6000C5480000F148000070B584B005004488D4
:104C7000002C00D1E6E0F92C07D900230370437023
:104C800043800020DFE0013CA4B2002C12D02A793E
:104C900055231340552B0DD06E88002EF3D0281DC0
:104CA000013E691D32006F4B9847B2B26A805208CC
:104CB0006A70E8E7002C03D10020C4E0013CA4B2F4
:104CC000012C12D9A888684B9847FA280DD06E8815
:104CD000002EF3D0281D013E691D3200614B98471C
:104CE000B2B26A8052086A70E8E7002C00D1ACE0EA
:104CF0006608E30700D5AAE0042E00D8A9E0012247
:104D00000F236B441A700F236B441B789AB29642A0
:104D10001CD95B00EB189888534B9847FC2815D09A
:104D20000F236B441B785B00EB1898884E4B984719
:104D3000FF2805D00F226A44137801331370E2E78D
:104D400000232B706B706B8000207CE00F236B4482
:104D50001B789E4200D87EE001220F236B441A701C
:104D600004E00F226A441378013313700F236B445D
:104D70001B789AB2964210D95B00EB1898883A4B90
:104D80009847FB2809D00F236B441B785B00EB1876
:104D90009888354B9847FC28E3D10F236B441B7848
:104DA0009AB2964205D800232B706B706B8003205B
:104DB00049E05B00EB1898882B4B9847FB28F2D111
:104DC0000F2169440B7801330B700023029302AA70
:104DD0002800264B9847002805DC00232B706B70B9
:104DE0006B8003202FE001212800214B9847029B74
:104DF000984205D000232B706B706B80042022E05A
:104E00000F21694401230B700023019301AA28009C
:104E1000164B9847002805DC00232B706B706B80C5
:104E2000032010E0019A002A17D0124B19680A23B8
:104E30004B4301339A4212D000232B706B706B806E
:104E4000052000E0002004B070BD0020FBE7012039
:104E5000F9E70120F7E70120F5E70220F3E7022058
:104E6000F1E7C046FF9E0000C9470000A1490000CD
:104E7000114800004C020020F0B5D646474680B5E8
:104E800091B004000D0000230F930B704B704B800A
:104E9000D34B1A6893009B185A000132FA2128005C
:104EA000D04B98470B2102AB9C46614401230B7009
:104EB00001225242CC4B1A60CC4A2000CC4B98477E
:104EC000002830DDC94B1B68002B33D1668876087B
:104ED000002398460B2302AA944663441B789AB297
:104EE000964201D800F0D8FF5B00E3189888C14BC8
:104EF0009847FC2801D100F0CFFF0B2202AB9C4663
:104F000062441378591C11705B00E3189888B94B00
:104F100098475F30C3B25E2B01D900F0B8FF98000C
:104F2000B54B1B589F460822AF4B1A6001204042E8
:104F300000F0D3FFAA4A1268002AC7D091008A184D
:104F4000510001318B42C1D00922A74B1A600220C7
:104F5000404200F0C2FF0FAA0B2102AB9C46614405
:104F60002000A34B9847002802DD13229E4B1A60B5
:104F7000A24AA12128009B4B98470028AADC0622C0
:104F8000994B1A60A6E70122A2212800954B984769
:104F900000289FDC0622944B1A609BE7984AA321C5
:104FA0002800984B9847002894DA06228E4B1A6006
:104FB00090E7954AA42128008A4B9847002889DC6D
:104FC0000622894B1A6085E70FAA0B2102AB9C468B
:104FD00061442000864B9847002802DD1322824B53
:104FE0001A608A488A4B98478A4B98477C4B1A69C3
:104FF0008218A62128007B4B9847002800DD69E72E
:105000000622794B1A6065E70FAA0B2102AB9C467A
:1050100061442000764B9847002802DD1322724B32
:105020001A607A487A4B98470200C12128006D4BDC
:105030009847002800DD4DE706226B4B1A6049E7D0
:105040000FAA0B2102AB9C4661442000684B984795
:10505000002802DD1322644B1A606F486C4B98479E
:105060000200CC2128005F4B9847002800DD31E783
:1050700006225D4B1A602DE70FAA0B2102AB9C465E
:10508000614420005A4B9847002802DD1322564BFA
:105090001A6062485E4B98470200C2212800514BBB
:1050A0009847002800DD15E706224F4B1A6011E7EC
:1050B0000FAA0B2102AB9C46614420004C4B984741
:1050C000002802DD1322484B1A605548504B984780
:1050D0000200CD212800434B9847002800DDF9E667
:1050E0000622414B1A60F5E60FAA0B2102AB9C4643
:1050F000614420003E4B9847002807DD384BDB68B1
:105100000F9A93420FD81422374B1A60344B1A6A05
:10511000C3212800334B9847002800DDDAE6062239
:10512000314B1A60D6E62E4B9B8E032B03D91122EE
:105130002D4B1A60EAE73548354B9847002803D1D4
:105140001222294B1A60E1E7254B1B6A0F9A934202
:1051500005D0234B1A62986101239846D6E7204B6D
:105160009B699842F5D1D1E70FAA0B2102AB9C466F
:10517000614420001E4B9847002807DD184BDB6870
:105180000F9A93420FD81422174B1A60144B5A6A85
:10519000C4212800134B9847002800DD9AE6062218
:1051A000114B1A6096E60E4B9B8E032B03D91122EE
:1051B0000D4B1A60EAE71548154B9847002803D1B4
:1051C0001222094B1A60E1E7054B5B6A0F9A934282
:1051D00028D0034B5A62D86101239846D6E7C046CF
:1051E0004C020020D94A000000000020840000206A
:1051F000A1490000C9470000509F000002000100C3
:10520000CCA00000854B0000190001009002002096
:10521000F5460000E18C000014020020A8020020E6
:10522000E4010020CF4BDB699842D2D1AEE70FAA50
:105230000B2102AB9C4661442000CB4B98470028D1
:1052400007DDC84BDB680F9A93420FD81422C74B77
:105250001A60C44B5A6AAE212800C54B98470028F3
:1052600000DD37E60622C14B1A6033E6BD4B9B8E4C
:10527000032B03D91122BD4B1A60EAE7BD48BE4B90
:105280009847002803D11222B84B1A60E1E7B54BCA
:105290005B6A0F9A934205D0B24B5A62D8610123E0
:1052A0009846D6E7AF4BDB699842F5D1D1E70FAA14
:1052B0000B2102AB9C4661442000AB4B9847002871
:1052C00006DD0F9BAD4A93420FD91422A74B1A60FB
:1052D000A44B1A69A7212800A54B9847002800DD98
:1052E000F8E50622A14B1A60F4E59E4A12699A423B
:1052F000EED09C4A136101239846E9E70FAA0B21DF
:1053000002AB9C4661442000974B9847002802DD81
:105310001322964B1A609A48974B9847994B984797
:1053200090490B79CA688968974FB8470200A8214D
:1053300028008F4B9847002800DDCBE506228B4BD9
:105340001A60C7E50FAA0B2102AB9C4661442000FE
:10535000854B9847002802DD1322844B1A6085484C
:10536000854B9847874B98477E4B5A698218A921ED
:1053700028007F4B9847002800DDABE506227B4BD9
:105380001A60A7E50FAA0B2102AB9C4661442000DE
:10539000754B9847002806DD0F9B784A93420FD93A
:1053A0001422724B1A606F4B5A69AA212800704B65
:1053B0009847002800DD8DE506226C4B1A6089E5D0
:1053C000684A52699A42EED0664A53610123984670
:1053D000E9E70FAA0B2102AB9C4661442000624B17
:1053E0009847002802DD1322604B1A606148624B27
:1053F0009847644B98475B490B79CA688968624F44
:10540000B8470200AB212800594B9847002800DD1F
:1054100060E50622554B1A605CE50FAA0B2102AB32
:105420009C4661442000504B9847002802DD13221F
:105430004E4B1A604D4B5A68AC2128004C4B984794
:10544000002800DD46E50622484B1A6042E50FAA17
:105450000B2102AB9C4661442000434B9847002837
:1054600002DD1322414B1A604848434B9847020023
:10547000AD2128003E4B9847002800DD2AE5062292
:105480003A4B1A6026E50FAA0B2102AB9C466144F9
:105490002000354B9847002802DD1322334B1A6059
:1054A0003B48354B98470200AF212800304B9847C6
:1054B000002800DD0EE506222C4B1A600AE50FAA33
:1054C0000B2102AB9C4661442000274B98470028E3
:1054D00002DD1322254B1A60244B1A68B0212800E4
:1054E000234B9847002804DD012252421F4B1A60CB
:1054F000F0E406221D4B1A60ECE4282305AA0B21D8
:1055000002A8844661442000224FB84700285CDD91
:10551000144B9B8E012B0ED01122144B1A6005AA3E
:10552000B12128001C4B9847002800DBD2E406225A
:105530000E4B1A60CEE400230F93002100E00131EE
:1055400005AB5A5C002A29D01300303BDBB2092B93
:10555000F5D80F9B9800C01843009A18303A0F9264
:10556000EDE7C0464C020020A149000000000020E9
:10557000D94A0000A8020020F546000010270000CC
:1055800090020020E18C0000654700002C02002002
:10559000E0030020594A0000854B0000CF4B1A68F9
:1055A0000F9B9A42BBD0CD4A136000232B706B70C7
:1055B0006B80126893009B185A000132FA21280070
:1055C000C74B984701239846A9E705ABC54A118800
:1055D000198092789A700227C34B019312E0062F2C
:1055E00016D0BE4B1868C14B9A46019998470A21BC
:1055F000BF4B9847303105ABD9550A210198D047A8
:1056000001900137082FEADD002205AB5A7286E7C8
:105610002F2205ABDA55F4E71023B64A0432B22143
:105620002800B54FB847002800DD53E40622B34BED
:105630001A604FE40FAA0B2102AB9C466144200084
:10564000AF4B9847002811DDA44B9B8E022B0AD844
:10565000A24B5A8E02AB9B8E9A4207D09F4A53862A
:105660000123984602E01122A44B1A609B4B5A8EEC
:10567000B32128009A4B9847002800DD2AE406222F
:105680009E4B1A6026E40B229C4B5A60093A994BB8
:105690001A751FE40FAA0B2102AB9C46614420003F
:1056A000974B9847002813DD8C4B9B8E022B0CD810
:1056B0008A4B9A7902AB34215B181B789A4207D047
:1056C000864A93710123984602E011228B4B1A609F
:1056D000824B9A79B5212800814B9847002801DD3B
:1056E000FFF7F8FB0622854B1A60FFF7F3FB0FAAC2
:1056F0000B2102AB9C4661442000814B9847002857
:1057000010DD764B9B8E022B09D8744B9A680F9B49
:105710009A4207D0714A93600123984602E0112211
:10572000764B1A606D4B9A68B62128006C4B9847EF
:10573000002801DDFFF7CEFB0622704B1A60FFF751
:10574000C9FB0FAA0B2102AB9C46614420006C4BA5
:105750009847002813DD614B9B8E022B0CD85F4BC2
:105760001A7902AB34215B181B789A4207D05B4A46
:1057700013710123984602E01122604B1A60574BC7
:105780001A79B7212800564B9847002801DDFFF70A
:10579000A1FB0622594B1A60FFF79CFB0FAA0B21B5
:1057A00002AB9C4661442000554B9847002802DD1F
:1057B0001322524B1A60534B9847A02292000023A9
:1057C000514FB8470200B9212800454B984700289F
:1057D00001DDFFF77FFB0622484B1A60FFF77AFBDB
:1057E0000FAA0B2102AB9C4661442000444B984712
:1057F000002808DD0F9B454A9918454A914211D966
:1058000014223E4B1A60354BDA68BB212800344B1A
:105810009847002801DDFFF75DFB0622374B1A6031
:10582000FFF758FB2D4A928E022A08D82B4AD268DD
:105830009342E8D0294AD36001239846E3E7112236
:105840002E4B1A60DFE70FAA0B2102AB9C46614486
:1058500020002B4B9847002813DD204B9B8E022BFA
:105860000CD81E4B5A7902AB34215B181B789A4234
:1058700007D01A4A53710123984602E011221F4BA8
:105880001A60164B5A79BC212800154B98470028FE
:1058900001DDFFF71FFB0622184B1A60FFF71AFB0A
:1058A0000FAA0B2102AB9C4661442000144B984781
:1058B000002802DD1322114B1A601648164B984738
:1058C0000200BD212800064B9847002801DDFFF7A4
:1058D00001FB0622094B1A60FFF7FCFA4C0200207C
:1058E000D94A0000D4A00000A086010085980000DD
:1058F0009199000084000020C54B000000000020AA
:10590000A1490000758C0000719B000078ECFFFF3E
:1059100018730100C4020020F54600000FAA0B21F5
:1059200002AB9C4661442000C34B9847002802DD2F
:105930001322C24B1A60C248C24B98470200BE21D4
:105940002800C14B9847002801DDFFF7C3FA062263
:10595000BA4B1A60FFF7BEFA0FAA0B2102AB9C46A6
:1059600061442000B44B9847002828DDB74B9B8E3C
:10597000032B21D8B64B0F9A9A4200D90F930F9B55
:10598000C72B01D8C8230F93B04BDA8D02AB9B8E87
:105990009A4214D0AD4AD385AE4A136000231381D6
:1059A0005381AD4A1380AD4A1380AD4A1380AD4A8E
:1059B00013800133984602E01122A04B1A60A34BDA
:1059C000DA8DA44B1968A84B4B43D218BF2128008D
:1059D0009D4B9847002801DDFFF77CFA0622974B84
:1059E0001A60FFF777FA0FAA0B2102AB9C466144BD
:1059F0002000914B984700281DDD944B9B8E022B75
:105A000016D80F9B002B01D101330F930F9B052B51
:105A100001D905230F938D4BDA7902AB34215B1842
:105A20001B789A4207D0894AD3710123984602E035
:105A30001122824B1A60854BDA79C0212800824BF3
:105A40009847002801DDFFF745FA06227B4B1A60D4
:105A5000FFF740FA0FAA0B2102AB9C4661442000DD
:105A6000754B9847002822DD784B9B8E032B1BD863
:105A70000F9B012B15D90F9B322B01D932230F938A
:105A8000724B1B8D02AA34215218107883420ED01B
:105A90006E4B1885754B9847754B186001239846D7
:105AA00005E002230F93E6E71122644B1A60674B6F
:105AB0001A8DC5212800644B9847002801DDFFF7A7
:105AC00009FA06225D4B1A60FFF704FA0FAA0B21B0
:105AD00002AB9C4661442000574B9847002823DDC9
:105AE0005A4B9B8E032B1CD80F9B272B01D82823A6
:105AF0000F93564B5B8D0F9A934201D90A330F9344
:105B0000A0235B000F9A9A4200D90F934F4B9A8DB6
:105B100002AB9B8E9A4207D04C4A9385012398464C
:105B200002E01122454B1A60484B9A8DC62128008D
:105B3000454B9847002801DDFFF7CCF906223F4B83
:105B40001A60FFF7C7F90FAA0B2102AB9C4661440C
:105B50002000394B9847002824DD3C4B9B8E032BBB
:105B60001DD80F9B012B17D996235B000F9A9A42E1
:105B700000D90F93354B9B8D0F9A934201D20A3B6C
:105B80000F93324B5A8D02AB9B8E9A420AD02F4A0A
:105B900053850123984605E002230F93E4E7112281
:105BA000264B1A60294B5A8DC7212800264B98474F
:105BB000002801DDFFF78EF90622204B1A60FFF75F
:105BC00089F90FAA0B2102AB9C46614420001A4BB5
:105BD0009847002821DD1D4B9B8E032B1AD80F9B65
:105BE000002B01D101330F930F9B142B01D91423E8
:105BF0000F93164B1B8E02AA342152181078834241
:105C00000BD0124B18861B4B98471B4B1860012377
:105C1000984602E01122094B1A600C4B1A8EC821DB
:105C20002800094B9847002801DDFFF753F90622A9
:105C3000024B1A60FFF74EF9A14900000000002056
:105C4000FC010020F5460000D94A00004C0200206B
:105C50001C0C0000C0080020440200208E0200201E
:105C6000C00200208C02002010270000698C000078
:105C7000200100205D8C0000240100200FAA0B21D0
:105C800002AB9C46614420009F4B9847002802DDF0
:105C900013229E4B1A609E4B9A69C92128009D4B86
:105CA0009847002804DD0022994B9A61FFF712F90A
:105CB0000622964B1A60F6E70FAA0B2102AB9C4610
:105CC00061442000904B9847002802DD13228F4B3F
:105CD0001A60914B1A8893009B1859008F4B1A88B1
:105CE00052188F4B198864234B43D2188D4B198857
:105CF0008D4B4B43D2188D4B19888D4B4B43D2188B
:105D00008C4B1A60CA212800824B984700280CDD72
:105D10000023824A1380804A1380814A1380814A7B
:105D20001380824A1380FFF7D5F80622774B1A605A
:105D3000EEE70FAA0B2102AB9C4661442000724B98
:105D40009847002808DD7C4B9A8E02AB9B8E9A42C6
:105D500011D911226D4B1A60774B9A8ECB212800F6
:105D60006C4B9847002801DDFFF7B4F80622674B1B
:105D70001A60FFF7AFF89A42EED06F4A938601237C
:105D80009846E9E70FAA0B2102AB9C46614420002C
:105D90005D4B9847002813DD0F9B142B01D914236A
:105DA0000F93654BDA8E02AB9B8E9A4208D0624A03
:105DB000D386624A5360002313815381013398468E
:105DC0005D4BDA8E5D4B5968574B4B43D218CE2151
:105DD0002800504B9847002801DDFFF77BF806228A
:105DE0004A4B1A60FFF776F8554AA4212800494B20
:105DF0009847002801DDFFF76DF80622434B1A6033
:105E0000FFF768F80122414B1A60FFF763F801229F
:105E10003E4B1A60FFF75EF801223C4B1A60FFF719
:105E200059F80122394B1A60FFF754F80122374B19
:105E30001A60FFF74FF80122344B1A60FFF74AF857
:105E40000122324B1A60FFF745F801222F4B1A60EE
:105E5000FFF740F801222D4B1A60FFF73BF80023B3
:105E6000039303AA0B2102AB9C4661442000264BFE
:105E70009847002801DDFFF72DF80322234B1A6015
:105E8000FFF728F81522214B1A60FFF723F80222AA
:105E90001E4B1A60FFF71EF84346002B22D11C4B05
:105EA0009A69002A21D1194B1A68531C07D0B021D6
:105EB0002800184B984701225242144B1A600021C7
:105EC0002800204B98470200FB212800114B9847DF
:105ED000FC2128001C4B9847042011B00CBC9046B4
:105EE0009A46F0BD194B9847D9E7C9212800094BBC
:105EF0009847002803DD0022054B9A61D3E706226C
:105F0000024B1A60F7E7C046A149000000000020DC
:105F100084000020D94A0000C00200208E02002028
:105F2000DC02002044020020102700008C02002028
:105F300040420F00480200204C020020C008002010
:105F40001900010011480000C5480000DD8700006D
:105F500010B588B0010020236A461948194CA047A3
:105F6000002829D1184B009A9A4201D0002024E041
:105F7000019B012B01D000201FE0144B069A9A428E
:105F800001D0002019E0124B059A9A4201D000205E
:105F900013E080235B00029A9A4201D000200CE0BB
:105FA000FE23DB00039A9A4201D0002005E0049B07
:105FB000402B02D1012000E0002008B010BDC046F7
:105FC00048010020B16300007856341221436587F0
:105FD0001900010070B504000D0000280DD0002943
:105FE00009D0012039220649064B98472900200094
:105FF000054B984770BD0020F4E70020F2E7C0464B
:10600000D8A00000456C0000F56E000070B50400DB
:106010000D00431E9841C0B24E220449044B9847DC
:1060200029002000034B9847002070BDD8A0000035
:10603000456C00002D6F000070B504000D00431E7C
:106040009841C0B259220449044B984729002000C6
:10605000034B9847002070BDD8A00000456C00009D
:106060003B6F0000F8B5CE46474680B506000D00F0
:106070009046994600281AD0002A1AD04B46002B89
:1060800019D1002067221C491C4FB847340030004A
:106090001B4B98470100060048461A4B9847484258
:1060A0004841C0B269221449B847002709E00020DE
:1060B000E8E70020E6E70120E4E7BF19BFB2B945F1
:1060C00015D92000104B9847290020000F4B984706
:1060D0000028F9D0290020000D4B98474346D85599
:1060E000012EEAD97B1C000A4246D054E5E738006D
:1060F0000CBC90469946F8BDD8A00000456C000045
:10610000476F0000659B00006D6F0000636F00002B
:10611000816F000070B504000D00431E9841C0B2AD
:1061200082220449044B984729002000034B9847DA
:10613000002070BDD8A00000456C00008F6F0000EB
:10614000F8B504000D0016001F00431E9841C0B2B0
:1061500099220549054B98473B0032002900200051
:10616000034CA0470020F8BDD8A00000456C0000FB
:10617000A16F0000EFF31083036072B6BFF35F8F6F
:106180007047BFF35F8F036883F310887047000088
:1061900070B504000D00002810D000290CD001209B
:1061A00032220C490C4B9847290020000B4B984792
:1061B00000280ED100230AE00020F1E70020EFE7DD
:1061C000DA00A2180021516091600133DBB2002B8C
:1061D000F6D070BDF4A00000456C00008D7000008A
:1061E00070B504000D0000280CD000290CD0002050
:1061F00052220649064B984729002000054B984734
:10620000002070BD0020F3E70120F1E7F4A00000BA
:10621000456C0000B9700000F0B5CE4600B582B004
:1062200007000D0014009946002807D0002907D167
:10623000002A18D0002B18D1002002E0002000E036
:1062400000206A221749184B984701972900380007
:10625000164B9847002822D02E00EB00FB185C60FC
:106260004A469A6011E00020EBE70120E9E7F400DC
:106270003C19636819882A0001980D4B9847636898
:1062800002336360A368013BA360F300FB189B68C3
:10629000002BECD1002002B004BC9146F0BD1D20C3
:1062A0004042F8E7F4A00000456C0000CD7000000B
:1062B000DF70000010B5024B1860024B984710BD0C
:1062C000A0000020D97B000010B5014B984710BDFD
:1062D0003D72000070B50125002407E00D4AB35857
:1062E000002B00D0984770BD013AD5B2AC42FAD825
:1062F0002B195B10DAB2002AF5D1FF210B40DE002A
:106300000449891949688142E8D0EDD20132D4B2FA
:10631000ECE7C046A400002010B50023002B03D0FA
:106320000748084B984710BD074AD9005018012468
:10633000644244600020885001339BB2EEE7C046BF
:10634000D5620000ED700000A400002010B5436984
:10635000002B00D0984710BD10B58369002B00D0EA
:10636000984710BD70B504000D00002813D0002917
:106370000FD0012038220949094B984729002000F5
:10638000084B9847002803D1074B2360074B6360F5
:1063900070BD0020EEE70020ECE7C04610A1000031
:1063A000456C0000657300004D63000059630000F8
:1063B000F0B5C64600B504000E0015001F00002809
:1063C00020D0002A20D0002B20D1002056221349B3
:1063D000134B98472000134B984780462000124BE0
:1063E000984743465843B04212D3BB19984212D340
:1063F0003B002A00310020000C4CA047002004BCC8
:106400009046F0BD0020E1E70020DFE70120DDE756
:106410000E204042F3E70E204042F0E710A10000BA
:10642000456C0000C5730000C9730000CF73000005
:10643000F0B5C64600B504000D0016001F00002888
:1064400026D0002A26D0002B26D100206A22184907
:10645000184B98472000184B984780462000174B50
:10646000984743465843A84218D37B19984218D3FB
:1064700029002000124B9847002815D13B0032001C
:10648000290020000F4CA047002004BC9046F0BD1E
:106490000020DBE70020D9E70120D7E70E204042AB
:1064A000F3E70E204042F0E711204042EDE7C046FE
:1064B00010A10000456C0000C5730000C973000006
:1064C000F57400001D74000010B50400431E9841CF
:1064D000C0B2F7220349044B98472000034B98476A
:1064E00010BDC04610A10000456C0000C57300003F
:1064F00010B50400431E9841C0B2802252000349E7
:10650000034B98472000034B984710BD10A1000093
:10651000456C0000C973000070B504000D00160042
:1065200000280ED000290AD0012034220649074B4A
:1065300098472368320029002000984770BD00204A
:10654000F3E70020F1E7C04628A10000456C0000F9
:1065500070B504000D00160000280ED000290AD0E6
:1065600001203D220649074B984763683200290005
:106570002000984770BD0020F3E70020F1E7C046F7
:1065800028A10000456C000010B54369002B00D025
:10659000984710BD10B58369002B00D0984710BDF7
:1065A00070B504000D00002812D000290ED0012083
:1065B00033220849084B984729002000074B984789
:1065C000074B2360074B6360002070BD0020EFE79E
:1065D0000020EDE73CA10000456C0000C97C0000F4
:1065E000896500009565000010B50400431E9841C0
:1065F000C0B24A220749084B98472000074B9847EA
:10660000002804D12000064B9847002010BD11201F
:106610004042FBE73CA10000456C0000757E000095
:106620001D7E000010B50400431E9841C0B25822E0
:106630000749084B98472000074B9847002804D08B
:106640002000064B9847002010BD11204042FBE778
:106650003CA10000456C0000757E00002F7E00000C
:1066600070B504000D001600431E9841C0B27C2294
:106670000449054B9847320029002000034B9847F6
:10668000002070BD3CA10000456C0000417E000070
:10669000F8B50668002E02D0330000250CE0104B40
:1066A000984718E09F68BC466444A41A01348F6878
:1066B000BC420BD21D001B68002B07D05C689442C3
:1066C000F0D8A41A9F68BC466444F0E7B34203D0F4
:1066D0002800044B9847F8BD014B9847FBE7C0469C
:1066E000656C0000916C0000F8B505004469036911
:1066F0005E1C0661037EDB0702D4037E9B070AD57E
:106700002B7E02221343DBB22B76F8BD6F69E36860
:10671000200098473C00002CF7D06368F31AA26869
:106720009342F2D32F0014373800064B9847237C4E
:10673000012BEBD16660320021003800024B9847F4
:10674000E4E7C046996C00009166000070B5040053
:106750000D00002812D000290ED001203B2208494C
:10676000084B984729002000074B984700232361D6
:10677000064B2360002070BD0020EFE70020EDE70E
:1067800054A10000456C000089750000E966000016
:1067900010B50400431E9841C0B253220749084B6C
:1067A00098472000074B9847002804D12000064B4B
:1067B0009847002010BD11204042FBE754A1000083
:1067C000456C00003D760000E575000070B582B0B4
:1067D00004000D00002826D0002922D001207A22B2
:1067E0001F49204B9847237E01221343DBB22376B7
:1067F00026001436290030001B4B9847002814D17E
:1068000023696B60226929003000184B9847237E6A
:10681000012293432376237E9B0712D4002002B0EB
:1068200070BD0020DBE70020D9E7237E01229343DF
:1068300023767E320A4900200A4B984712204042B4
:10684000EDE701A80A4B9847237E02229343237663
:106850002000084B984701A8074B98470020DEE727
:1068600054A10000456C00004D6C000091660000D2
:10687000756100004F7600008361000010B5083894
:1068800000230363436A002B00D0984710BD10B566
:10689000083800230363C36A002B00D0984710BD5B
:1068A00010B504002C30044B9847236A083C002B99
:1068B00001D02000984710BD456D000070B5040060
:1068C0000E00150000281DD000291DD0002A1DD162
:1068D00000203C22FF321049104B98474423E25AD3
:1068E0000833E35A9A4213D1A6644C23E55200229E
:1068F000083BE252433B236320000830084B984793
:10690000280070BD0020E4E70020E2E70120E0E776
:106910001C204042F5E7C0466CA10000456C000019
:10692000F57A000070B504000200083A4423D35AF7
:106930004C21525A93420DD00200016C083A5D1C62
:1069400044201552C95C2000044B98472000044B9A
:10695000984770BD034B9847FBE7C046ED7A0000AF
:10696000F57A0000FD7A0000F0B585B004000D0056
:106970001600002817D0002917D0002A17D10020B0
:10698000AC2252001249134B984703A8124B984768
:10699000343420000194114B9847070003A8104B92
:1069A000984700240BE00020EAE70020E8E70120F8
:1069B000E6E70134A4B2691801980A4B9847210010
:1069C000A74201D9B442F4D3200005B0F0BDC046BF
:1069D0006CA10000456C000075610000856D000031
:1069E00083610000F96C0000F8B504000D0016008A
:1069F0001F00002826D0002926D0002A26D0002BF0
:106A000026D100203A221549154B984720003430F2
:106A10003A003100134B984700281BD12000083062
:106A20002900114B984700280BD1104B6360104B85
:106A30002360104BA360104BE360104B2361104B9D
:106A40006361F8BD0020DDE70020DBE70020D9E727
:106A50000120D7E70D204042F3E7C0466CA10000BB
:106A6000456C0000AD6C0000FD7900006969000014
:106A7000BD68000025690000A16800007D68000075
:106A80008F68000010B50400431E9841C0B2612217
:106A90000449054B984720000830044B98470020D4
:106AA00010BDC0466CA10000456C0000897A000052
:106AB00010B50400431E9841C0B26C220449054B36
:106AC000984720000830044B9847002010BDC0466E
:106AD0006CA10000456C00009B7A000070B50500B9
:106AE0000E001400431E9841C0B283221649174B72
:106AF0009847012E11D0002E04D0022E18D00D2060
:106B0000404209E0AC62621E9441E2B228000830C3
:106B100001210F4B9847002070BD6C62621E9441AA
:106B2000E2B2280008300221094B98470020F3E721
:106B3000EC62621E9441E2B2280008300321044B4B
:106B400098470020E8E7C0466CA10000456C0000B3
:106B5000057B000070B504000D00431E9841C0B2D3
:106B6000AA220549054B9847200008302900044B0C
:106B70009847002070BDC0466CA10000456C000025
:106B8000AD7A000070B504000D00431E9841C0B2FC
:106B9000CB220549054B9847200008302900044BBB
:106BA0009847002070BDC0466CA10000456C0000F5
:106BB000BD7A000070B504000D00431E9841C0B2BC
:106BC000D6220549054B9847200008302900044B80
:106BD0009847002070BDC0466CA10000456C0000C5
:106BE000CD7A000070B504000D00431E9841C0B27C
:106BF000E1220549054B9847200008302900044B45
:106C00009847002070BDC0466CA10000456C000094
:106C1000DD7A000010B50400431E9841C0B2022284
:106C2000FF320549054B984720003430044B984704
:106C3000431E984110BDC0466CA10000456C000089
:106C4000856D0000002800D100BE70470368002B4E
:106C500003D08B4203D01B68F9E700207047012066
:106C6000FCE7000070B504000D00064B98470123B7
:106C70005840C0B239220449044B984723682B601E
:106C8000256070BD4D6C00008CA10000456C0000BB
:106C900003680B60016070470368002B03D01A681B
:106CA0000260180070470020FCE7000070B5040087
:106CB0000E001500002812D0002912D0002A12D18F
:106CC000002028220A490B4B98476B1E2B420CD1FF
:106CD00063600023A360E3602660002070BD002095
:106CE000EFE70020EDE70120EBE70D204042F5E75C
:106CF000ACA10000456C000070B504000D00002838
:106D000016D0002912D0012040220C490C4B984784
:106D1000A368E2689A420DD0626813402268D35C8F
:106D20002B70A3680133A360002070BD0020EBE747
:106D30000020E9E70A204042F7E7C046ACA1000086
:106D4000456C000070B504000D00431E9841C0B2B0
:106D500051220A490A4B98476368E2681340226847
:106D6000D554E368A2689A1A61688A4201D9591A0F
:106D7000A1600133E360002070BDC046ACA10000FB
:106D8000456C000010B50400431E9841C0B2672254
:106D90000349044B9847E068A368C01A10BDC04679
:106DA000ACA10000456C00000020704710B50B4BF3
:106DB000984702000020002806D07F2208490020C2
:106DC000084B9847002010BDC3001B1A9900064BC2
:106DD000CB5C9A42F7D00130C0B2ECE7A96D00005D
:106DE000ECA10000456C0000D0A1000070B50400CB
:106DF0000D003A4BC01843425841C0B29422384962
:106E0000384B9847384B1A68D2081202E023DB004F
:106E10001A4036490B6849684901DB0E0B43FF21D4
:106E20000B401A43637EDB09FCD123789B0704D512
:106E300000232370637EDB09FCD101232370637E72
:106E4000DB09FCD12285EA00521B9100284B5B181C
:106E50009A786270DA78A2701A79E2701A7C2275D8
:106E6000DA8AA2841A8BE284997E2A22A154DB88D2
:106E7000A380637EDB09FCD1EB005B1B9A001C4BFB
:106E80009B18DB682361637EDB09FCD1EB005B1B95
:106E90009A00174B9B181B7A2372637EDB09FCD187
:106EA000EB005B1B9A00124B9B185B8AA383637EEB
:106EB000DB09FCD1EB005B1B9A000D4B9B189B8AF6
:106EC0002384637EDB09FCD1EB005D1BAA00084B29
:106ED0009B185B782370002070BDC04600C0FFBDCA
:106EE000ECA10000456C0000246080002060800060
:106EF000D0A1000070B505000C00431E9841C0B23F
:106F0000C5220649064B98472C602000054B984740
:106F100001002000044B984770BDC046ECA1000062
:106F2000456C0000AD6D0000ED6D00000268137847
:106F300002210B43DBB21370704702681378022101
:106F40008B43137070470268537EDB09FCD1928833
:106F5000120903331340032B01D002207047012094
:106F6000FCE70368187E0123184070470268137B12
:106F700002210B43DBB21373537EDB09FCD1704754
:106F80000268537EDB09FCD1508B80B270470068E9
:106F900043780F229343114019434170704700001A
:106FA00030B5046823691F25AB432940194321618B
:106FB000637EDB09FCD101680B69064803401202BD
:106FC000F820400102401A430A614B7EDB09FCD1E4
:106FD00030BDC046FFE0FFFFBFF34F8F034A044BB5
:106FE000DA60BFF34F8FC046FDE7C0460400FA05E4
:106FF00000ED00E010B583001B18580101380A218C
:10700000014B9847013010BD859800008300181887
:10701000430164205843704710B5064B5A685A60C4
:10702000054B9847054B9847054B9847FF20054B64
:10703000984710BD004000414D750000917B000055
:10704000B57B000089720000C379DB09FCD1C379EC
:10705000DB09FCD103789B0707D500230370C379B4
:10706000DB09FCD1C379DB09FCD101230370C379AF
:10707000DB09FCD1C379DB09FCD18370412242706A
:107080000370C379DB09FCD10020704770B505009F
:107090000C00431E9841C0B249220449044B984752
:1070A0002C602000034B984770BDC04604A200002E
:1070B000456C0000497000000268137802210B4300
:1070C000DBB21370D379DB09FCD170470268D37946
:1070D000DB09FCD113785B08012018407047026877
:1070E0001181D379DB09FCD170470000224B5B781A
:1070F000DB09FBD1204B5B78DB09FBD11E4B1B78F6
:107100009B070AD500221C4B1A701B4B5B78DB09CE
:10711000FBD1194B5B78DB09FBD10122164B1A70AE
:10712000154B5B78DB09FBD1134B5B78DB09FBD19B
:10713000114B00229A70402159605A618021C90484
:107140009961DA611A7802210A43D2B21A700A4BA5
:107150005B78DB09FBD1094B102280215A50BFF329
:107160004F8FBFF36F8F0131FF315A501A60044BBC
:10717000186000207047C0460018004000E100E0A1
:10718000AC00002070B582B0264B1A69D9680A405D
:107190000192019A1A61244B1868431E9841C0B2AB
:1071A000D2222249224B984701256D422EE0013917
:1071B000CEB2B0420ED832185210D1B2FF231340D3
:1071C000DB001C4A9B5CA34203D0F0DA0131C8B259
:1071D000EFE716256B1C03D0134B1B68280098475C
:1071E0000122A240019B934301930198124B9847BF
:1071F000013844B2631C02D001260020D9E7094BB4
:107200001A69D9680A400192019A1A61019B002B00
:1072100005D00198084B9847013844B2EAE702B01C
:1072200070BDC04600180040AC00002024A2000041
:10723000456C00001CA200000D9C0000002306E02D
:1072400059000E4A895A0E4A11810133DBB21C2BB8
:10725000F6D9002307E09900084A5218D16B084A72
:1072600051600133DBB20B2BF5D9054B0222FF3203
:107270005A61044A1A6100207047C0463CA20000CF
:1072800000040042FEFEFFFFC3070AD50B4B80221D
:1072900052009A608C2292035A60084B5B78DB099B
:1072A000FBD1830709D5054B0222FF329A60044ABD
:1072B0005A60024B5B78DB09FBD17047000C004041
:1072C00001030300037DDB07FCD52023FF33038389
:1072D0004908C161024B1A4392B202807047C0460E
:1072E00000A5FFFFF8B504000F0016001D000120E7
:1072F000084043425841C0B2C52252001549164BBE
:1073000098477908237DDB07FCD5144B2380237D28
:10731000DB07FCD52023FF3323830A00002304E08E
:107320005700388002339BB20132AB4208D2F75C7F
:10733000B8B23E2BF4D8F018407800023843EFE79B
:10734000237DDB07FCD5E161054B069A13439BB215
:107350002380F8BDA8A20000456C000044A5FFFFF3
:1073600000A5FFFF70B505000C0000281CD0104BD5
:1073700099421BD0002046220E490F4B98472C61A2
:1073800062689E23134063600C4B1D600C4B2022EF
:1073900080215A50BFF34F8FBFF36F8F0131FF3100
:1073A0005A501A60002070BD0020E4E70120E2E797
:1073B00000400041A8A20000456C0000B000002081
:1073C00000E100E04020704780204001704770B528
:1073D0004C0805692E7DF607FBD52020FF30288359
:1073E000C80707D50134012081430988090A1170B3
:1073F000012103E0002101E002312C0099420BD26F
:10740000651C6400208880B250545C1EA142F3D2F7
:107410004C1C000A1055EFE770BD0000F0B5DE46C9
:1074200057464E464546E0B5C5B0814616001D009C
:107430000C0048E05346990104AB5A1841444023DC
:107440004846294FB84701239C46E2445346032B44
:10745000F0D94346E31A99093F22134002E0013470
:107460000136013D039A94420DD8002D0BD030789F
:107470008A0104AFBC466244D05401333F2213401A
:10748000EDD10131EBE7022241464B461869174B1B
:10749000984700239A460EE05346990104AB5A18C8
:1074A0004144042300933C3348460069104FB847D9
:1074B00001239C46E2445346032BEDD92B19013B93
:1074C000039A9A4209D2FF2322009A43904617005A
:1074D000FF37039700239A46B8E745B03CBC904677
:1074E0009946A246AB46F0BDCF730000C5720000BE
:1074F000E5720000890B02690904090C01238B4025
:10750000108C184043425841C0B2704710B50A4B26
:10751000186803691A7DD20704D50368002B00D0D0
:10752000984710BD1A7D9207FBD502221A75436851
:10753000002BF6D09847F4E7B00000203823024A29
:10754000D05CC0B27047C04600040040064B1A7AB7
:10755000D2B21A725A7AD2B25A729A7AD2B29A7253
:10756000DA7AD2B2DA7270470004004010B5040033
:10757000C3681B7ADB0706D50368002B00D0984749
:10758000E36801221A7210BD70B504000D00431E9D
:107590009841C0B233221049104B9847E56001234F
:1075A0002B80AB7ADB09FCD1E268937ADB09FCD152
:1075B00080331380937ADB09FCD1E268936920233E
:1075C0009361937ADB09FCD10133E268D371044BF8
:1075D0001C60002070BDC046C8A20000456C0000C1
:1075E000B400002010B5041E20D0C368002B1BD0AF
:1075F00001206A220E490F4B984708220E4B1A6051
:10760000E268136900231361937ADB09FCD1E26815
:10761000937ADB09FCD1138802210B439BB21380C0
:10762000937ADB09FCD110BD0020E2E70020E0E7FF
:10763000C8A20000456C000000E100E0C268937A37
:10764000DB09FCD113885B080120184070477047A4
:107650000020704710B5024B1868024B984710BDC8
:10766000B40000206D750000024B9C466044800A07
:10767000C0B2704700F8FFBD10B58469237EDB07F8
:1076800002D5A37DDB070FD4237E9B0702D5A37D04
:107690009B070ED4237E5B0715D5628B37231A42D6
:1076A0000CD00833638310BD01232375036898470A
:1076B000F9E70223237583689847F4E74368218D2F
:1076C000C9B29847EFE7237EDB09ECD0802323760D
:1076D000C3689847638B9BB26383E4E7034B98428C
:1076E00000D07047024B1960FBE7C046000800421B
:1076F000B800002010B5024B98470930C0B210BD49
:107700006976000010B50B4B984702000020002856
:1077100006D0094A09490020094B9847002010BDAE
:1077200083001B189900074BCB5C9A42F7D00130BD
:10773000C0B2ECE7697600005E02000030A30000F2
:10774000456C0000E0A2000070B50400384B98477B
:10775000E369DB071DD483001B189A00354B9B1887
:107760005A681C231A40E3699B07FCD123689B07D6
:1077700009D5236802218B432360E3699B07FCD171
:10778000E3699B07FCD4012313432360E3699B0750
:10779000FCD1E369DB07FCD483001B189A00254B5E
:1077A0009B185B682360E3699B07FCD183001B186F
:1077B0009A00204B9B189B686360E3695B07FCD1D0
:1077C00083001B189A001B4B9B185B689A040BD410
:1077D000C022D201134207D183001B189A00154B17
:1077E0009B189B89A38115E083001B189A001149FF
:1077F00089188A89A389D204D20C5B0B5B031343DB
:10780000A3818B7B07221A40A3895203DB04DB0C84
:107810001343A381074A83001D18A9000D005118C6
:10782000C97BA1735219127C3023E254002070BD31
:1078300005770000E0A2000070B582B004000D00E2
:10784000E3699B07FCD12668760801231E40236864
:10785000022293432360E3699B07FCD101A80A4BF2
:107860009847E3699B07FCD4ADB2A58101A8074BFB
:107870009847236802229343760033432360E369E9
:107880009B07FCD102B070BD7561000083610000F0
:1078900070B582B004000D00E3699B07FCD1266837
:1078A000760801231E402368022293432360E36984
:1078B0009B07FCD101A8184B9847E3699B07FCD4B0
:1078C000022D21D0226880235B0413432360E369E7
:1078D0005B07FCD16B1E9D41EDB263680F4A1340FC
:1078E0006D031D436560E3695B07FCD101A80C4B88
:1078F000984723680222934376001E432660E3697B
:107900009B07FCD102B070BD2368064A1340236078
:10791000E3695B07FCD1DDE775610000FFDFFFFF76
:1079200083610000FFFFFFFE70B582B004000D0010
:10793000E3699B07FCD12668760801231E40236873
:10794000022293432360E3699B07FCD101A80F4BFC
:107950009847E3699B07FCD46B1E9D41EDB26368B9
:1079600040229343AD011D436560E3695B07FCD191
:1079700001A8074B984723680222934376001E43D1
:107980002660E3699B07FCD102B070BD7561000001
:107990008361000070B582B004000E00E3699B07AC
:1079A000FCD125686D0801231D4023680222934302
:1079B0002360E3699B07FCD101A80E4B9847E3695C
:1079C0009B07FCD4616807239943334019436160E6
:1079D000E3695B07FCD101A8074B9847002D06D04F
:1079E0002368022213432360E3699B07FCD102B0A2
:1079F00070BDC046756100008361000070B506006F
:107A00000C00431E9841C0B2C4221949194B984733
:107A10002000194B9847051E01D0280070BDB461A5
:107A200031002000154B98472000154B984743B272
:107A3000002B0ADB1F21014001228A408021114CCA
:107A40006250BFF34F8FBFF36F8F002B07DB1F21F7
:107A5000014001228A40C02149000A4C6250002B9B
:107A6000DBDB1F2318401E3B8340064A1360D4E72C
:107A700030A30000456C000049770000DD7600006F
:107A8000F576000000E100E08269136802210B43F3
:107A90001360D3699B07FCD1704782691368022188
:107AA0008B431360D3699B07FCD1704710B5806985
:107AB000014B984710BDC0463978000010B5806969
:107AC000014B984710BDC0469178000010B5806901
:107AD000014B984710BDC0462979000010B5806958
:107AE000014B984710BDC04695790000836989B263
:107AF00019857047836901229A757047836902224C
:107B00009A75704770B504000D001600431E984129
:107B1000C0B2174A1749184B9847002D0BD0022DB9
:107B200009D0012D18D0032D0FD1A369002E1CD030
:107B300080229A7509E0A369002E07D101221A75E7
:107B4000A369002E05D102221A7570BD01229A7513
:107B5000F6E702229A75F8E7A369002E02D1042203
:107B60001A75F2E704229A75EFE780221A75ECE79E
:107B70001E02000030A30000456C000010B5024B4F
:107B80001868024B984710BDB800002079760000B5
:107B9000074B06221A829A6902210A439A611A7FC8
:107BA0001D310A401A77024BDB68DB07FBD57047B3
:107BB00000080040024A936902218B439361704799
:107BC00000080040024B034A5A6005221A607047C1
:107BD00010E000E0FFFFFF0010B5014B984710BD1B
:107BE000C57B0000080E0BE00B4B0C4858609860FA
:107BF000094B1B68DB03FBD5094B9C466144100015
:107C0000421ED2B20028EFD1034B59609960024B5B
:107C10001B68DB03FBD5704710E000E0FFFFFF00AF
:107C2000010000FF034B984200D07047024B1960DF
:107C3000FBE7C04600200042BC00002070B50500F4
:107C40000469E36ADB0705D50123E3620368002BBF
:107C500000D09847A36A1B0706D50823E3626B6828
:107C6000002B01D02800984770BD000010B50023FC
:107C7000002B01D0002010BD9A00D218D100054A77
:107C80008A58824202D00133DBB2F1E70148401842
:107C9000F1E7C0460800002010B50023002B01D0FA
:107CA000002010BD9A00D2189100064A5218926A1C
:107CB000824202D00133DBB2F0E70248283040189C
:107CC000EFE7C04608000020F8B507000C000800E8
:107CD0004D4B9847061E00D18DE020004B4B984736
:107CE000051E00D18AE03C61A368DB0714D4A368B9
:107CF0009B07FCD123689B0709D523680222934385
:107D00002360A3689B07FCD1A3689B07FCD40123D5
:107D10002360A3689B07FCD1A368DB07FCD4B3688E
:107D20002360A3689B07FCD1337B6371737BA377CC
:107D3000336923622B69E363A268354B1A42FBD196
:107D4000AB682364A3681B06FCD4AB6873626B79D1
:107D5000012B35D0002B06D0022B3AD0032B41D07B
:107D60001C2040422BE0EB6873616364A268F0233F
:107D70001B011A42FAD10223237139002000254B3E
:107D800098470423EB56002B0BDB1F2213401E3AAF
:107D90009A401300802220498B50BFF34F8FBFF3CE
:107DA0006F8F0423EB56002B2BDB1F2213401E3A50
:107DB0009A401300C022520017498B500020F8BD92
:107DC000EB68B361A364A268F0231B011A42FAD1E5
:107DD000D1E7EB68F361E364A268F0231B011A4268
:107DE000FAD1C8E7EB6833622365A268F0231B0170
:107DF0001A42FAD1BFE70A204042E0E70A20404297
:107E0000DDE70020DBE7C0466D7C0000997C0000C8
:107E1000FF0F7F00257C000000E100E0026913688D
:107E200002210B43136093689B07FCD170470269E2
:107E3000136802218B43136093689B07FCD1704742
:107E400070B50E00150004692000094B9847002802
:107E50000CD0E666A3685B03FCD443791C339B001B
:107E60001D51A268F023DB031A42FAD170BDC0464F
:107E7000997C0000026993689B07FCD113685B083A
:107E800001201840704700207047000010B5024BD9
:107E90001868024B984710BDBC0000203D7C0000D4
:107EA000144BDB7BDB09FBD1124B1B889B0708D5EE
:107EB000104A138802218B4313800E4BDB7BDB09B6
:107EC000FBD101220B4B1A800A4BDB7BDB09FBD178
:107ED000084B08221A8028329A71074959815A732F
:107EE0009F321A731A8802218A430A4392B21A8077
:107EF00000207047003000422630000010B5041EFC
:107F000027D00368002B22D001204F221549164BA1
:107F100098472268D379DB09FCD11378DB091AD1A1
:107F2000D379DB09FCD113789B0717D4137804218C
:107F30008B431370D379DB09FCD1226853780F216E
:107F40008B435370D379DB09FCD1002010BD002096
:107F5000DBE70020D9E711204042F7E7112040423B
:107F6000F4E7C0464CA30000456C000070B5060065
:107F70000D001400002838D00368002B33D00120F6
:107F800079223E493E4B98473668F379DB09FCD1AC
:107F90003378DB0900D068E0F379DB09FCD1337872
:107FA0009B0765D42A00002320000021354CA04700
:107FB000002960D1FA239B0298424AD017D9FA23AC
:107FC0005B03984249D02BD9FA23DB03984248D06F
:107FD000FA231B04984246D0FA239B0398423ED0D2
:107FE0000D20404230E00020CAE70020C8E7FA2315
:107FF000DB01984229D009D8FA235B01984219D0B5
:10800000FA239B019842EBD1012114E0FA231B02D1
:1080100098421CD0FA235B029842E1D104210AE085
:10802000FA23DB02984216D0FA231B039842D7D1D9
:10803000072100E0002173780F2293430B437370F4
:10804000F379DB09FCD1002070BD0221F3E70321A5
:10805000F1E70521EFE70621EDE70821EBE709212C
:10806000E9E70A21E7E70B21E5E711204042EBE7CA
:1080700011204042E8E70D204042E5E74CA3000014
:10808000456C0000B99B000010B5041E14D00368B5
:10809000002B0FD00120FA220849094B984722688B
:1080A000137802210B43DBB21370D379DB09FCD1C7
:1080B000002010BD0020EEE70020ECE74CA30000FC
:1080C000456C000010B5041E12D00368002B0DD0C3
:1080D00001208C2252000749074B98472268A523AC
:1080E0001372D379DB09FCD1002010BD0020F0E72A
:1080F0000020EEE74CA30000456C0000044B1B7809
:10810000022B00D070470322014B1A70FAE7C046D9
:10811000C0000020034B1B78052B01D0014B1B78BE
:108120007047C046C000002072B6034A536801334E
:10813000536062B67047C046C000002070B50F4B58
:108140001B78062B15D006220C4B1A700C4C002104
:1081500020000C4B9847012120000B4B984700232F
:10816000192206212000094DA84700212000084BB4
:1081700098470022014B5A7070BDC0464400002051
:1081800064010020396000001561000041610000B9
:108190000D60000070B50B4C220008320223002154
:1081A00009480A4DA84723890948584309490A4BF9
:1081B000984743001B18DB00181AE0600023238156
:1081C00070BDC046C0000020640100206560000052
:1081D000B5080000FF0F000099990000F0B583B0CA
:1081E0000F0016000193114C114A01212000114D7E
:1081F000A847114A00212000A847104A0221200068
:10820000A847390020000E4B9847310020000D4B45
:108210009847019920000C4B98470C4920000C4BC3
:10822000984720000B4B984703B0F0BD7801002021
:10823000FD800000DD6A00006582000015810000FD
:10824000856B0000B56B0000E56B000015FB0000BE
:10825000556B0000856A0000014B58687047C046A6
:10826000C000002000B583B01748184B984700287D
:1082700028D06B46D91D00230B7001221248144BE5
:1082800098470128F0D1134B1B78042B16D0114BC3
:108290001B78052BE8D1104B5B88FB2BE4D80E4AEA
:1082A000591C51800432694607310978D1540B4B6F
:1082B0009847084B186101221A75D5E70522054B2E
:1082C0001A70E4E703B000BD78010020156C0000CF
:1082D00051650000C0000020E0020020598200002B
:1082E00010B50400014B9847001B10BD59820000D7
:1082F00010B5524B1B78DBB2052B00D98BE09B00ED
:108300004F4AD3589F464D4B18694E4B98473128DA
:1083100022D94D494A8804314C484D4B9847474C27
:10832000022323704B4B9847206115E0434B18699B
:10833000444B9847F423FF3398420DD93F4CF13B0F
:10834000FF3B2370434B9847206105E03B4C0023E3
:108350002370404B9847206110BD3F4B1B78022B88
:108360000AD03E4B1B78002BF6D0344C00232370F0
:10837000384B98472061EFE73448394B984772B63D
:10838000102238493848394B9847394B9847E8E725
:108390002A4B18692B4B984718281FD82F4B1B784E
:1083A000002B1BD1254B1B7D002BD5D00022234B4E
:1083B0001A752A4A53885B08DBB25370032BCBD95A
:1083C00010002C4B984702280FD00328C4D11B4C17
:1083D000002323701F4B98472061BDE7174C0023F3
:1083E00023701C4B98472061B6E7174C21001B48AF
:1083F000214B98476378002B06D0104C0123237043
:10840000144B98472061A7E70C4C00232370114BB5
:1084100098472061A0E7094C042323700D4B98472F
:10842000206100232375084A1370537053800B4A50
:1084300000211170517053808EE7C046C0000020AB
:1084400064A30000E1820000F8030020780100200E
:10845000196500005982000098000020E002002009
:10846000B16A0000E4A30000007F0020ED9E000040
:10847000D96F0000694C0000794E000010B5084922
:1084800001230B62074A4A6228228B541831064C9A
:108490002000064B98472000054B984710BDC0466A
:1084A000C000002029810000C8010020CD67000025
:1084B00091670000F8B504000E001700164B1B78FA
:1084C000834214D0144B1870144D00212800144B13
:1084D000984739002800134B9847002332002100A9
:1084E0002800114CA04700212800104B98472C234E
:1084F0000F4AD35C012B00D0F8BD140008320133C1
:10850000002106480B4DA84702222C23E2540A4BB7
:1085100098472063F0E7C046440000206401002033
:108520003960000015610000416100000D6000002D
:10853000C0000020656000005982000070B52C2347
:10854000924AD35CDBB2012B00D1C6E0002B00D1F4
:10855000D9E0022B00D010E11389002B34D08B4BD3
:10856000586B8B4B9847092800D80DE1874B1B7837
:10857000042B00D008E1874B5B78002B09D1834B9B
:1085800038215A5C01325A541A89D96B8C4662449C
:10859000DA637E4B00221A817E4A00215170382214
:1085A0009B5C022B18D97B4B9B78012B72D0002B44
:1085B00031D0022B00D181E0744C00222C23E254F4
:1085C000754B98472063DFE0140000222C33E254FF
:1085D000714B98472063D7E06C4C373A2C23E25418
:1085E0006D4B984720636B4B9B78012B07D0022B78
:1085F0000BD0012219210720684B9847C4E00022C4
:1086000018211820654B9847BEE00122192101204E
:10861000624B9847B8E05D4BDB6B61485843614D56
:108620006149A84706006148801BFA24A400604302
:108630005F49A847010020007043A84700230C2B86
:1086400007DCD9005B4A52185268904201D20133CC
:10865000F5E70C2B17DC002B1ADD5D1E554AED00EB
:1086600051194968DB00D4186468091B001B9C5829
:10867000AA58A21A64235A435C435043494B984773
:10868000211A643900E04C494C484D4B984793E718
:108690000021F9E73D4BDB6B4A4858434249414BC7
:1086A0009847494BC318642058431821474B9847B3
:1086B000474BC1184748424B98477DE7334BDB6B2C
:1086C000374858433849374B9847810009184900C3
:1086D000091841483A4B98476EE72C4B186B2C4BC6
:1086E0009847632850D9FF222A4B1A70FE3A192165
:1086F00006202A4B9847254C00222C23E254264B77
:108700009847206340E0214B1B78042B3CD11F4B42
:10871000586B1F4B9847F423FF33984234D91E4DB2
:10872000A8471A4C606301222C23E254A847206317
:108730000023E3633822A354164B9B78002B0AD006
:10874000012B11D00022134B9A70013219210720FE
:10875000124B984718E001220E4B9A700022182104
:1087600018200E4B98470FE002220A4B9A70013AEC
:1087700019210120094B984706E0044C00222C23C4
:10878000E254054B9847206370BDC046C0000020EE
:10879000E18200004400002059820000B5840000FE
:1087A000B508000085980000FD2F0000E40C0000D3
:1087B000983A00007CA30000701700002C020020F3
:1087C000BD46000010270000F2E5FFFF9999000068
:1087D000C4090000E0030020FC01002070B50D4D2D
:1087E0003E2229000C480D4B9847E8870C4C20008E
:1087F0000C4B9847060020000B4B9847411E7143D5
:1088000040232A002000094CA047002800D0FEE7A2
:1088100070BDC0464C020020FFFF00006947000009
:1088200048010020C9640000F164000031640000C8
:1088300070B5254C2000254B984705002000244B9F
:108840009847411E69434023224A2000224CA047FA
:10885000002800D0FEE71F4C3E2221001F48204B7D
:108860009847E38F98422DD01A4C4022FF212000D8
:108870001C4B98477B2323607A3BA38601222271FD
:108880006371A3710523E371174AA260174AE2607E
:10889000174AA261174AE261174A2262174A6262C6
:1088A0000022226162610A3222850F32628587329C
:1088B000A285134AE285C8226286C63A2286E386EA
:1088C000104B984770BDC04648010020C9640000A5
:1088D000F16400004C020020B1630000FFFF0000C3
:1088E00069470000239F0000983A000038630000A9
:1088F000B20C00005C5E0400A8610000B80B000030
:108900001A040000DD87000010B5074B1B68002B20
:1089100008D00120A9220549054B98470248054B7C
:10892000984710BD0020F5E768010020349F000043
:10893000456C0000C580000010B5174B1B68002B6C
:1089400023D001206F221549154B9847124CFA226B
:10895000802109022000134B98472368002B16D072
:1089600001208C220D490E4B98470B4C20000E4BDA
:1089700098472368002B0CD00120A9220749084BF7
:1089800098470548094B984710BD0020DAE70020BA
:10899000E7E70020F1E7C04668010020349F0000AF
:1089A000456C00006D7F000089800000C5800000DC
:1089B00070B5404B984772B63F4B404A5A604048AA
:1089C0009860404B984700286ED010223E493F489F
:1089D0003F4B98473F4B984704223F4B1A603F4B11
:1089E00098473F4B18700023012202219620C001B6
:1089F0003C4CA0473C4B1A683C4B1A603C4A1268FE
:108A00005A603C4A12689A603B4A1268DA608025D4
:108A10006D002A0000213948394CA0472A00002166
:108A20003848A0473848394CA0473948A04739480A
:108A3000A0473948A0473948A0473948A047394B93
:108A40009847394B9847394A136C02210B431364FA
:108A5000374D2800374B9847374CA18D002228000E
:108A6000364B9847208E364B9847364B1860208DF2
:108A7000354B9847354B18600022354B1A60354B03
:108A80005A81E18D1960E18E59601A8162B6324DCA
:108A9000A847324CA047324B9847A047A847A04769
:108AA000304B9847A047F2E710222F490748084B60
:108AB00098478FE7154100004400002000FE0100A8
:108AC00000FD0100515F0000F4A30000007F0020C2
:108AD000ED9E000039890000040000203D75000073
:108AE0009C000020DD8100000CA080008800002098
:108AF00040A0800044A0800048A08000F80300202F
:108B0000239F0000E002002090020020A946000000
:108B1000A80200202C020020C4020020E003002054
:108B2000FC0100207D840000318800000008004026
:108B30002C010020256600004C0200206166000028
:108B40005D8C000024010020698C000020010020C1
:108B50009C050020C0080020F18200000989000067
:108B6000099600003D85000004A400000A4B002285
:108B70009A61DA611A6110329A7310329A731A8804
:108B800002210A4392B21A80044B80221203C021B0
:108B900049005A501A6070470030004200E100E07E
:108BA000802109038023084AD150BFF34F8FBFF3C0
:108BB0006F8F064A138802218B431380034BDB7BA4
:108BC000DB09FBD17047C04600E100E00030004205
:108BD000204B9B7B9B0610D51F4B1B88132B09D862
:108BE0001C4AD0691C49DA008A1890600220107172
:108BF00001330B802022174B9A73164B9B7BDB06AD
:108C000010D5154B1B88132B09D8124A90691249AD
:108C1000DA008A1890600120107101330B80102255
:108C20000C4B9A730B4B9B7BDB0706D50A4A538888
:108C3000013353800122074B9A73064B9B7B9B07A2
:108C400006D5054A5388013353800222014B9A739B
:108C50007047C04600300042F804002010B5014BB8
:108C6000984710BDF56F000010B5014B984710BD37
:108C70000D70000070B5164C226A0023606A002156
:108C8000121A8B4114001D1E19DD114EF0690021CE
:108C9000B2690023801A99410E4A00230E4EB04754
:108CA00022002B000D4CA047002904DB0ED1FA2333
:108CB0009B0098420AD2FA208000002106E0002B97
:108CC00001D1002AE1D1FA208000002170BDC04608
:108CD0004C02002010270000B99B0000719B00008F
:108CE000F8B5002825D015494C6A0025CA6900232B
:108CF00006000027921BBB4110001900104A0023F8
:108D0000104EB04706000F000F4B984702000B00B3
:108D1000300039000D4EB04724184D41002D09DBBD
:108D2000064BD86800239D4203DC01D1844200D861
:108D30002000F8BD00240025F2E7C0464C020020C8
:108D400010270000B99B0000758C0000719B00008B
:108D5000F8B5A24B0A229B5E182B00DCDDE09F4B8E
:108D60000022DA600121494219615A619A61D96190
:108D70001A625A629962DA621A6359639A63DA6311
:108D800019645A64002300E00133182B66DC934910
:108D90009800C01882008A1848320020125EC86805
:108DA0008018C86009698A4201D28C490A618B49DE
:108DB00049698A4201D989494A61884A9800C0189C
:108DC00081005118C96C906940189061D269914234
:108DD00001D2824AD161814A126A914201D97F4A05
:108DE00011627E4A9800C01881005118096D506ABE
:108DF00040185062926A914201D2784A9162774A51
:108E0000D26A914201D9754AD162744A9800C01859
:108E100081005118496D106B40181063526B9142DC
:108E200001D26E4A51636D4A926B914201D96B4AED
:108E300091636A4A9800C01881005118896DD06BFF
:108E40004018D063126C914201D2644A1164634AA3
:108E5000526C914298D9614A516495E75F4C604DDC
:108E60001921E068A8470700E0601921A069A84718
:108E7000A0611921606AA847060060621921206B71
:108E8000A84720631921E06BA847E063554BDB8DB1
:108E9000554A934251D922681100C831994212D9DA
:108EA00052498A420FD90D2F0DD8182E05D94D4998
:108EB0004979002907D0182805D8484B193A1A6073
:108EC00000221A8126E0C8339A4212D2484B9A42B5
:108ED0000FD8042F0DD9642E05D8424B5B79002B97
:108EE00007D0642805D93D4B19321A6000221A8137
:108EF00010E03C4B5B79002B10D0320008329042DE
:108F00000CD9364A5268012A08D9344B023A5A60C1
:108F100000221A810022314B5A81F8BD002BF9D072
:108F200008308642F6D92D4B5B68122BF2D82B4ABB
:108F30000233536000231381ECE7284A12681900BA
:108F4000C8318A4212D22B498A420FD80D2F0DD830
:108F5000182E05D923494979002907D0182805D8A2
:108F60001E4B19321A6000221A81D3E71100C83152
:108F7000994211D9C82A0FD9042F0DD9642E05D8CA
:108F8000184B5B79002B07D0642805D9134B193A8D
:108F90001A6000221A81BDE7124B5B79002B0DD0BD
:108FA00032000832904209D90C4A5268012A05D988
:108FB0000A4B023A5A6000221A81ABE7002BA9D073
:108FC00008308642A6D9054B5B68122BA2D8034A0B
:108FD00002335360002313819CE7C046C008002081
:108FE000859800004C020020720600003A0700003D
:108FF000C3090000A9050000F0B5D6464F46464615
:10900000C0B58CB00190BF4B1E88BF4B186ABF4BD8
:109010009847BF4B98421CD8BB4B986CBB4B9847AA
:10902000BB4B984222D8BB48BB4DA8470700040061
:10903000621E9441E4B2B948A84703005A1E934106
:10904000DBB2002F18D0002816D00222B44B1A60D1
:1090500017E0B048B34DA847B348A8470023B34A28
:109060001380B34A1380B34A1380D5E7AB48AD4DA4
:10907000A847B148A847D6E7234322D00322A84BEC
:109080001A60AE4B1B68002B11D0AD4A1168AD4A77
:1090900091420CD9AC4A914209D8FA2292009A180E
:1090A000914204D2FA2292008A1893420DD3A44B23
:1090B0001A68A24B1A600CB01CBC90469946A24696
:1090C000F0BD0422964B1A60DBE79C4B19609F4869
:1090D0009F4B98478B4B5B88002BECD19D4A1388A4
:1090E000013313809C4BDB8D98469C4B984508D9E7
:1090F00001209A4B984506D902239C46002700255B
:1091000069E00220F5E701239C46F7E7CB007D4CA0
:10911000E3181B799C4567D18E42CCDD28220021C3
:1091200002A88F4B9847864B1B68029300239946F1
:1091300000209C466B1C9E4276DD884A904556D99D
:10914000E900704A52181279012AB4D16D4A5118B7
:109150008968D80012181279022AACD10235694BFD
:109160001B189A68511A0800BF18019B9F425BD2D6
:109170007C4B9F4258D89142DCD27B4B9F42D9D93D
:1091800002239A46D1446346FB1AB42292009342CA
:10919000D0D9831F973AFF3A9342CBD8039B5A1CEE
:1091A0009246032AC6D86D49884536D944083C1BE7
:1091B000D10002AA8C500133DB0002AA944663441A
:1091C000586053460393BC46B4E7ED004D4B5D1920
:1091D000AB68FF180D00691C8E429DDDEA00494B0B
:1091E0009B181A79904291D0022AF3D1EDE7EA0058
:1091F00044498A181279022A00D05CE7EA008A18EA
:109200009268DC0009190979012900D053E7023579
:109210003C4B1B1901009868A6E744083C19591CEF
:10922000C90002AA8C50C6E74B46632B00DD6323BE
:109230004E4A13804E4B08229B5E312B22DC0133B9
:109240004B4A1381039B002B00D134E73B4A526801
:10925000002A01D1394A5360384A5268934206D0F5
:1092600036498A6801328A60022A00DC23E7334AE1
:10927000536000219160092B00D909232B4A1380E8
:1092800000238EE03A4B0A229A5E182ADADC142177
:109290005143374B5B18483349461980039B002BD9
:1092A0001ED0049B019314235343314AD218019BCF
:1092B000D364059B1365039B012B19D92C4B0A2200
:1092C000995E069A019214224A439B18019A5A65A4
:1092D000079A9A65264A0A21535E01335381B1E702
:1092E00014235A43224B9B180022DA641A65E2E7E2
:1092F0001F4B0A22995E14224A439B1800225A658A
:109300009A65E7E7F8040020FC0A0020E1820000EB
:109310001027000090020020F5460000A80200205F
:1093200004000020B3460000140200208E0200203A
:10933000C00200208C020020E4010020080100206F
:10934000CC000020204E0000C7AF0000C402002067
:10935000BD460000DC0200204C0200207206000026
:10936000239F00003F9C0000CF0200004402002029
:10937000C00800205C1C97489A00D318D9004118F7
:109380000431A3001B19DA00801804300B0002001E
:1093900023CA23C323CA23C323CA23C312681A6060
:1093A0002300122BE6DD8B4802A9BF239B00C318C4
:1093B0000A0032CA32C332CA32C332CA32C3126856
:1093C0001A600368132B04D801330360132B00D8F1
:1093D00071E6814AD368591CD160032B00D86AE634
:1093E0000021D16014E07D4B28224A4301204042F5
:1093F000D0509B1800225A609A60DA6018615A6156
:109400009A61DA6118002430027025331A70013134
:109410000229E8DD00226FE049423FE09800C018D1
:10942000C4006E49091924310878013008700133ED
:10943000022B60DC91008918C80066490918896808
:109440009942F4D991008918C9180131C9006148BD
:10945000411848689C00E418E50060494919CC6847
:109460002418CC604968884202D95C49491948608F
:109470009900C918CC0059496158884201D257490E
:109480006050002A15DD541EA1000919C9180131C8
:10949000C900504C61184968411ABDD49800C018E1
:1094A000C4004E4800198069884202D24B48001916
:1094B000816191008918C9180131C90045484118D6
:1094C0008C689800C018C50044494919C86900193A
:1094D000C86149698C4202D9404949194C619900D7
:1094E000C918C8003D49091809698C4296D23B4900
:1094F00009180C6192E70132132A01DC002397E777
:109500000024354B1C8200E00134022C35DC334A48
:1095100028236343D518696888469F58CE1BAE60E0
:10952000E8682F4B984724352B78142BECD12D4B22
:109530009F42E9D9B845E7D328226243274B9B18BD
:109540009A69A0235B009A42DED8C8235B019E4241
:10955000DAD8022C01D10028D6D0282363431F4D2E
:10956000ED182B00253301221A701F4B98472862F3
:10957000194A138A01331382C6E7174B1B8A002B43
:1095800024D01A1C092B00D90922184B1A80252334
:10959000124AD35C002B07D01500D1681448154C33
:1095A000A047E9691448A0470C4B144A198B118055
:1095B0004D229B5C002B00D17DE5084D696B104866
:1095C0000C4CA047696C0F48A04774E50022024B81
:1095D0001A82DCE79C05002008010020FC0A00201C
:1095E000E18C0000CF02000059820000C002002080
:1095F00090020020BD460000140200208C020020D2
:10960000A8020020E4010020F0B5DE46574680B5F0
:1096100087B0764B1B78002B00D0DAE0744B1B78B8
:10962000042B04D007B00CBC92469B46F0BD714B96
:109630005869714B9847714B5B8E9842F2D3704BCF
:1096400098470122694B1A706E4B9847694B5861D5
:109650006D4C23689802C01A6C496D4B984704AB57
:10966000D8806068142808D8002838D08302181AD7
:109670006649674B984785B200E00625002D30D13A
:109680006420644B98470290634E00213000634B86
:109690009847012304AA063200213000604EB047EB
:1096A000604B9847142200235F4EB0475F4A012366
:1096B0005B4212184B411600002B03D104D15C4BC6
:1096C0009E4201D95B4800214C4BDA68FA23DB004B
:1096D0009C466244584B9A4205D8002305E0002579
:1096E000CCE75020CDE7544A0023544EB0474E4FAC
:1096F000534A0023B8470390524A0023B0470090D2
:109700000191514CA047514B98473C4B998D5A8D34
:109710004F48504B98474E484F4B9847354B9B46C8
:10972000996900204D4B9A4698474D4B9847A04762
:1097300072B6A42200214B484B4B9847C026F60531
:1097400080242401B4615B46D9690020D04774614C
:109750003F48464B9847464B984762B6454A0023D8
:1097600000980199B8470600029C10E004AB9A1DCE
:10977000DB88EB181380012304AA06320021264857
:10978000274FB84721000020344B9847013E002E58
:109790000CDB002DF6D0194BDA8D374B9A42E5D908
:1097A00004AB9A1DDB885B1B1380E4E7264B9847CC
:1097B000324B98470D4E02233370124DA8470D4C83
:1097C000606103982E4B984700233370A84760616F
:1097D00028E71F48254B9847254B98470022034B05
:1097E0001A70084B9847034B58611BE75400002040
:1097F000C000002008010020E18200004C0200208F
:10980000518D000059820000C0080020E40C0000C7
:1098100085980000F56F00006C010020E1610000F8
:1098200019620000758C0000719B000078ECFFFF4E
:10983000DC050000A8160000A0860100B99B00000E
:109840001027000040420F00098900003D81000000
:109850002C01002061660000E9650000E57B000046
:1098600095810000F8040020239F00002566000079
:109870006D8B000000105E5F72060000A18B00007F
:10988000F98F0000002243088B4274D303098B42F6
:109890005FD3030A8B4244D3030B8B4228D3030CC0
:1098A0008B420DD3FF22090212BA030C8B4202D362
:1098B0001212090265D0030B8B4219D300E0090A8A
:1098C000C30B8B4201D3CB03C01A5241830B8B4293
:1098D00001D38B03C01A5241430B8B4201D34B037C
:1098E000C01A5241030B8B4201D30B03C01A5241E1
:1098F000C30A8B4201D3CB02C01A5241830A8B4266
:1099000001D38B02C01A5241430A8B4201D34B024E
:10991000C01A5241030A8B4201D30B02C01A5241B2
:10992000CDD2C3098B4201D3CB01C01A5241830966
:109930008B4201D38B01C01A524143098B4201D3A0
:109940004B01C01A524103098B4201D30B01C01ACB
:109950005241C3088B4201D3CB00C01A5241830845
:109960008B4201D38B00C01A524143088B4201D372
:109970004B00C01A5241411A00D2014652411046D2
:109980007047FFE701B5002000F0F0F802BDC046C7
:109990000029F7D076E7704703460B437FD40022B7
:1099A00043088B4274D303098B425FD3030A8B4273
:1099B00044D3030B8B4228D3030C8B420DD3FF22DD
:1099C000090212BA030C8B4202D31212090265D0AB
:1099D000030B8B4219D300E0090AC30B8B4201D35E
:1099E000CB03C01A5241830B8B4201D38B03C01AA5
:1099F0005241430B8B4201D34B03C01A5241030B1C
:109A00008B4201D30B03C01A5241C30A8B4201D3CC
:109A1000CB02C01A5241830A8B4201D38B02C01A77
:109A20005241430A8B4201D34B02C01A5241030AEE
:109A30008B4201D30B02C01A5241CDD2C3098B42D3
:109A400001D3CB01C01A524183098B4201D38B0150
:109A5000C01A524143098B4201D34B01C01A5241F3
:109A600003098B4201D30B01C01A5241C3088B4238
:109A700001D3CB00C01A524183088B4201D38B0023
:109A8000C01A524143088B4201D34B00C01A5241C5
:109A9000411A00D201465241104670475DE0CA0F9C
:109AA00000D04942031000D34042534000229C465C
:109AB00003098B422DD3030A8B4212D3FC22890166
:109AC00012BA030A8B420CD3890192118B4208D33C
:109AD000890192118B4204D389013AD0921100E09E
