:10400000283400202541000021410000214100000A
:1040100000000000000000000000000000000000A0
:10402000000000000000000000000000214100002E
:1040300000000000000000002141000021410000BC
:10404000214100002141000021410000A978000029
:10405000D973000061770000214100002141000078
:1040600021410000D17D00002141000021410000DC
:10407000214100000000000000000000E18000007D
:10408000214100002141000021410000F18D00008C
:10409000214100000000000000000000214100005C
:1040A0002141000021410000214100002141000088
:1040B0000000000010B5064C2378002B07D1054BFB
:1040C000002B02D0044800E000BF0123237010BD84
:1040D0005C000020000000000CAB0000084B10B595
:1040E000002B03D00749084800E000BF07480368D9
:1040F000002B00D110BD064B002BFBD09847F9E7F1
:1041000000000000600000200CAB00000CAB0000C1
:104110000000000010B5014B984710BDF9450000A4
:10412000FEE70000F8B5234A234B9A4209D0224B00
:10413000204A03E011681960043304321F498B429E
:10414000F8D31F4B02E000221A6004331D4A934249
:10415000F9D31D4AFF211D4B8B439360FD399023FA
:104160005B001B4AD1501B4AD3780325AB43022482
:104170002343D370D3780C27BB4308263343D37033
:10418000154B987B30229043202210439873997BE3
:10419000B943314399739A7BAA4322439A730F4AD6
:1041A000516880230B4353600D4B98470D4B984744
:1041B000FEE7C0460CAB0000000000205C000020C1
:1041C0005C0000202814002000ED00E0004000000A
:1041D0000070004100500041004800410040004193
:1041E00009A500000D8C000010B5084A9369202134
:1041F0000B439361064A074B5A80074B98470200CE
:1042000006490748074B984710BDC04600040040C8
:1042100004410000000C0040A5780000001400409C
:10422000C8010020A1690000F0B5C64600B5C02352
:10423000DB0598460823424653601F4B1F4A9A628B
:10424000C0210906996243201A5C0124A446A243B6
:1042500001273A43D2B21A5412381A5C0F26324060
:1042600010252A43D2B21A54402240464260144AD2
:104270009A62996246201A5CA2433A43D2B21A5417
:104280003234185D0F2290433843C0B21855713252
:10429000404642600B4A9A6299624722995C6046A6
:1042A00081433943C9B299541A5D32402A43D2B28C
:1042B0001A5504BC9046F0BD00440041080000407F
:1042C0004000004080000040044A116A80235B02E5
:1042D0000B431362024A034B5A80704700040040AC
:1042E0001E400000000C004010B5054B9847054BE0
:1042F0009847002204490548054B984710BDC04621
:10430000C942000029420000004000426401002030
:104310002962000010B5104A104B5A808022D20347
:10432000C023DB055A600E4B0E4A9A620E4A9A620F
:1043300056215A5C042082435A545A5C0338824303
:104340000243D2B25A541B395A5C0F2082435A544A
:10435000064B984710BDC04605400000000C0040C9
:104360000044004100000240400002C06D650000B2
:10437000024AD36904210B43D36170470004004013
:1043800010B5034B984703490348044B984710BDA9
:10439000714300000040004148010020B965000061
:1043A000044A136A04210B431362034A034B5A80E5
:1043B0007047C0460004004014400000000C00405C
:1043C00030B50F4B4422995C0125A94301242143B8
:1043D000C9B299543220195C353A914303221143F2
:1043E000C9B2195445215A5CAA432243D2B25A5445
:1043F0001A5C36390A4030210A43D2B21A5430BD11
:104400000044004110B582B0064B9847002300934A
:104410001033054A05490648064CA047064B984705
:1044200002B010BDA1430000780000200008004247
:10443000780100203D6C0000C143000010B5024827
:10444000024B984710BDC04610E000E0096500002F
:10445000074B196A802252010A431A62196A8022A4
:1044600092010A431A62034A034B5A807047C046BE
:10447000000400401C400000000C004010B5042265
:10448000C023DB055A600A490A4B8B62C0231B0616
:104490008B624223CA5C012082430243D2B2CA54D7
:1044A00031228B5C0F24A3430343DBB28B5410BD3A
:1044B0000044004104000040044A116A8023DB02EA
:1044C0000B431362024A034B5A80704700040040BA
:1044D00021400000000C004010B5044B98470449EF
:1044E0000448054B9847054B984710BDB944000058
:1044F000004800426C010020E56300007D4400009C
:1045000010B5054A054B5A80054A136A02210B4330
:104510001362044B984710BD07400000000C004098
:10452000000400401D650000084A5221535C012030
:1045300083430343DBB253541939535C0F20834345
:1045400005200343DBB253547047C046004400418A
:10455000044A116A80235B000B431362024A034B37
:104560005A807047000400401A400000000C0040D0
:1045700010B5064B9847064B9847064B98470200E4
:1045800005490648064B984710BDC04651450000F6
:1045900029450000DB800000002000422C010020A3
:1045A000F5670000044A936910210B439361034AA5
:1045B000034B5A807047C04600040040034100008E
:1045C000000C004010B5064B9847482205490120D1
:1045D000054B98470548064B0360064B984710BDAE
:1045E000A545000098A50000996E00006801002014
:1045F000001000405181000070B51B4B9847C0224D
:10460000D20580235B0053619360184B184999626F
:10461000C02424069C624825595D012081435955D8
:104620008021090151619160124A9A629C624B217A
:104630005A5C82435A54104B9847104B9847104B82
:104640009847104B9847104B9847104B9847104B82
:104650009847104B9847104B9847104B9847104B72
:104660009847104B984770BD6D72000000440041A0
:104670000001004000080040E9420000154300002E
:1046800081430000054400003D440000E941000072
:1046900051440000F5800000014500007145000014
:1046A000D9440000C5450000002801D0FF23037550
:1046B0007047002801D000230375704710B500280B
:1046C00017D0037D052B01D900230375037D042B2F
:1046D00001D900230AE05A1C02759B00195008E01A
:1046E0005A1C940024589B001C501300032BF7DD28
:1046F000016110BD10B5002825D0017DFF2907D02C
:10470000FE2909D005290BD900230375104802E0C2
:10471000002303750F4810BD002303750E48FAE708
:10472000002912D0012902D00023002205E00068F0
:10473000F1E79C002458121901338B42F9DB100079
:10474000064B9847E7E70648E5E70020E3E7C04661
:10475000839698008196980082969800E99E0000C2
:104760000100FFFF0020704730B500250CE0400835
:104770000133DBB2072B06D8C407F8D54008064C36
:10478000604080B2F4E70135954203DA4B5D584052
:104790000023EFE730BDC04601A0FFFF0022002349
:1047A00005E003210B439BB24000C0B20132072A4F
:1047B00008DC9B009BB241B20029F2DB01210B43D4
:1047C0009BB2F1E71800704710B5104B02001A4079
:1047D0009A4202D0FF23180010BD0021002305E0FB
:1047E00001221343DBB2800080B201310729F2DCE1
:1047F0005B00DBB2820B9203C0242402A242EFD002
:104800008024E401A242EED0FF23E4E755550000E6
:10481000F0B583B0070001914378012B03D8012044
:10482000404203B0F0BD8088234B9847FA2802D05D
:1048300001204042F5E70126204C0DE064080133D9
:10484000DBB2072B06D8E207F8D560081C4C4440C1
:10485000A4B2F4E70136F6B27B789E4217D2350057
:104860007300FB189888144B9847FB280FD07300EF
:10487000FB189888104B9847FC2808D06B00FB1851
:1048800098880D4B984780B244400023D9E7019B9C
:10489000002B0FD07B789E4202D301204042C0E71C
:1048A0007600BF19B888044B9847FB2802D0012036
:1048B0004042B6E72000B4E7C9470000FFFF000010
:1048C00001A0FFFF70B5050044787C2C10D87D2C2A
:1048D00001D901200DE0631C43700800054B984787
:1048E00064002C19A0806B8802336B80012000E0EB
:1048F000002070BD9D47000070B505000C009F2989
:104900000BD9A021064B9847002808D02100603120
:10491000C9B22800024B984701E0014B984770BD8F
:10492000C548000010B54378994201D3002010BD5E
:10493000490040188088064B98470300A02805D0FE
:1049400000209F229A424041C0B2F0E70120EEE7EA
:10495000C947000070B504000D000B7842789342FF
:1049600001D3FF2070BD5A1C0A705B00C3189888E1
:104970000B4B9847A02803D09F28F3D9FF20F1E7DD
:104980002B786278934201D3FF20EBE75A1C2A7000
:104990005B00E418A088024B98476038C0B2E1E79A
:1049A000C9470000F8B504000E00151E4ED00029BE
:1049B0002DD00978437899422FD2264B984700286A
:1049C00031D000232B60002731782000214B9847FD
:1049D000002833D0310020001F4B98470F230200DE
:1049E0009A43D3B29F2B24DC2B689A00D218530031
:1049F0000209D2B29B182B600F22104009281FDC3D
:104A00009A00D3185A00101828600137DCE70123F8
:104A10005B42136002277F4210E001235B42136078
:104A200003277F420AE001235B422B6004277F4279
:104A300004E001235B422B6005277F423800F8BD6C
:104A400001235B422B6006277F42F7E701277F4265
:104A5000F4E7C0462549000055490000F0B5CE46B0
:104A600000B582B001900E00171E994628D000298B
:104A700029D00023137009784378994226D2154B28
:104A80009847002801D0002409E00324644212E082
:104A90003C1931000198104B984720702C00651C80
:104AA0004D4505DA317801980A4B98470028EFD137
:104AB0003B1900221A70200002B004BC9146F0BDE0
:104AC00001246442F7E701246442F4E702246442CB
:104AD000F1E7C0462549000055490000F0B5CE4633
:104AE00000B586B001901600234B9847002838D0B7
:104AF000002E1BD01024002C25DD002E21D0013CDF
:104B00001E4B99460A2130009847CDB21C4F0A210E
:104B10003000B8470A21C8470901C9B2294302AB8E
:104B2000195564213000B8470600E4E700210198D8
:104B3000144B9847002801D0012517E003256D424A
:104B400014E0002500E000250F2C0FD80135661C6D
:104B500002AB195D01980B4B9847002804D0340034
:104B6000F2E702256D4201E003256D42280006B000
:104B700004BC9146F0BDC046C5480000F59F00004A
:104B8000E99E0000F948000070B50500161E14D01B
:104B90000B4B984700280DD00024315D002907D029
:104BA00001342800074B98470028F6D103246442BB
:104BB000200070BD02246442FAE701246442F7E752
:104BC000C5480000F9480000F0B5C64600B582B0FF
:104BD0000190171E98463AD0234B9847002801D0E1
:104BE000002624E0023837E00134E4B2A519A842D7
:104BF00003DDBA5D7B5D9A42F6D0032C04D8B95D23
:104C00009F291BD9022C19D9FD210198164B9847D1
:104C100000281FD021000198144B984700281FD06E
:104C2000B95D0198114B9847002805D02E004046E9
:104C3000464511DA0124D9E705380DE0751C0198C5
:104C40000A4B98470028F1D10620404204E0012099
:104C5000404201E00320404202B004BC9046F0BD57
:104C600004204042F8E7C046C5480000F94800006B
:104C700070B584B005004488002C00D1E6E0F92C22
:104C800007D900230370437043800020DFE0013C1C
:104C9000A4B2002C12D02A7955231340552B0DD0E5
:104CA0006E88002EF3D0281D013E691D32006F4B27
:104CB0009847B2B26A8052086A70E8E7002C03D1C4
:104CC0000020C4E0013CA4B2012C12D9A888684B92
:104CD0009847FA280DD06E88002EF3D0281D013E8B
:104CE000691D3200614B9847B2B26A8052086A70FF
:104CF000E8E7002C00D1ACE06608E30700D5AAE0A5
:104D0000042E00D8A9E001220F236B441A700F2350
:104D10006B441B789AB296421CD95B00EB189888BA
:104D2000534B9847FC2815D00F236B441B785B002E
:104D3000EB1898884E4B9847FF2805D00F226A44FD
:104D4000137801331370E2E700232B706B706B80D4
:104D500000207CE00F236B441B789E4200D87EE04D
:104D600001220F236B441A7004E00F226A44137867
:104D7000013313700F236B441B789AB2964210D9FB
:104D80005B00EB1898883A4B9847FB2809D00F2313
:104D90006B441B785B00EB189888354B9847FC28D0
:104DA000E3D10F236B441B789AB2964205D80023B7
:104DB0002B706B706B80032049E05B00EB189888C8
:104DC0002B4B9847FB28F2D10F2169440B78013314
:104DD0000B700023029302AA2800264B9847002854
:104DE00005DC00232B706B706B8003202FE001210A
:104DF0002800214B9847029B984205D000232B7036
:104E00006B706B80042022E00F21694401230B703A
:104E10000023019301AA2800164B9847002805DCBF
:104E200000232B706B706B80032010E0019A002A26
:104E300017D0124B19680A234B4301339A4212D000
:104E400000232B706B706B80052000E0002004B005
:104E500070BD0020FBE70120F9E70120F7E7012002
:104E6000F5E70220F3E70220F1E7C04663A5000062
:104E7000C9470000A5490000114800004802002071
:104E8000F0B5D646474680B591B004000D0000232A
:104E90000F930B704B704B80D34B1A6893009B1889
:104EA0005A000132FA212800D04B98470B2102AB5F
:104EB0009C46614401230B7001225242CC4B1A6084
:104EC000CC4A2000CC4B9847002830DDC94B1B68EA
:104ED000002B33D166887608002398460B2302AA5C
:104EE000944663441B789AB2964201D801F00AF9BD
:104EF0005B00E3189888C14B9847FC2801D101F06A
:104F000001F90B2202AB9C4662441378591C1170C4
:104F10005B00E3189888B94B98475F30C3B25E2BAB
:104F200001D901F0EAF89800B54B1B589F460822BA
:104F3000AF4B1A600120404201F005F9AA4A1268FD
:104F4000002AC7D091008A18510001318B42C1D08C
:104F50000922A74B1A600220404201F0F4F80FAA80
:104F60000B2102AB9C4661442000A34B98470028CC
:104F700002DD13229E4B1A60A24AA12128009B4BFE
:104F800098470028AADC0622994B1A60A6E701225E
:104F9000A2212800954B984700289FDC0622944BBD
:104FA0001A609BE7984AA3212800984B984700284D
:104FB00094DA06228E4B1A6090E7954AA4212800C5
:104FC0008A4B9847002889DC0622894B1A6085E7BE
:104FD0000FAA0B2102AB9C4661442000864B9847E8
:104FE000002802DD1322824B1A608A488A4B9847B8
:104FF0008A4B98477C4B1A698218A62128007B4B64
:105000009847002800DD69E70622794B1A6065E7BA
:105010000FAA0B2102AB9C4661442000764B9847B7
:10502000002802DD1322724B1A607A487A4B9847A7
:105030000200C12128006D4B9847002800DD4DE794
:1050400006226B4B1A6049E70FAA0B2102AB9C4664
:1050500061442000684B9847002802DD1322644B0E
:105060001A606F486C4B98470200CC2128005F4BB8
:105070009847002800DD31E706225D4B1A602DE7D6
:105080000FAA0B2102AB9C46614420005A4B984763
:10509000002802DD1322564B1A6062485E4B984787
:1050A0000200C2212800514B9847002800DD15E777
:1050B00006224F4B1A6011E70FAA0B2102AB9C4648
:1050C000614420004C4B9847002802DD1322484BD6
:1050D0001A605548504B98470200CD212800434B99
:1050E0009847002800DDF9E60622414B1A60F5E6F4
:1050F0000FAA0B2102AB9C46614420003E4B98470F
:10510000002807DD384BDB680F9A93420FD8142232
:10511000374B1A60344B1A6AC3212800334B984727
:10512000002800DDDAE60622314B1A60D6E62E4B67
:105130009B8E032B03D911222D4B1A60EAE73548C9
:10514000354B9847002803D11222294B1A60E1E71A
:10515000254B1B6A0F9A934205D0234B1A62986124
:1051600001239846D6E7204B9B699842F5D1D1E7B9
:105170000FAA0B2102AB9C46614420001E4B9847AE
:10518000002807DD184BDB680F9A93420FD81422D2
:10519000174B1A60144B5A6AC4212800134B9847C6
:1051A000002800DD9AE60622114B1A6096E60E4BA7
:1051B0009B8E032B03D911220D4B1A60EAE7154889
:1051C000154B9847002803D11222094B1A60E1E7DA
:1051D000054B5B6A0F9A934228D0034B5A62D86101
:1051E00001239846D6E7C04648020020DD4A000069
:1051F0000000002088000020A5490000C9470000E9
:10520000B4A500000200010030A70000894B000097
:10521000250001008C020020F5460000BD8F000033
:1052200014020020A4020020E4010020C54BDB6929
:105230009842D2D1AEE70FAA0B2102AB9C46614443
:105240002000C14B9847002807DDBE4BDB680F9A52
:1052500093420FD81422BD4B1A60BA4B5A6AAE2142
:105260002800BB4B9847002800DD37E60622B74BE5
:105270001A6033E6B34B9B8E032B03D91122B34B39
:105280001A60EAE7B348B44B9847002803D11222CA
:10529000AE4B1A60E1E7AB4B5B6A0F9A934205D0C5
:1052A000A84B5A62D86101239846D6E7A54BDB6923
:1052B0009842F5D1D1E70FAA0B2102AB9C4661447D
:1052C0002000A14B9847002806DD0F9BA34A93427C
:1052D0000FD914229D4B1A609A4B1A69A7212800F6
:1052E0009B4B9847002800DDF8E50622974B1A6093
:1052F000F4E5944A12699A42EED0924A136101236E
:105300009846E9E70FAA0B2102AB9C4661442000B6
:105310008D4B9847002802DD13228C4B1A60904871
:105320008D4B98478F4B984786490B79CA68896897
:105330008D4FB8470200A8212800854B98470028C8
:1053400000DDCBE50622814B1A60C7E50FAA0B21D1
:1053500002AB9C46614420007B4B9847002802DD4D
:1053600013227A4B1A607B487B4B98477D4B9847BA
:10537000744B5A698218A9212800754B9847002858
:1053800000DDABE50622714B1A60A7E50FAA0B21E1
:1053900002AB9C46614420006B4B9847002806DD19
:1053A0000F9B6E4A93420FD91422684B1A60654BCB
:1053B0005A69AA212800664B9847002800DD8DE530
:1053C0000622624B1A6089E55E4A52699A42EED023
:1053D0005C4A536101239846E9E70FAA0B2102AB0F
:1053E0009C4661442000584B9847002802DD132258
:1053F000564B1A605748584B98475A4B9847514953
:105400000B79CA688968584FB8470200AB21280059
:105410004F4B9847002800DD60E506224B4B1A6091
:105420005CE50FAA0B2102AB9C4661442000464B71
:105430009847002802DD1322444B1A60434B5A68F8
:10544000AC212800424B9847002800DD46E50622A3
:105450003E4B1A6042E50FAA0B2102AB9C46614409
:105460002000394B9847002802DD1322374B1A6081
:105470003E48394B98470200AD212800344B9847ED
:10548000002800DD2AE50622304B1A6026E50FAA27
:105490000B2102AB9C46614420002B4B984700280F
:1054A00002DD1322294B1A6031482B4B984702002A
:1054B000AF212800264B9847002800DD0EE5062284
:1054C000224B1A600AE50FAA0B2102AB9C466144ED
:1054D00020001D4B9847002802DD13221B4B1A6049
:1054E0001A4B1A68B0212800194B9847002804DD90
:1054F00001225242154B1A60F0E40622134B1A6047
:10550000ECE40FAA0B2102AB9C46614420000E4B39
:105510009847002802DD13220C4B1A60154B5A687D
:10552000D22128000A4B9847002807DD0122524269
:10553000064B1A6000220F4B5A60CFE40622034B41
:105540001A60F7E748020020A5490000000000208B
:10555000DD4A0000A4020020F546000010270000EC
:105560008C020020BD8F0000654700002C02002047
:10557000DC03002088000020282305AA0B2102A8B4
:10558000844661442000D54FB84700283FDDD44B06
:105590009B8E012B0ED01122D24B1A6005AAB1218D
:1055A0002800D14B9847002800DB97E40622CD4B1A
:1055B0001A6093E400230F93002100E0013105AB52
:1055C0005A5C002A0CD01300303BDBB2092BF5D813
:1055D0000F9B9800C01843009A18303A0F92EDE7DD
:1055E000BF4B1A680F9B9A42D8D0BD4A1360002364
:1055F0002B706B706B80126893009B185A000132FD
:10560000FA212800B94B984701239846C6E705AB15
:10561000B74A1188198092789A700227B54B019386
:1056200012E0062F16D0AE4B1868B34B9A4601997C
:1056300098470A21B14B9847303105ABD9550A211B
:105640000198D04701900137082FEADD002205AB11
:105650005A72A3E72F2205ABDA55F4E71023A84AC4
:105660000832B2212800A74FB847002800DD35E4F2
:1056700006229C4B1A6031E40FAA0B2102AB9C4618
:1056800061442000A04B9847002811DD944B9B8E6D
:10569000022B0AD8924B5A8E02AB9B8E9A4207D0AD
:1056A0008F4A53860123984602E011228D4B1A60DF
:1056B0008B4B5A8EB32128008C4B9847002801DD74
:1056C000FFF70CFC0622874B1A60FFF707FC01224C
:1056D000844B1A60FFF702FC0122824B1A60FFF72D
:1056E000FDFB0B227F4B5A60093A854B1A76FFF778
:1056F000F5FB0FAA0B2102AB9C4661442000824BB4
:105700009847002813DD764B9B8E022B0CD8744BE8
:105710009A7902AB34215B181B789A4207D0704A01
:1057200093710123984602E011226E4B1A606C4B74
:105730009A79B52128006D4B9847002801DDFFF7C5
:10574000CDFB0622674B1A60FFF7C8FB0FAA0B219F
:1057500002AB9C46614420006B4B9847002810DD4B
:105760005F4B9B8E022B09D85D4B9A680F9B9A4228
:1057700007D05B4A93600123984602E01122594BFF
:105780001A60574B9A68B6212800584B9847002852
:1057900001DDFFF7A3FB0622524B1A60FFF79EFBC9
:1057A0000FAA0B2102AB9C4661442000564B984740
:1057B000002813DD4A4B9B8E022B0CD8484B1A79DC
:1057C00002AB34215B181B789A4207D0444A13710C
:1057D0000123984602E01122424B1A60404B1A798D
:1057E000B7212800414B9847002801DDFFF776FBE1
:1057F00006223C4B1A60FFF771FB0FAA0B2102AB8C
:105800009C4661442000404B9847002802DD13224B
:10581000344B1A603D4B9847A022920000233C4F26
:10582000B8470200B9212800304B9847002801DD15
:10583000FFF754FB06222B4B1A60FFF74FFB0FAA12
:105840000B2102AB9C46614420002F4B9847002857
:1058500008DD0F9B2F4A99182F4A914211D9142223
:10586000204B1A601E4BDA68BB2128001F4B98475B
:10587000002801DDFFF732FB06221A4B1A60FFF702
:105880002DFB174A928E022A08D8154AD2689342F5
:10589000E8D0134AD36001239846E3E71122114B65
:1058A0001A60DFE70FAA0B2102AB9C46614420007F
:1058B000154B9847002834DD094B9B8E022B2DD8C1
:1058C000074B5A7902AB34215B181B789A4228D0D7
:1058D000034A53710123984623E0C0465D4A000005
:1058E0004802002000000020894B0000DD4A000033
:1058F00038A70000A0860100E99E0000F59F000087
:1059000088000020C94B0000A5490000518F00000D
:10591000D5A1000078ECFFFF187301001122BB4BEA
:105920001A60BB4B5A79BC212800BA4B9847002813
:1059300001DDFFF7D3FA0622B44B1A60FFF7CEFA67
:105940000FAA0B2102AB9C4661442000B24B984742
:10595000002802DD1322AD4B1A60B048B04B9847C7
:105960000200BD212800AB4B9847002801DDFFF75E
:10597000B5FA0622A54B1A60FFF7B0FA0FAA0B2161
:1059800002AB9C4661442000A34B9847002802DDEF
:1059900013229E4B1A60A348A14B98470200BE21D8
:1059A00028009C4B9847002801DDFFF797FA062254
:1059B000964B1A60FFF792FA0FAA0B2102AB9C4696
:1059C00061442000944B984700281FDD904B9B8E2C
:1059D000032B18D8C8231B010F9A9A4200D90F93A2
:1059E0000F9B632B01D864230F93894BDA8D02AB95
:1059F0009B8E9A420AD0864AD38500208A4B9847CC
:105A00000123984602E01122804B1A60804BDA8D08
:105A1000864B1968864B4B43D218BF2128007D4B1B
:105A20009847002801DDFFF759FA0622774B1A60E4
:105A3000FFF754FA0FAA0B2102AB9C4661442000E9
:105A4000754B9847002820DD714B9B8E032B19D88E
:105A5000784B0F9A9A4200D90F93774B0F9A9A423C
:105A600001D8764B0F936A4B9A6B0F9B1B041B0C50
:105A700093420AD0664A936300206B4B98470123F8
:105A8000984602E01122614B1A60614B9A6BD1215A
:105A90002800604B9847002801DDFFF71FFA062217
:105AA0005A4B1A60FFF71AFA0FAA0B2102AB9C4659
:105AB00061442000584B984700281DDD544B9B8EB5
:105AC000022B16D80F9B002B01D101330F930F9B94
:105AD000052B01D905230F934D4BDA7902AB342105
:105AE0005B181B789A4207D0494AD3710123984624
:105AF00002E01122454B1A60454BDA79C02128009B
:105B0000444B9847002801DDFFF7E8F906223F4B98
:105B10001A60FFF7E3F90FAA0B2102AB9C46614420
:105B200020003D4B9847002821DD394B9B8E032BED
:105B30001AD80F9B012B14D90F9B322B01D932237A
:105B40000F93334B1A8D02AB34215B181B789A42AA
:105B50000DD02F4A13850120334B984701239846D7
:105B600005E002230F93E7E71122284B1A60284B28
:105B70001A8DC5212800274B9847002801DDFFF723
:105B8000ADF90622214B1A60FFF7A8F90FAA0B21E5
:105B900002AB9C46614420001F4B9847002826DD3D
:105BA0001B4B9B8E032B1FD80F9B272B01D8282321
:105BB0000F93174B5B8D0F9A934201D90A330F93C2
:105BC000A0235B000F9A9A4200D90F93104B9A8D35
:105BD00002AB9B8E9A420AD00D4A93850120124B4C
:105BE00098470123984602E01122084B1A60084B9F
:105BF0009A8DC6212800074B9847002801DDFFF742
:105C00006DF90622014B1A60FFF768F900000020C9
:105C100048020020DD4A0000A5490000C002002023
:105C2000F5460000FC0100202D900000240B002010
:105C30001027000010A400004F460000504600004E
:105C40000FAA0B2102AB9C4661442000D04B984721
:105C5000002827DDCF4B9B8E032B20D80F9B012BD9
:105C60001AD996235B000F9A9A4200D90F93C94B19
:105C70009B8D0F9A934201D20A3B0F93C54B5A8DCD
:105C800002AB9B8E9A420DD0C24A53850120C24B73
:105C900098470123984605E002230F93E1E711227C
:105CA000BE4B1A60BB4B5A8DC7212800BC4B98478E
:105CB000002801DDFFF712F90622B84B1A60FFF742
:105CC0000DF90FAA0B2102AB9C4661442000B04B9A
:105CD000984700281DDDAF4B9B8E032B16D80F9BDA
:105CE000002B01D101330F930F9B142B01D91423E7
:105CF0000F93A84B1A8E02AB34215B181B789A4283
:105D000007D0A44A13860123984602E01122A34B30
:105D10001A60A04B1A8EC8212800A14B9847002872
:105D200001DDFFF7DBF806229C4B1A60FFF7D6F87F
:105D30000FAA0B2102AB9C4661442000944B98476C
:105D4000002802DD1322954B1A60964BDA69C921AF
:105D50002800934B9847002804DD0022914BDA611C
:105D6000FFF7BCF806228D4B1A60F6E70FAA0B214D
:105D700002AB9C4661442000854B9847002802DD19
:105D80001322864B1A60884B1A8893009B1859007F
:105D9000864B1A885218864B198864234B43D218B5
:105DA000844B1988844B4B43D218844B1988844BFD
:105DB0004B43D2187B4B1A62CA212800784B984774
:105DC00000280CDD0023794A1380774A1380784A33
:105DD0001380784A1380794A1380FFF77FF80622F0
:105DE0006E4B1A60EEE70FAA0B2102AB9C46614492
:105DF0002000674B9847002808DD664B9A8E02AB5F
:105E00009B8E9A4211D91122644B1A60614B9A8E73
:105E1000CB212800624B9847002801DDFFF75EF890
:105E200006225E4B1A60FFF759F89A42EED0594AA3
:105E3000938601239846E9E70FAA0B2102AB9C4603
:105E400061442000524B9847002815DD0F9B643BAE
:105E500096221201934201D95A4B0F935A4F5B4A33
:105E6000002138005A4B98470123BB720F9B3B60BF
:105E700019237B60FFF732F80322484B1A60E5E7ED
:105E80000FAA0B2102AB9C4661442000404B98476F
:105E9000002807DD0F9A642A08D916223F4B1A60A2
:105EA000FFF71CF803223D4B1A60F3E71101464B44
:105EB0005B189B89002B04D11722384B1A60FFF71F
:105EC0000DF8D0212800364B9847002853DD3E4B73
:105ED0009A7ACB212800324B984700284FDD3A4B65
:105EE0001A685B680F994B43D21ABF2128002C4BCC
:105EF0009847002847DD0F9B1A01334B9B18DA891E
:105F0000CA212800264B9847002863DD0F9B0133E8
:105F10001B012D4AD3185A68C1212800204B9847ED
:105F200000285BDD0F9B1A01274B9B181A8ACC2196
:105F300028001B4B9847002854DD0F9B01331B01A1
:105F4000214AD3189A68C2212800154B9847002887
:105F50004CDD0F9B1A011C4B9B185A8ACD2128003F
:105F60000F4B9847002801DDFEF7B8FF06220B4BC8
:105F70001A60FEF7B3FF0622084B1A60A7E7062255
:105F8000064B1A60ABE70622044B1A60B3E7C04623
:105F9000A5490000480200202D90000000000020CC
:105FA000DD4A000088000020BC0200208A02002098
:105FB000D8020020440200201027000088020020A0
:105FC00040420F00C4090000DC0D00204C06000018
:105FD00087A500000622674B1A6097E70622654BEB
:105FE0001A609FE70622634B1A60A6E70622614B00
:105FF0001A60AEE70FAA0B2102AB9C466144200059
:106000005D4B9847002811DD0F9B142B01D91423F9
:106010000F935A4BDA8E02AB9B8E9A4206D0574AA8
:10602000D3860020564B984701239846534BDA8E6F
:10603000544B5968544B4B43D218CE212800534B34
:106040009847002801DDFEF749FF0622494B1A60F8
:10605000FEF744FF4E4AA42128004C4B98470028E5
:1060600001DDFEF73BFF0622424B1A60FEF736FFCA
:106070000122404B1A60FEF731FF01223D4B1A60AE
:10608000FEF72CFF01223B4B1A60FEF727FF01228F
:10609000384B1A60FEF722FF0122364B1A60FEF7DA
:1060A0001DFF0122334B1A60FEF718FF0122314B0E
:1060B0001A60FEF713FF01222E4B1A60FEF70EFF47
:1060C00001222C4B1A60FEF709FF0023039303AA59
:1060D0000B2102AB9C4661442000274B98470028C7
:1060E00001DDFEF7FBFE0322224B1A60FEF7F6FEEF
:1060F0001522204B1A60FEF7F1FE02221D4B1A609A
:10610000FEF7ECFE4346002B22D1224BDA69002A2F
:1061100021D1184B1A68531C07D0B02128001B4B03
:10612000984701225242134B1A60002128001A4B53
:1061300098470200FB212800144B9847FC212800B7
:10614000164B9847042011B00CBC90469A46F0BDFF
:10615000134B9847D9E7C92128000C4B98470028D2
:1061600003DD00220B4BDA61D3E70622014B1A60F4
:10617000F7E7C04600000020A549000048020020C3
:106180002D900000240B002010270000DD4A0000A5
:10619000250001008800002011480000C5480000CB
:1061A000318A000010B588B0010020236A461948E2
:1061B000194CA047002829D1184B009A9A4201D0C7
:1061C000002024E0019B012B01D000201FE0144B94
:1061D000069A9A4201D0002019E0124B059A9A4281
:1061E00001D0002013E080235B00029A9A4201D084
:1061F00000200CE0FE23DB00039A9A4201D000202D
:1062000005E0049B402B02D1012000E0002008B0F3
:1062100010BDC046480100200566000078563412C3
:10622000214365872500010070B504000D0000289A
:106230000DD0002909D0012039220649064B984784
:1062400029002000054B984770BD0020F4E700208E
:10625000F2E7C0463CA70000996E000049710000BB
:1062600070B504000D00431E9841C0B24E2204498F
:10627000044B984729002000034B9847002070BD2D
:106280003CA70000996E00008171000070B5040009
:106290000D00431E9841C0B259220449044B98474F
:1062A00029002000034B9847002070BD3CA7000048
:1062B000996E00008F710000F8B5CE46474680B554
:1062C00006000D009046994600281AD0002A1AD0E0
:1062D0004B46002B19D1002067221C491C4FB847A0
:1062E000340030001B4B98470100060048461A4B0B
:1062F000984748424841C0B269221449B84700272C
:1063000009E00020E8E70020E6E70120E4E7BF1904
:10631000BFB2B94515D92000104B9847290020007D
:106320000F4B98470028F9D0290020000D4B9847C3
:106330004346D855012EEAD97B1C000A4246D05468
:10634000E5E738000CBC90469946F8BD3CA7000034
:10635000996E00009B710000C9A10000C17100008E
:10636000B7710000D571000070B504000D00431E28
:106370009841C0B282220449044B9847290020006A
:10638000034B9847002070BD3CA70000996E0000A9
:10639000E3710000F8B504000D0016001F00431E55
:1063A0009841C0B299220549054B98473B003200FD
:1063B00029002000034CA0470020F8BD3CA70000A6
:1063C000996E0000F5710000EFF31083036072B660
:1063D000BFF35F8F7047BFF35F8F036883F310884D
:1063E0007047000070B504000D00002810D000298F
:1063F0000CD0012032220C490C4B98472900200078
:106400000B4B984700280ED100230AE00020F1E74B
:106410000020EFE7DA00A2180021516091600133FB
:10642000DBB2002BF6D070BD58A70000996E0000BB
:10643000E172000070B504000D0000280CD00029A6
:106440000CD0002052220649064B98472900200014
:10645000054B9847002070BD0020F3E70120F1E7CD
:1064600058A70000996E00000D730000F0B5CE46ED
:1064700000B582B007000D0014009946002807D02F
:10648000002907D1002A18D0002B18D1002002E0E3
:10649000002000E000206A221749184B9847019716
:1064A00029003800164B9847002822D02E00EB0018
:1064B000FB185C604A469A6011E00020EBE701207F
:1064C000E9E7F4003C19636819882A0001980D4B2C
:1064D0009847636802336360A368013BA360F300DD
:1064E000FB189B68002BECD1002002B004BC914645
:1064F000F0BD1D204042F8E758A70000996E00004B
:10650000217300003373000010B5024B1860024B7A
:10651000984710BDAC0000202D7E000010B5014B47
:10652000984710BD9174000070B50125002407E064
:106530000D4AB358002B00D0984770BD013AD5B230
:10654000AC42FAD82B195B10DAB2002AF5D1FF2140
:106550000B40DE000449891949688142E8D0EDD238
:106560000132D4B2ECE7C046B000002010B50023E1
:10657000002B03D00748084B984710BD074AD900A5
:1065800050180124644244600020885001339BB2BB
:10659000EEE7C0462965000041730000B00000200E
:1065A00010B54369002B00D0984710BD10B5836922
:1065B000002B00D0984710BD70B504000D000028D6
:1065C00013D000290FD0012038220949094B9847E0
:1065D00029002000084B9847002803D1074B23606F
:1065E000074B636070BD0020EEE70020ECE7C0467B
:1065F00074A70000996E0000B9750000A165000045
:10660000AD650000F0B5C64600B504000E001500EB
:106610001F00002820D0002A20D0002B20D10020ED
:1066200056221349134B98472000134B9847804636
:106630002000124B984743465843B04212D3BB192F
:10664000984212D33B002A00310020000C4CA04796
:10665000002004BC9046F0BD0020E1E70020DFE709
:106660000120DDE70E204042F3E70E204042F0E734
:1066700074A70000996E0000197600001D760000D6
:1066800023760000F0B5C64600B504000D001600E4
:106690001F00002826D0002A26D0002B26D100205B
:1066A0006A221849184B98472000184B9847804693
:1066B0002000174B984743465843A84218D37B19EC
:1066C000984218D329002000124B9847002815D172
:1066D0003B003200290020000F4CA047002004BCE2
:1066E0009046F0BD0020DBE70020D9E70120D7E786
:1066F0000E204042F3E70E204042F0E711204042D6
:10670000EDE7C04674A70000996E000019760000FE
:106710001D760000497700007176000010B5040076
:10672000431E9841C0B2F7220349044B984720000A
:10673000034B984710BDC04674A70000996E000037
:106740001976000010B50400431E9841C0B28022A3
:1067500052000349034B98472000034B984710BD54
:1067600074A70000996E00001D76000070B504004B
:106770000D00160000280ED000290AD00120342276
:106780000649074B984723683200290020009847A4
:1067900070BD0020F3E70020F1E7C0468CA70000A1
:1067A000996E000070B504000D00160000280ED090
:1067B00000290AD001203D220649074B984763680B
:1067C000320029002000984770BD0020F3E7002028
:1067D000F1E7C0468CA70000996E000010B5436930
:1067E000002B00D0984710BD10B58369002B00D056
:1067F000984710BD70B504000D00002812D0002984
:106800000ED0012033220849084B98472900200068
:10681000074B9847074B2360074B6360002070BD10
:106820000020EFE70020EDE7A0A70000996E000030
:106830001D7F0000DD670000E967000010B504005F
:10684000431E9841C0B24A220749084B984720008E
:10685000074B9847002804D12000064B984700209A
:1068600010BD11204042FBE7A0A70000996E000078
:10687000C98000007180000010B50400431E9841DB
:10688000C0B258220749084B98472000074B984749
:10689000002804D02000064B9847002010BD11208E
:1068A0004042FBE7A0A70000996E0000C9800000ED
:1068B0008380000070B504000D001600431E98414F
:1068C000C0B27C220449054B9847320029002000C1
:1068D000034B9847002070BDA0A70000996E0000F0
:1068E00095800000F8B50668002E02D03300002520
:1068F0000CE0104B984718E09F68BC466444A41A0B
:1069000001348F68BC420BD21D001B68002B07D0DE
:106910005C689442F0D8A41A9F68BC466444F0E7CF
:10692000B34203D02800044B9847F8BD014B984769
:10693000FBE7C046B96E0000E56E0000F8B5050043
:10694000446903695E1C0661037EDB0702D4037E93
:106950009B070AD52B7E02221343DBB22B76F8BDB0
:106960006F69E368200098473C00002CF7D063680B
:10697000F31AA2689342F2D32F0014373800064B63
:106980009847237C012BEBD1666032002100380050
:10699000024B9847E4E7C046ED6E0000E568000052
:1069A00070B504000D00002812D000290ED001207F
:1069B0003B220849084B984729002000074B98477D
:1069C00000232361064B2360002070BD0020EFE709
:1069D0000020EDE7B8A70000996E0000DD77000009
:1069E0003D69000010B50400431E9841C0B2532217
:1069F0000749084B98472000074B9847002804D1C7
:106A00002000064B9847002010BD11204042FBE7B4
:106A1000B8A70000996E0000917800003978000056
:106A200070B582B004000D00002826D0002922D0C5
:106A300001207A221F49204B9847237E01221343CD
:106A4000DBB2237626001436290030001B4B984712
:106A5000002814D123696B60226929003000184B8B
:106A60009847237E012293432376237E9B0712D4EB
:106A7000002002B070BD0020DBE70020D9E7237EB4
:106A80000122934323767E320A4900200A4B98471D
:106A900012204042EDE701A80A4B9847237E0222CC
:106AA000934323762000084B984701A8074B98474B
:106AB0000020DEE7B8A70000996E0000A16E00007C
:106AC000E5680000C9630000A3780000D7630000F8
:106AD00010B5083800230363436A002B00D09847A1
:106AE00010BD10B5083800230363C36A002B00D023
:106AF000984710BD10B504002C30044B9847236A0A
:106B0000083C002B01D02000984710BD996F000071
:106B100070B504000E00150000281DD000291DD0FE
:106B2000002A1DD100203C22FF321049104B98470B
:106B30004423E25A0833E35A9A4213D1A6644C2301
:106B4000E5520022083BE252433B23632000083019
:106B5000084B9847280070BD0020E4E70020E2E7DA
:106B60000120E0E71C204042F5E7C046D0A7000026
:106B7000996E0000497D000070B504000200083ADB
:106B80004423D35A4C21525A93420DD00200016C37
:106B9000083A5D1C44201552C95C2000044B9847FC
:106BA0002000044B984770BD034B9847FBE7C04655
:106BB000417D0000497D0000517D0000F0B585B0A9
:106BC00004000D001600002817D0002917D0002A55
:106BD00017D10020AC2252001249134B984703A84A
:106BE000124B9847343420000194114B984707000A
:106BF00003A8104B984700240BE00020EAE7002090
:106C0000E8E70120E6E70134A4B2691801980A4BCD
:106C100098472100A74201D9B442F4D3200005B01F
:106C2000F0BDC046D0A70000996E0000C963000007
:106C3000D96F0000D76300004D6F0000F8B5040065
:106C40000D0016001F00002826D0002926D0002A9B
:106C500026D0002B26D100203A221549154B984703
:106C6000200034303A003100134B984700281BD1E4
:106C7000200008302900114B984700280BD1104BF9
:106C80006360104B2360104BA360104BE360104B0C
:106C90002361104B6361F8BD0020DDE70020DBE7D6
:106CA0000020D9E70120D7E70D204042F3E7C04696
:106CB000D0A70000996E0000016F0000517C000019
:106CC000BD6B0000116B0000796B0000F56A0000DD
:106CD000D16A0000E36A000010B50400431E984129
:106CE000C0B261220449054B984720000830044B8C
:106CF0009847002010BDC046D0A70000996E000044
:106D0000DD7C000010B50400431E9841C0B26C2227
:106D10000449054B984720000830044B9847002051
:106D200010BDC046D0A70000996E0000EF7C0000A7
:106D300070B505000E001400431E9841C0B28322B6
:106D40001649174B9847012E11D0002E04D0022E61
:106D500018D00D20404209E0AC62621E9441E2B2BC
:106D60002800083001210F4B9847002070BD6C624D
:106D7000621E9441E2B2280008300221094B984774
:106D80000020F3E7EC62621E9441E2B22800083072
:106D90000321044B98470020E8E7C046D0A7000035
:106DA000996E0000597D000070B504000D00431E6F
:106DB0009841C0B2AA220549054B984720000830E7
:106DC0002900044B9847002070BDC046D0A70000A2
:106DD000996E0000017D000070B504000D00431E97
:106DE0009841C0B2CB220549054B98472000083096
:106DF0002900044B9847002070BDC046D0A7000072
:106E0000996E0000117D000070B504000D00431E56
:106E10009841C0B2D6220549054B9847200008305A
:106E20002900044B9847002070BDC046D0A7000041
:106E3000996E0000217D000070B504000D00431E16
:106E40009841C0B2E1220549054B9847200008301F
:106E50002900044B9847002070BDC046D0A7000011
:106E6000996E0000317D000010B50400431E98416A
:106E7000C0B20222FF320549054B9847200034304A
:106E8000044B9847431E984110BDC046D0A7000050
:106E9000996E0000D96F0000002800D100BE704735
:106EA0000368002B03D08B4203D01B68F9E7002056
:106EB00070470120FCE7000070B504000D00064B90
:106EC000984701235840C0B239220449044B9847DF
:106ED00023682B60256070BDA16E0000F0A7000044
:106EE000996E000003680B60016070470368002B17
:106EF00003D01A680260180070470020FCE7000009
:106F000070B504000E001500002812D0002912D020
:106F1000002A12D1002028220A490B4B98476B1EE9
:106F20002B420CD163600023A360E3602660002045
:106F300070BD0020EFE70020EDE70120EBE70D201A
:106F40004042F5E710A80000996E000070B50400FB
:106F50000D00002816D0002912D0012040220C4933
:106F60000C4B9847A368E2689A420DD062681340C0
:106F70002268D35C2B70A3680133A360002070BD2E
:106F80000020EBE70020E9E70A204042F7E7C0468F
:106F900010A80000996E000070B504000D00431E9B
:106FA0009841C0B251220A490A4B98476368E26887
:106FB00013402268D554E368A2689A1A61688A422D
:106FC00001D9591AA1600133E360002070BDC046A9
:106FD00010A80000996E000010B50400431E9841EF
:106FE000C0B267220349044B9847E068A368C01AFF
:106FF00010BDC04610A80000996E00000020704728
:1070000010B50B4B984702000020002806D07F22C5
:1070100008490020084B9847002010BDC3001B1AE8
:107020009900064BCB5C9A42F7D00130C0B2ECE736
:10703000FD6F000050A80000996E000034A8000009
:1070400070B504000D003A4BC01843425841C0B21D
:1070500094223849384B9847384B1A68D2081202A4
:10706000E023DB001A4036490B6849684901DB0E12
:107070000B43FF210B401A43637EDB09FCD12378CD
:107080009B0704D500232370637EDB09FCD1012319
:107090002370637EDB09FCD12285EA00521B91003C
:1070A000284B5B189A786270DA78A2701A79E270CD
:1070B0001A7C2275DA8AA2841A8BE284997E2A22AB
:1070C000A154DB88A380637EDB09FCD1EB005B1B52
:1070D0009A001C4B9B18DB682361637EDB09FCD1A3
:1070E000EB005B1B9A00174B9B181B7A2372637E85
:1070F000DB09FCD1EB005B1B9A00124B9B185B8AEF
:10710000A383637EDB09FCD1EB005B1B9A000D4B74
:107110009B189B8A2384637EDB09FCD1EB005D1BFB
:10712000AA00084B9B185B782370002070BDC046F6
:1071300000C0FFBD50A80000996E000024608000D0
:107140002060800034A8000070B505000C00431ECC
:107150009841C0B2C5220649064B98472C602000D2
:10716000054B984701002000044B984770BDC0466E
:1071700050A80000996E00000170000041700000EE
:107180000268137802210B43DBB213707047026868
:10719000137802218B43137070470268537EDB091A
:1071A000FCD19288120903331340032B01D0022033
:1071B00070470120FCE70368187E012318407047E0
:1071C0000268137B02210B43DBB21373537EDB098E
:1071D000FCD170470268537EDB09FCD1508B80B232
:1071E0007047006843780F22934311401943417060
:1071F0007047000030B5046823691F25AB43294060
:1072000019432161637EDB09FCD101680B690648E3
:1072100003401202F820400102401A430A614B7EEB
:10722000DB09FCD130BDC046FFE0FFFFBFF34F8F4D
:10723000034A044BDA60BFF34F8FC046FDE7C046F8
:107240000400FA0500ED00E010B583001B1858019A
:1072500001380A21014B9847013010BDE99E00001A
:1072600083001818430164205843704710B5064B3B
:107270005A685A60054B9847054B9847054B984705
:10728000FF20054B984710BD00400041A17700004A
:10729000E57D0000097E0000DD740000C379DB0994
:1072A000FCD1C379DB09FCD103789B0707D5002308
:1072B0000370C379DB09FCD1C379DB09FCD101235D
:1072C0000370C379DB09FCD1C379DB09FCD183707E
:1072D000412242700370C379DB09FCD10020704762
:1072E00070B505000C00431E9841C0B24922044904
:1072F000044B98472C602000034B984770BDC04654
:1073000068A80000996E00009D7200000268137862
:1073100002210B43DBB21370D379DB09FCD1704738
:107320000268D379DB09FCD113785B08012018408F
:10733000704702681181D379DB09FCD170470000E6
:10734000224B5B78DB09FBD1204B5B78DB09FBD15F
:107350001E4B1B789B070AD500221C4B1A701B4B37
:107360005B78DB09FBD1194B5B78DB09FBD1012290
:10737000164B1A70154B5B78DB09FBD1134B5B780E
:10738000DB09FBD1114B00229A70402159605A61F0
:107390008021C9049961DA611A7802210A43D2B2C4
:1073A0001A700A4B5B78DB09FBD1094B1022802154
:1073B0005A50BFF34F8FBFF36F8F0131FF315A50D7
:1073C0001A60044B186000207047C0460018004047
:1073D00000E100E0B800002070B582B0264B1A69C9
:1073E000D9680A400192019A1A61244B1868431E19
:1073F0009841C0B2D2222249224B984701256D42C2
:107400002EE00139CEB2B0420ED832185210D1B2AD
:10741000FF231340DB001C4A9B5CA34203D0F0DA3D
:107420000131C8B2EFE716256B1C03D0134B1B6864
:10743000280098470122A240019B934301930198A1
:10744000124B9847013844B2631C02D00126002039
:10745000D9E7094B1A69D9680A400192019A1A6161
:10746000019B002B05D00198084B9847013844B286
:10747000EAE702B070BDC04600180040B800002026
:1074800088A80000996E000080A8000071A200008A
:10749000002306E059000E4A895A0E4A1181013331
:1074A000DBB21C2BF6D9002307E09900084A5218DA
:1074B000D16B084A51600133DBB20B2BF5D9054B78
:1074C0000222FF325A61044A1A6100207047C04606
:1074D000A0A8000000040042FEFEFFFFC3070AD57B
:1074E0000B4B802252009A608C2292035A60084B08
:1074F0005B78DB09FBD1830709D5054B0222FF32FC
:107500009A60044A5A60024B5B78DB09FBD17047F2
:10751000000C004001030300037DDB07FCD52023A2
:10752000FF3303834908C161024B1A4392B20280C0
:107530007047C04600A5FFFFF8B504000F00160015
:107540001D000120084043425841C0B2C5225200EC
:107550001549164B98477908237DDB07FCD5144B5A
:107560002380237DDB07FCD52023FF3323830A0000
:10757000002304E05700388002339BB20132AB4253
:1075800008D2F75CB8B23E2BF4D8F018407800026D
:107590003843EFE7237DDB07FCD5E161054B069A15
:1075A00013439BB22380F8BD0CA90000996E000024
:1075B00044A5FFFF00A5FFFF70B505000C000028E3
:1075C0001CD0104B99421BD0002046220E490F4B75
:1075D00098472C6162689E23134063600C4B1D60CA
:1075E0000C4B202280215A50BFF34F8FBFF36F8F77
:1075F0000131FF315A501A60002070BD0020E4E7CD
:107600000120E2E7004000410CA90000996E000053
:10761000BC00002000E100E04020704780204001D5
:10762000704770B54C0805692E7DF607FBD5202004
:10763000FF302883C80707D501340120814309881A
:10764000090A1170012103E0002101E002312C0040
:1076500099420BD2651C6400208880B250545C1E95
:10766000A142F3D24C1C000A1055EFE770BD000098
:10767000F0B5DE4657464E464546E0B5C5B08146B4
:1076800016001D000C0048E05346990104AB5A183F
:10769000414440234846294FB84701239C46E244D1
:1076A0005346032BF0D94346E31A99093F2213406E
:1076B00002E001340136013D039A94420DD8002DB9
:1076C0000BD030788A0104AFBC466244D0540133F9
:1076D0003F221340EDD10131EBE7022241464B46F8
:1076E0001869174B984700239A460EE053469901B4
:1076F00004AB5A184144042300933C3348460069C4
:10770000104FB84701239C46E2445346032BEDD962
:107710002B19013B039A9A4209D2FF2322009A4374
:1077200090461700FF37039700239A46B8E745B005
:107730003CBC90469946A246AB46F0BD237600007D
:107740001975000039750000890B02690904090CDC
:1077500001238B40108C184043425841C0B27047FF
:1077600010B50A4B186803691A7DD20704D503685F
:10777000002B00D0984710BD1A7D9207FBD502223E
:107780001A754368002BF6D09847F4E7BC00002038
:107790003823024AD05CC0B27047C04600040040A3
:1077A000064B1A7AD2B21A725A7AD2B25A729A7AAC
:1077B000D2B29A72DA7AD2B2DA727047000400401A
:1077C00010B50400C3681B7ADB0706D50368002BDD
:1077D00000D09847E36801221A7210BD70B504000A
:1077E0000D00431E9841C0B233221049104B9847F8
:1077F000E56001232B80AB7ADB09FCD1E268937A48
:10780000DB09FCD180331380937ADB09FCD1E26879
:10781000936920239361937ADB09FCD10133E268F9
:10782000D371044B1C60002070BDC0462CA9000021
:10783000996E0000C000002010B5041E20D0C3685F
:10784000002B1BD001206A220E490F4B98470822BB
:107850000E4B1A60E268136900231361937ADB0907
:10786000FCD1E268937ADB09FCD1138802210B4337
:107870009BB21380937ADB09FCD110BD0020E2E7B4
:107880000020E0E72CA90000996E000000E100E074
:10789000C268937ADB09FCD113885B080120184089
:1078A000704770470020704710B5024B1868024BB4
:1078B000984710BDC0000020C1770000024B9C46D5
:1078C0006044800AC0B2704700F8FFBD10B58469FB
:1078D000237EDB0702D5A37DDB070FD4237E9B0726
:1078E00002D5A37D9B070ED4237E5B0715D5628B43
:1078F00037231A420CD00833638310BD012323754C
:1079000003689847F9E70223237583689847F4E7EB
:107910004368218DC9B29847EFE7237EDB09ECD09D
:1079200080232376C3689847638B9BB26383E4E725
:10793000034B984200D07047024B1960FBE7C046EA
:1079400000080042C400002010B5024B98470930DF
:10795000C0B210BDBD78000010B50B4B98470200B7
:107960000020002806D0094A09490020094B984701
:10797000002010BD83001B189900074BCB5C9A4276
:10798000F7D00130C0B2ECE7BD7800005E02000025
:1079900094A90000996E000044A9000070B504008D
:1079A000384B9847E369DB071DD483001B189A0006
:1079B000354B9B185A681C231A40E3699B07FCD17E
:1079C00023689B0709D5236802218B432360E36961
:1079D0009B07FCD1E3699B07FCD40123134323607D
:1079E000E3699B07FCD1E369DB07FCD483001B1828
:1079F0009A00254B9B185B682360E3699B07FCD1C9
:107A000083001B189A00204B9B189B686360E369F6
:107A10005B07FCD183001B189A001B4B9B185B680B
:107A20009A040BD4C022D201134207D183001B1841
:107A30009A00154B9B189B89A38115E083001B18A6
:107A40009A00114989188A89A389D204D20C5B0B48
:107A50005B031343A3818B7B07221A40A389520344
:107A6000DB04DB0C1343A381074A83001D18A90024
:107A70000D005118C97BA1735219127C3023E254B6
:107A8000002070BD5979000044A9000070B582B093
:107A900004000D00E3699B07FCD1266876080123EA
:107AA0001E402368022293432360E3699B07FCD1B5
:107AB00001A80A4B9847E3699B07FCD4ADB2A581A6
:107AC00001A8074B9847236802229343760033436B
:107AD0002360E3699B07FCD102B070BDC96300005D
:107AE000D763000070B582B004000D00E3699B0706
:107AF000FCD12668760801231E40236802229343A6
:107B00002360E3699B07FCD101A8184B9847E36900
:107B10009B07FCD4022D21D0226880235B041343F1
:107B20002360E3695B07FCD16B1E9D41EDB2636886
:107B30000F4A13406D031D436560E3695B07FCD189
:107B400001A80C4B984723680222934376001E43FA
:107B50002660E3699B07FCD102B070BD2368064A2A
:107B600013402360E3695B07FCD1DDE7C9630000D4
:107B7000FFDFFFFFD7630000FFFFFFFE70B582B09D
:107B800004000D00E3699B07FCD1266876080123F9
:107B90001E402368022293432360E3699B07FCD1C4
:107BA00001A80F4B9847E3699B07FCD46B1E9D41CE
:107BB000EDB2636840229343AD011D436560E36904
:107BC0005B07FCD101A8074B984723680222934327
:107BD00076001E432660E3699B07FCD102B070BDAE
:107BE000C9630000D763000070B582B004000E00C6
:107BF000E3699B07FCD125686D0801231D402368BC
:107C0000022293432360E3699B07FCD101A80E4B3A
:107C10009847E3699B07FCD4616807239943334085
:107C200019436160E3695B07FCD101A8074B9847E2
:107C3000002D06D02368022213432360E3699B07CB
:107C4000FCD102B070BDC046C9630000D76300001C
:107C500070B506000C00431E9841C0B2C4221949F9
:107C6000194B98472000194B9847051E01D0280052
:107C700070BDB46131002000154B98472000154BB2
:107C8000984743B2002B0ADB1F21014001228A40A2
:107C90008021114C6250BFF34F8FBFF36F8F002BC9
:107CA00007DB1F21014001228A40C02149000A4C04
:107CB0006250002BDBDB1F2318401E3B8340064A2B
:107CC0001360D4E794A90000996E00009D7900002C
:107CD000317900004979000000E100E08269136811
:107CE00002210B431360D3699B07FCD17047826963
:107CF000136802218B431360D3699B07FCD1704743
:107D000010B58069014B984710BDC0468D7A0000C0
:107D100010B58069014B984710BDC046E57A000058
:107D200010B58069014B984710BDC0467D7B0000AF
:107D300010B58069014B984710BDC046E97B000033
:107D4000836989B219857047836901229A757047E2
:107D5000836902229A75704770B504000D00160001
:107D6000431E9841C0B2174A1749184B9847002D37
:107D70000BD0022D09D0012D18D0032D0FD1A369EE
:107D8000002E1CD080229A7509E0A369002E07D12D
:107D900001221A75A369002E05D102221A7570BD41
:107DA00001229A75F6E702229A75F8E7A369002E78
:107DB00002D104221A75F2E704229A75EFE78022B5
:107DC0001A75ECE71E02000094A90000996E0000ED
:107DD00010B5024B1868024B984710BDC400002034
:107DE000CD780000074B06221A829A6902210A43C5
:107DF0009A611A7F1D310A401A77024BDB68DB0754
:107E0000FBD5704700080040024A936902218B436A
:107E10009361704700080040024B034A5A600522F4
:107E20001A60704710E000E0FFFFFF0010B5014B43
:107E3000984710BD197E0000080E0BE00B4B0C4854
:107E400058609860094B1B68DB03FBD5094B9C46C7
:107E500061441000421ED2B20028EFD1034B59609A
:107E60009960024B1B68DB03FBD5704710E000E014
:107E7000FFFFFF00010000FF034B984200D0704756
:107E8000024B1960FBE7C04600200042C8000020FA
:107E900070B505000469E36ADB0705D50123E362D9
:107EA0000368002B00D09847A36A1B0706D5082358
:107EB000E3626B68002B01D02800984770BD00007A
:107EC00010B50023002B01D0002010BD9A00D2185D
:107ED000D100054A8A58824202D00133DBB2F1E771
:107EE00001484018F1E7C0460800002010B5002303
:107EF000002B01D0002010BD9A00D2189100064A34
:107F00005218926A824202D00133DBB2F0E7024893
:107F100028304018EFE7C04608000020F8B50700F9
:107F20000C0008004D4B9847061E00D18DE0200044
:107F30004B4B9847051E00D18AE03C61A368DB07E4
:107F400014D4A3689B07FCD123689B0709D5236839
:107F5000022293432360A3689B07FCD1A3689B077D
:107F6000FCD401232360A3689B07FCD1A368DB0733
:107F7000FCD4B3682360A3689B07FCD1337B637197
:107F8000737BA377336923622B69E363A268354B64
:107F90001A42FBD1AB682364A3681B06FCD4AB6810
:107FA00073626B79012B35D0002B06D0022B3AD0AF
:107FB000032B41D01C2040422BE0EB6873616364CB
:107FC000A268F0231B011A42FAD10223237139005F
:107FD0002000254B98470423EB56002B0BDB1F2278
:107FE00013401E3A9A401300802220498B50BFF361
:107FF0004F8FBFF36F8F0423EB56002B2BDB1F2219
:1080000013401E3A9A401300C022520017498B5069
:108010000020F8BDEB68B361A364A268F0231B01E4
:108020001A42FAD1D1E7EB68F361E364A268F02366
:108030001B011A42FAD1C8E7EB6833622365A268D4
:10804000F0231B011A42FAD1BFE70A204042E0E7C1
:108050000A204042DDE70020DBE7C046C17E000089
:10806000ED7E0000FF0F7F00797E000000E100E060
:108070000269136802210B43136093689B07FCD1CC
:1080800070470269136802218B43136093689B0752
:10809000FCD1704770B50E00150004692000094B33
:1080A000984700280CD0E666A3685B03FCD44379AC
:1080B0001C339B001D51A268F023DB031A42FAD146
:1080C00070BDC046ED7E0000026993689B07FCD13D
:1080D00013685B08012018407047002070470000BB
:1080E00010B5024B1868024B984710BDC80000201D
:1080F000917E0000144BDB7BDB09FBD1124B1B880C
:108100009B0708D5104A138802218B4313800E4B1E
:10811000DB7BDB09FBD101220B4B1A800A4BDB7B9B
:10812000DB09FBD1084B08221A8028329A710749D3
:1081300059815A739F321A731A8802218A430A435B
:1081400092B21A80002070470030004226300000B2
:1081500010B5041E27D00368002B22D001204F2227
:108160001549164B98472268D379DB09FCD113785F
:10817000DB091AD1D379DB09FCD113789B0717D41B
:10818000137804218B431370D379DB09FCD1226867
:1081900053780F218B435370D379DB09FCD1002036
:1081A00010BD0020DBE70020D9E711204042F7E7AF
:1081B00011204042F4E7C046B0A90000996E0000CB
:1081C00070B506000D001400002838D00368002B9D
:1081D00033D0012079223E493E4B98473668F379E7
:1081E000DB09FCD13378DB0900D068E0F379DB09E7
:1081F000FCD133789B0765D42A000023200000219E
:10820000354CA047002960D1FA239B0298424AD0FE
:1082100017D9FA235B03984249D02BD9FA23DB0301
:10822000984248D0FA231B04984246D0FA239B0375
:1082300098423ED00D20404230E00020CAE70020A6
:10824000C8E7FA23DB01984229D009D8FA235B0159
:10825000984219D0FA239B019842EBD1012114E0F6
:10826000FA231B0298421CD0FA235B029842E1D108
:1082700004210AE0FA23DB02984216D0FA231B03FA
:108280009842D7D1072100E0002173780F22934351
:108290000B437370F379DB09FCD1002070BD022120
:1082A000F3E70321F1E70521EFE70621EDE70821D8
:1082B000EBE70921E9E70A21E7E70B21E5E71120D0
:1082C0004042EBE711204042E8E70D204042E5E75D
:1082D000B0A90000996E00001DA2000010B5041E98
:1082E00014D00368002B0FD00120FA220849094B53
:1082F00098472268137802210B43DBB21370D379BD
:10830000DB09FCD1002010BD0020EEE70020ECE7E7
:10831000B0A90000996E000010B5041E12D00368C9
:10832000002B0DD001208C2252000749074B9847A3
:108330002268A5231372D379DB09FCD1002010BD7C
:108340000020F0E70020EEE7B0A90000996E0000E1
:10835000044B1B78022B00D070470322014B1A708C
:10836000FAE7C046CC000020034B1B78052B01D058
:10837000014B1B787047C046CC00002072B6034A00
:1083800053680133536062B67047C046CC0000208A
:1083900070B50F4B1B78062B15D006220C4B1A70AC
:1083A0000C4C002120000C4B9847012120000B4B66
:1083B00098470023192206212000094DA8470021D3
:1083C0002000084B98470022014B5A7070BDC046F0
:1083D00044000020640100208D62000069630000F9
:1083E000956300006162000070B50B4C22000832FA
:1083F0000223002109480A4DA84723890948584308
:1084000009490A4B984743001B18DB00181AE06023
:108410000023238170BDC046CC00002064010020F1
:10842000B9620000B5080000FF0F0000FD9F0000CA
:10843000F0B583B00F0016000193114C114A0121D1
:108440002000114DA847114A00212000A847104ADA
:1084500002212000A847390020000E4B9847310028
:1084600020000D4B9847019920000C4B98470C4970
:1084700020000C4B984720000B4B984703B0F0BDF1
:108480007801002051830000316D0000B9840000A4
:1084900069830000D96D0000096E0000396E00008C
:1084A00015FB0000A96D0000D96C0000014B586855
:1084B0007047C046CC00002000B583B01748184B69
:1084C0009847002828D06B46D91D00230B70012245
:1084D0001248144B98470128F0D1134B1B78042BFA
:1084E00016D0114B1B78052BE8D1104B5B88FB2B6A
:1084F000E4D80E4A591C5180043269460731097884
:10850000D1540B4B9847084B186101221A75D5E7D7
:108510000522054B1A70E4E703B000BD7801002086
:10852000696E0000A5670000CC000020DC0200207E
:10853000AD84000010B50400014B9847001B10BD2E
:10854000AD84000010B5524B1B78DBB2052B00D96F
:108550008BE09B004F4AD3589F464D4B18694E4BBA
:108560009847312822D94D494A8804314C484D4B0F
:108570009847474C022323704B4B9847206115E0E6
:10858000434B1869444B9847F423FF3398420DD965
:108590003F4CF13BFF3B2370434B9847206105E084
:1085A0003B4C00232370404B9847206110BD3F4B4C
:1085B0001B78022B0AD03E4B1B78002BF6D0344C94
:1085C00000232370384B98472061EFE73448394B3C
:1085D000984772B6102238493848394B9847394B7A
:1085E0009847E8E72A4B18692B4B984718281FD85B
:1085F0002F4B1B78002B1BD1254B1B7D002BD5D07F
:108600000022234B1A752A4A53885B08DBB2537049
:10861000032BCBD910002C4B984702280FD00328EE
:10862000C4D11B4C002323701F4B98472061BDE72A
:10863000174C002323701C4B98472061B6E7174C5A
:1086400021001B48214B98476378002B06D0104C23
:1086500001232370144B98472061A7E70C4C00239B
:108660002370114B98472061A0E7094C0423237025
:108670000D4B9847206100232375084A13705370EF
:1086800053800B4A00211170517053808EE7C04611
:10869000CC000020C8A9000035850000F4030020AC
:1086A000780100206D670000AD840000A00000206C
:1086B000DC020020056D000048AA0000007F0020B9
:1086C00051A500002D720000714C0000814E000089
:1086D00010B5084901230B62074A4A6228228B54CD
:1086E0001831064C2000064B98472000054B984750
:1086F00010BDC046CC0000207D830000C8010020D2
:10870000216A0000E5690000F8B504000E001700BA
:10871000164B1B78834214D0144B1870144D002153
:108720002800144B984739002800134B9847002322
:10873000320021002800114CA04700212800104BD6
:1087400098472C230F4AD35C012B00D0F8BD1400AE
:1087500008320133002106480B4DA84702222C2382
:10876000E2540A4B98472063F0E7C04644000020DB
:10877000640100208D6200006963000095630000C1
:1087800061620000CC000020B9620000AD840000EE
:1087900070B52C23924AD35CDBB2012B00D1C6E02A
:1087A000002B00D1D9E0022B00D010E11389002B5F
:1087B00034D08B4B586B8B4B9847092800D80DE170
:1087C000874B1B78042B00D008E1874B5B78002B8C
:1087D00009D1834B38215A5C01325A541A89D96B1A
:1087E0008C466244DA637E4B00221A817E4A002165
:1087F000517038229B5C022B18D97B4B9B78012B44
:1088000072D0002B31D0022B00D181E0744C0022B9
:108810002C23E254754B98472063DFE014000022BC
:108820002C33E254714B98472063D7E06C4C373AB5
:108830002C23E2546D4B984720636B4B9B78012BA4
:1088400007D0022B0BD0012219210720684B984733
:10885000C4E0002218211820654B9847BEE0012291
:1088600019210120624B9847B8E05D4BDB6B6148F2
:108870005843614D6149A84706006148801BFA24AE
:10888000A40060435F49A847010020007043A84747
:1088900000230C2B07DCD9005B4A52185268904227
:1088A00001D20133F5E70C2B17DC002B1ADD5D1E1E
:1088B000554AED0051194968DB00D4186468091B5A
:1088C000001B9C58AA58A21A64235A435C43504385
:1088D000494B9847211A643900E04C494C484D4BAC
:1088E000984793E70021F9E73D4BDB6B4A48584333
:1088F0004249414B9847494BC318642058431821BB
:10890000474B9847474BC1184748424B98477DE72C
:10891000334BDB6B374858433849374B9847810016
:1089200009184900091841483A4B98476EE72C4B03
:10893000186B2C4B9847632850D9FF222A4B1A708A
:10894000FE3A192106202A4B9847254C00222C2359
:10895000E254264B9847206340E0214B1B78042BC0
:108960003CD11F4B586B1F4B9847F423FF33984261
:1089700034D91E4DA8471A4C606301222C23E254BF
:10898000A84720630023E3633822A354164B9B7847
:10899000002B0AD0012B11D00022134B9A70013208
:1089A00019210720124B984718E001220E4B9A70AC
:1089B0000022182118200E4B98470FE002220A4B84
:1089C0009A70013A19210120094B984706E0044C9E
:1089D00000222C23E254054B9847206370BDC0460B
:1089E000CC0000203585000044000020AD8400004C
:1089F00009870000B5080000E99E0000FD2F000077
:108A0000E40C0000983A0000E0A900007017000094
:108A10002C020020BD46000010270000F2E5FFFFF9
:108A2000FD9F0000C4090000DC030020FC010020C1
:108A300070B50D4D3E2229000C480D4B9847E88734
:108A40000C4C20000C4B9847060020000B4B98471D
:108A5000411E714340232A002000094CA0470028F2
:108A600000D0FEE770BDC04648020020FFFF0000B6
:108A700069470000480100201D67000045670000AD
:108A80008566000070B5264C2000264B98470500EF
:108A90002000254B9847411E69434023234A20006C
:108AA000234CA047002800D0FEE7204C3E222100A6
:108AB0002048214B9847E38F98422FD01B4C4022EF
:108AC000FF2120001D4B98477B2323607A3BA38620
:108AD000012222716371A3710523E371184AA26018
:108AE000184AE260184AA261184AE261184A2262F2
:108AF000184A6262002222616261083222850C32C9
:108B000062858C32A285144AE285C8226286C63A02
:108B10002286E386114BA363114B984770BDC04674
:108B2000480100201D670000456700004802002042
:108B300005660000FFFF00006947000087A50000F0
:108B4000983A000038630000B20C00005C5E04003C
:108B5000A8610000B80B00001A040000B8880000EB
:108B6000318A000010B5074B1B68002B08D001208C
:108B7000A9220549054B98470248054B984710BD67
:108B80000020F5E76801002098A50000996E00001C
:108B90001983000010B5174B1B68002B23D0012050
:108BA0006F221549154B9847124CFA228021090271
:108BB0002000134B98472368002B16D001208C22ED
:108BC0000D490E4B98470B4C20000E4B98472368DD
:108BD000002B0CD00120A9220749084B98470548D3
:108BE000094B984710BD0020DAE70020E7E7002096
:108BF000F1E7C0466801002098A50000996E0000CA
:108C0000C1810000DD8200001983000070B53F4B78
:108C1000984772B63E4B3F4A5A603F4898603F4B78
:108C2000984700286CD010223D493E483E4B98475B
:108C30003E4B984704223E4B1A603E4B98473E4BB2
:108C400018700023012202219620C0013B4CA0474E
:108C50003B4B1A683B4B1A603B4A12685A603B4ACE
:108C600012689A603A4A1268DA608024640022002E
:108C700000213848384DA847220000213748A8472E
:108C80003748384CA0473848A0473848A0473848AC
:108C9000A0473848A0473848A047384B9847384B3A
:108CA0009847384A136C02210B431364364E300048
:108CB000364B9847364CA18D00223000354B9847F3
:108CC0000022354B1A60354BDA81E18D1960E18E57
:108CD00059609A81228D1A81628D5A81304A002111
:108CE0003048A84762B6304DA847304CA047304BBB
:108CF0009847A047A847A0472E4B9847A047F2E7C0
:108D000010222D490748084B984791E7154100006C
:108D10004400002000FE010000FD0100A5610000EC
:108D200058AA0000007F002051A50000958B00008C
:108D30000400002091770000A4000020318400008E
:108D40000CA080009000002040A0800044A0800083
:108D500048A08000F403002087A50000DC0200206A
:108D60008C020020A9460000A40200202C02002052
:108D7000C0020020DC030020FC010020D18600009E
:108D8000858A0000000800402C010020796800005E
:108D900048020020B5680000B8050020240B002020
:108DA0004C060000DC0D002045850000658B0000AE
:108DB000E99A00009187000068AA00008021090359
:108DC0008023094AD150BFF34F8FBFF36F8F074BFA
:108DD0001A8802218A431A8000229A61DA611A6194
:108DE0003B329A737047C04600E100E00030004219
:108DF000F0B5C64600B5144B9B7BDBB29FB29A061A
:108E00001CD5114AD2699046DA061AD50E4A9269E3
:108E100094460E4A1268551C172D0AD80B4950006B
:108E20008618B4000C194646A660664666600D605A
:108E3000A781054A937304BC9046F0BD002290467A
:108E4000E2E700229446E4E700300042CC0900202B
:108E500030B500223B4B1A8000232CE0910613D53D
:108E60005900C918880038490918896800290BD0A9
:108E700034480088172807D8324DC4002C19A16047
:108E80000130288002212171D20613D55A00D21850
:108E900091002D4A52185268002A0BD0294909889E
:108EA000172907D8274CC80020188260013121807B
:108EB000012202710133244A12689A4240D95A00B1
:108EC000D2189100204A52189289910707D51D495E
:108ED0000888441C0C80C0000918032008711B4935
:108EE00009780029BAD0D10613D55900C9188800CD
:108EF00015490918496800290BD01248008817281D
:108F000007D8104DC4002C19A16001302880012120
:108F100021719206CED55A00D21891000A4A5218F1
:108F20009268002AC6D0074909881729C2D8054C7B
:108F3000C800201882600131218002220271B9E745
:108F400030BDC046F4040020CC09002010010020F0
:108F500070B5164C226A0023606A0021121A8B41F8
:108F600014001D1E19DD114EF0690021B2690023A5
:108F7000801A99410E4A00230E4EB04722002B0062
:108F80000D4CA047002904DB0ED1FA239B00984228
:108F90000AD2FA208000002106E0002B01D1002A2D
:108FA000E1D1FA208000002170BDC04648020020B7
:108FB000102700001DA20000D5A10000F8B5002870
:108FC00025D015494C6A0025CA69002306000027F0
:108FD000921BBB4110001900104A0023104EB047ED
:108FE00006000F000F4B984702000B0030003900BD
:108FF0000D4EB04724184D41002D09DB064BD868B3
:1090000000239D4203DC01D1844200D82000F8BD3A
:1090100000240025F2E7C046480200201027000087
:109020001DA20000518F0000D5A10000002808D02B
:109030000E4A118D0E4B1981528D5A810D220D4B06
:109040001A600A4BD98D0A4A1160DB8E53600023E7
:109050009381D381084A1380084A1380084A1380F9
:10906000084A1380084A13807047C046480200200F
:10907000240B0020540000208A020020BC020020A3
:10908000D802002044020020880200200F4B986B79
:109090000F4BC2180F4B9A4205D90C4BDB680E4A96
:1090A000934201D90D4870470D4A934201D90D48AA
:1090B000F9E70D4A934201D90C48F4E70C4A934270
:1090C00001D90C48EFE70348EDE7C046480200200D
:1090D000E0B1FFFFF055000038630000709400001D
:1090E0009C4A0000D0840000983A000030750000CF
:1090F0001027000090650000F0B5C64600B59F4BF4
:109100000E229B5E182B00DCE1E09C4B00221A61D2
:109110000121494259619A61DA6119625A629A627F
:10912000D9621A635A639963DA631A6459649A6458
:10913000002300E00133182B66DC90499800C0182A
:1091400082008A184C320020125E0869801808617B
:1091500049698A4201D289494A61884989698A42B2
:1091600001D986498A61854A9800C0188100511842
:10917000096DD0694018D061126A914201D27F4ACC
:1091800011627E4A526A914201D97C4A51627B4AFD
:109190009800C01881005118496D906A401890627B
:1091A000D26A914201D2754AD162744A126B9142DD
:1091B00001D9724A1163714A9800C0188100511890
:1091C000896D506B40185063926B914201D26B4A8B
:1091D00091636A4AD26B914201D9684AD163674A66
:1091E0009800C01881005118C96D106C40181064A7
:1091F000526C914201D2614A5164604A926C914230
:1092000098D95E4A916495E75C4C5D4D19212069BF
:10921000A847070020611921E069A847E0611921EA
:10922000A06AA8470600A0621921606BA847606386
:109230001921206CA8472064524B5B79002B1FD06A
:1092400004229046002B1ED00C254F4A1278002A8B
:109250004FD04A4A1168642294468C44494AD28DC0
:10926000944512D9E124E400A1420ED9AF420CD2B8
:10927000272E0AD8414B1939196000229A8123E020
:1092800002229046DEE70625DFE7643291420CD2E7
:109290003E4A914209D8474507D9782E05D9374B20
:1092A0001931196000229A810EE0002B12D0320091
:1092B000083290420ED9314A5268012A0AD92F4BFE
:1092C000023A5A6000229A8100222C4BDA8104BCB7
:1092D0009046F0BD002BF7D008308642F4D9274BDA
:1092E0005B68122BF0D8254A023353600023938128
:1092F000EAE7224A12682349C98D6424A4468C44B3
:1093000062450CD2224CA24209D8AF4207D2272E86
:1093100005D81A4B19321A6000229A81D4E7150039
:1093200064358D420BD9642A09D9474507D9782E6F
:1093300005D9124B193A1A6000229A81C4E7002B12
:109340000DD032000832904209D90C4A5268012AE5
:1093500005D90A4B023A5A6000229A81B4E7002BE1
:10936000B2D008308642AFD9044B5B68122BABD821
:10937000024A0233536000239381A5E7240B0020A7
:10938000E99E00004802002010010020C3090000EF
:109390003F0600000B1D834204D30430814203D9F1
:1093A000002000E0002070470120FCE7F0B5DE4619
:1093B00057464E464546E0B583B00190CB4B1D88DD
:1093C000CB4B186ACB4B9847CB4B98421CD8C84B19
:1093D000986CC84B9847C84B984222D8C748C84E8B
:1093E000B04707000400621E9441E4B2C548B0478C
:1093F00003005A1E9341DBB2002F18D0002816D06C
:109400000222C14B1A6017E0BC48C04EB047C048AA
:10941000B0470023BF4A1380BF4A1380BF4A13805E
:10942000D5E7B848B94EB047BD48B047D6E7234363
:109430001CD00322B44B1A60BA4B5868002819D1CB
:10944000B94B1A6893009B18B64A5360B74B9847BC
:10945000B74BC318B44A11688B4200D80FE3B54B21
:109460009C46604481420FD8012009E30422A64BA8
:109470001A60E1E70521B04B98478000AA4B1B68B2
:10948000C018A84B5860E1E7AC48AD4B9847AD4ACF
:109490001388013313800022A24B9A6034320021DA
:1094A000A948AA4B9847002300939C46002798465A
:1094B00062E0D0008D4EB24650440079022868D157
:1094C0003000DE00B24682445646B668B346D60047
:1094D000B2465044806883455BD2009B01330093C1
:1094E0003F185B46C01ABC44019B9C4500D391E0E9
:1094F000974B9C4500D98DE0964B9C457ED9894F72
:10950000BB680233BB60634644461B1BB427BF00E5
:10951000BB4276D9031F953FFF3FBB4274D88A4BAD
:109520001B685C1CA146032C71D800295CD047083D
:109530006146CF1B5900C9188900884682494144B9
:109540004F60814988465900CC18A7004744B8604D
:10955000BA816B461B88FB81434649461960E04649
:109560001300002707E0D800604C20180479022C73
:109570001AD0022C2FD001335A1C95424ADD69497A
:1095800009780029EFD0D800584C20180479012C14
:109590008FD0022CEFD1009A01320092D900534AA9
:1095A00052189268BF18E6E7D000504EB2465044B9
:1095B00000790128DDD1D00050448068DE00B34638
:1095C000DA445646B668B246B042D2D2009B013366
:1095D0000093574487E7009A01320092D900434A2A
:1095E00052189268BF18C6E7470867445900C9185F
:1095F00089008846544941444F60A2E71300002780
:10960000B9E713000027B6E713000027B3E71300FC
:109610000027B0E7434B9A681300632A00DD6323F9
:109620004D490B804D4B0C215B5E312B1FDC013310
:109630004A4A93814A4B1D68002D00D1E4E0F8238B
:109640009B00474AD358022B00D902233E4A166892
:10965000022E00D90226B34200DC91E0314AD368E1
:109660000133D360022B00DD8AE0052008E23B4B8A
:109670000E215B5E182BDDDC9800C01884002000F2
:10968000364909194C310A802F4A1268002A23D022
:109690002D4C32499A00081865680565A068D318F2
:1096A0009A0089184865284B1B68012B5AD92B4B07
:1096B0000E22985E244C82001518A90059182569BD
:1096C0008D656469121891005B18DC65234A0E21D0
:1096D000535E0133D381ADE720499A00D418A0002E
:1096E0000818002404654465DDE7C046F404002042
:1096F000640D002035850000102700008C0200203A
:10970000F5460000A402002004000020B34600003B
:10971000140200208A020020BC02002088020020DF
:10972000E401002010010020D80000208D900000EE
:10973000B80B000048F4FFFFE99E0000C0020020C3
:10974000BD460000D8020020F00A002087A50000D6
:109750003F9C0000CF02000044020020240B0020A8
:10976000B8050020CA4B0E22985E82001418A10092
:10977000591800248C65121891005B18DC65A5E768
:10978000002407E0C34AD3680133D360022B00DC16
:10979000A2E10134B44237DA63001A199100BE4ADB
:1097A0005218FB2189008C46624411881B199A00CB
:1097B000BA4B9B189B899942EBD062001319990010
:1097C000B64B5B18996812199000B34B1B18FA221C
:1097D0009200944663441868B14B98470028D1D052
:1097E000620013199900AD4B5B185968121990006B
:1097F000A94B1B18F9229200944663441868A84BA1
:1098000098470028C5D1BDE70022A24BDA60A34BE0
:109810001E683300092E00D90923A24A13800020B4
:109820000CE0441C9C49342358430818043063431B
:10983000C918043134229C4B984720001228F0DDCF
:10984000342296499448F8239B009C466044964BEA
:109850009847132D05D801358F4B1D60132D00D867
:109860003CE1002E01D103200AE18A4A1369591C08
:109870001161032B00D834E10022864B1A610021CC
:1098800015E08A4B8A005018C40001204042E05085
:109890001B1900225A609A60DA6018615A619A6155
:1098A000DA6118002430027025331A700131022960
:1098B000E7DD002271E0404262E05800C0188100FC
:1098C00034205043091874484118C8689C00E418B3
:1098D000E50076494919CC692418CC614969884268
:1098E00002D97249491948619900C918CC006F49D9
:1098F00009190969884202D26C490919086198005E
:10990000C018C40069490919243108780130087069
:109910000133022B40DC342050435F490918496869
:109920009942F5D95800C0188100342050430918D5
:109930005948411888689C00E418E5005B494919BA
:10994000CC682418CC604968884202D95749491923
:1099500048609900C918CC0054496158884201D226
:1099600052496050002AA8DD551E5C00E418A10091
:1099700034246C430919484C61188968401A9AD4F8
:109980009900C918CC00494909198969814294D2C2
:1099900046490919886190E70132132A01DC002346
:1099A000B7E700223B4B9A82002502E0002829D12C
:1099B0000135022D37DC3D4AAB005919CC0021009E
:1099C000141966688F58F31B9846A360E068384BFB
:1099D000984724342378142BEAD1364B9F42E7D999
:1099E000BE42E5D3AB005B19DA00304B9B189A6995
:1099F000A0235B009A42DBD8C8235B019845D7D8E7
:109A0000022DD3D0AB005B19DA00284CA418230038
:109A1000253301221A70284B984720621D4A938AE9
:109A200001339382C4E71B4B9B8A002B05D01A1C81
:109A3000092B00D90922214B1A8025231B4AD35C0C
:109A4000002B09D1194B1E4A198B11804D229B5CAA
:109A5000002B0AD1002013E01500D16819481A4CD8
:109A6000A047E9691948A047ECE7104D696B184811
:109A7000154CA047696C1748A047002000E0012062
:109A800003B03CBC90469946A246AB46F0BDC046EA
:109A9000240B002010010020B8050020F00A00204F
:109AA000959300008A02002051A50000640D00205B
:109AB000BD8F0000CF020000AD840000BC0200207A
:109AC000880200208C020020BD4600001402002005
:109AD000A4020020E40100200620D1E7012040423A
