:10400000A02B00202541000021410000214100009B
:1040100000000000000000000000000000000000A0
:10402000000000000000000000000000214100002E
:1040300000000000000000002141000021410000BC
:104040002141000021410000214100005D76000077
:104050008D71000015750000214100002141000014
:1040600021410000857B000021410000214100002A
:10407000214100000000000000000000957E0000CB
:10408000214100002141000021410000D98B0000A6
:10409000214100000000000000000000214100005C
:1040A0002141000021410000214100002141000088
:1040B0000000000010B5064C2378002B07D1054BFB
:1040C000002B02D0044800E000BF0123237010BD84
:1040D000580000200000000080A40000084B10B52C
:1040E000002B03D00749084800E000BF07480368D9
:1040F000002B00D110BD064B002BFBD09847F9E7F1
:10410000000000005C00002080A4000080A40000EB
:104110000000000010B5014B984710BDF9450000A4
:10412000FEE70000F8B5234A234B9A4209D0224B00
:10413000204A03E011681960043304321F498B429E
:10414000F8D31F4B02E000221A6004331D4A934249
:10415000F9D31D4AFF211D4B8B439360FD399023FA
:104160005B001B4AD1501B4AD3780325AB43022482
:104170002343D370D3780C27BB4308263343D37033
:10418000154B987B30229043202210439873997BE3
:10419000B943314399739A7BAA4322439A730F4AD6
:1041A000516880230B4353600D4B98470D4B984744
:1041B000FEE7C04680A40000000000205800002058
:1041C000580000209C0B002000ED00E000400000A3
:1041D0000070004100500041004800410040004193
:1041E000E99E0000B989000010B5084A93692021B2
:1041F0000B439361064A074B5A80074B98470200CE
:1042000006490748074B984710BDC04600040040C8
:1042100004410000000C00405976000000140040EA
:10422000D001002055670000F0B5C64600B5C02398
:10423000DB0598460823424653601F4B1F4A9A628B
:10424000C0210906996243201A5C0124A446A243B6
:1042500001273A43D2B21A5412381A5C0F26324060
:1042600010252A43D2B21A54402240464260144AD2
:104270009A62996246201A5CA2433A43D2B21A5417
:104280003234185D0F2290433843C0B21855713252
:10429000404642600B4A9A6299624722995C6046A6
:1042A00081433943C9B299541A5D32402A43D2B28C
:1042B0001A5504BC9046F0BD00440041080000407F
:1042C0004000004080000040044A116A80235B02E5
:1042D0000B431362024A034B5A80704700040040AC
:1042E0001E400000000C004010B5054B9847054BE0
:1042F0009847002204490548054B984710BDC04621
:10430000C942000029420000004000426C01002028
:10431000DD5F000010B5104A104B5A808022D20396
:10432000C023DB055A600E4B0E4A9A620E4A9A620F
:1043300056215A5C042082435A545A5C0338824303
:104340000243D2B25A541B395A5C0F2082435A544A
:10435000064B984710BDC04605400000000C0040C9
:104360000044004100000240400002C02163000000
:10437000024AD36904210B43D36170470004004013
:1043800010B5034B984703490348044B984710BDA9
:104390007143000000400041500100206D630000A7
:1043A000044A136A04210B431362034A034B5A80E5
:1043B0007047C0460004004014400000000C00405C
:1043C00030B50F4B4422995C0125A94301242143B8
:1043D000C9B299543220195C353A914303221143F2
:1043E000C9B2195445215A5CAA432243D2B25A5445
:1043F0001A5C36390A4030210A43D2B21A5430BD11
:104400000044004110B582B0064B9847002300934A
:104410001033054A05490648064CA047064B984705
:1044200002B010BDA143000074000020000800424B
:1044300080010020F1690000C143000010B502486E
:10444000024B984710BDC04610E000E0BD6200007E
:10445000074B196A802252010A431A62196A8022A4
:1044600092010A431A62034A034B5A807047C046BE
:10447000000400401C400000000C004010B5042265
:10448000C023DB055A600A490A4B8B62C0231B0616
:104490008B624223CA5C012082430243D2B2CA54D7
:1044A00031228B5C0F24A3430343DBB28B5410BD3A
:1044B0000044004104000040044A116A8023DB02EA
:1044C0000B431362024A034B5A80704700040040BA
:1044D00021400000000C004010B5044B98470449EF
:1044E0000448054B9847054B984710BDB944000058
:1044F0000048004274010020996100007D440000E2
:1045000010B5054A054B5A80054A136A02210B4330
:104510001362044B984710BD07400000000C004098
:1045200000040040D1620000084A5221535C01207F
:1045300083430343DBB253541939535C0F20834345
:1045400005200343DBB253547047C046004400418A
:10455000044A116A80235B000B431362024A034B37
:104560005A807047000400401A400000000C0040D0
:1045700010B5064B9847064B9847064B98470200E4
:1045800005490648064B984710BDC04651450000F6
:10459000294500008F7E00000020004234010020E9
:1045A000A9650000044A936910210B439361034AF3
:1045B000034B5A807047C04600040040034100008E
:1045C000000C004010B5064B9847482205490120D1
:1045D000054B98470548064B0360064B984710BDAE
:1045E000A5450000789F00004D6C00007001002080
:1045F00000100040057F000070B51B4B9847C0229B
:10460000D20580235B0053619360184B184999626F
:10461000C02424069C624825595D012081435955D8
:104620008021090151619160124A9A629C624B217A
:104630005A5C82435A54104B9847104B9847104B82
:104640009847104B9847104B9847104B9847104B82
:104650009847104B9847104B9847104B9847104B72
:104660009847104B984770BD2170000000440041EE
:104670000001004000080040E9420000154300002E
:1046800081430000054400003D440000E941000072
:1046900051440000A97E0000014500007145000062
:1046A000D9440000C5450000002801D0FF23037550
:1046B0007047002801D000230375704710B500280B
:1046C00017D0037D052B01D900230375037D042B2F
:1046D00001D900230AE05A1C02759B00195008E01A
:1046E0005A1C940024589B001C501300032BF7DD28
:1046F000016110BD10B5002825D0017DFF2907D02C
:10470000FE2909D005290BD900230375104802E0C2
:10471000002303750F4810BD002303750E48FAE708
:10472000002912D0012902D00023002205E00068F0
:10473000F1E79C002458121901338B42F9DB100079
:10474000064B9847E7E70648E5E70020E3E7C04661
:10475000839698008196980082969800C9980000E8
:104760000100FFFF0020704730B500250CE0400835
:104770000133DBB2072B06D8C407F8D54008064C36
:10478000604080B2F4E70135954203DA4B5D584052
:104790000023EFE730BDC04601A0FFFF0022002349
:1047A00005E003210B439BB24000C0B20132072A4F
:1047B00008DC9B009BB241B20029F2DB01210B43D4
:1047C0009BB2F1E71800704710B5104B02001A4079
:1047D0009A4202D0FF23180010BD0021002305E0FB
:1047E00001221343DBB2800080B201310729F2DCE1
:1047F0005B00DBB2820B9203C0242402A242EFD002
:104800008024E401A242EED0FF23E4E755550000E6
:10481000F0B583B0070001914378012B03D8012044
:10482000404203B0F0BD8088234B9847FA2802D05D
:1048300001204042F5E70126204C0DE064080133D9
:10484000DBB2072B06D8E207F8D560081C4C4440C1
:10485000A4B2F4E70136F6B27B789E4217D2350057
:104860007300FB189888144B9847FB280FD07300EF
:10487000FB189888104B9847FC2808D06B00FB1851
:1048800098880D4B984780B244400023D9E7019B9C
:10489000002B0FD07B789E4202D301204042C0E71C
:1048A0007600BF19B888044B9847FB2802D0012036
:1048B0004042B6E72000B4E7C9470000FFFF000010
:1048C00001A0FFFF70B5050044787C2C01D90020C1
:1048D00070BD631C43700800044B984764002C199A
:1048E000A0806B8802336B800120F1E79D470000B8
:1048F00070B505000C009F290BD9A021064B9847E5
:10490000002808D021006031C9B22800024B984726
:1049100001E0014B984770BDC548000010B54378D1
:104920008B4201D8002010BD490040188088044BFC
:1049300098470023A02282425B41D8B2F3E7C046E9
:10494000C947000070B504000D000B78427893420F
:1049500001D3FF2070BD5B00C31898880F4B9847A8
:10496000A02801D9FF20F5E72B785A1C2A705B009C
:10497000E3189888094B9847A028EBD12B786278E8
:10498000934201D3FF20E5E75A1C2A705B00E4182C
:10499000A088024B98476038C0B2DBE7C9470000E7
:1049A000F8B504000E00151E4ED000292DD0097850
:1049B000437899422FD2264B9847002831D00023C4
:1049C0002B60002731782000214B9847002833D0F6
:1049D000310020001F4B98470F2302009A43D3B2A7
:1049E0009F2B24DC2B689A00D21853000209D2B204
:1049F0009B182B600F22104009281FDC9A00D31847
:104A00005A00101828600137DCE701235B4213606D
:104A100002277F4210E001235B42136003277F429D
:104A20000AE001235B422B6004277F4204E001235C
:104A30005B422B6005277F423800F8BD01235B42B3
:104A40002B6006277F42F7E701277F42F4E7C04645
:104A50001D49000045490000F0B5CE4600B582B0C2
:104A600001900E00171E994628D0002929D0002356
:104A7000137009784378994226D2154B984700283D
:104A800001D0002409E00324644212E03C19310003
:104A90000198104B984720702C00651C4D4505DA95
:104AA000317801980A4B98470028EFD13B19002232
:104AB0001A70200002B004BC9146F0BD012464428B
:104AC000F7E701246442F4E702246442F1E7C046B8
:104AD0001D49000045490000F0B5CE4600B586B03E
:104AE00001901600234B9847002838D0002E1BD089
:104AF0001024002C25DD002E21D0013C1E4B9946B0
:104B00000A2130009847CDB21C4F0A213000B84727
:104B10000A21C8470901C9B2294302AB19556421CA
:104B20003000B8470600E4E700210198144B98478D
:104B3000002801D0012517E003256D4214E000256F
:104B400000E000250F2C0FD80135661C02AB195D63
:104B500001980B4B9847002804D03400F2E7022557
:104B60006D4201E003256D42280006B004BC914669
:104B7000F0BDC046C5480000D5990000C9980000A6
:104B8000F148000070B50500161E11D00B4B984778
:104B9000002810D00024315D002907D001342800FE
:104BA000074B98470028F6D103246442200070BDCB
:104BB00001246442FAE702246442F7E7C548000092
:104BC000F1480000F0B5C64600B582B00190171E4E
:104BD000984632D0224B9847002831D0002627E053
:104BE0000134E4B2A519A84203DDBA5D7B5D9A42A7
:104BF000F6D0032C14D9FD210198194B98470028B1
:104C000021D021000198174B9847002821D0B95D89
:104C10000198144B9847002809D10520404214E020
:104C2000751CB95D01980F4B9847002814D02E00D1
:104C30004046464509DA0124D4E70120404204E019
:104C40000220404201E00320404202B004BC9046F2
:104C5000F0BD04204042F8E706204042F5E7C04698
:104C6000C5480000F148000070B584B005004488D4
:104C7000002C00D1E6E0F92C07D900230370437023
:104C800043800020DFE0013CA4B2002C12D02A793E
:104C900055231340552B0DD06E88002EF3D0281DC0
:104CA000013E691D32006F4B9847B2B26A805208CC
:104CB0006A70E8E7002C03D10020C4E0013CA4B2F4
:104CC000012C12D9A888684B9847FA280DD06E8815
:104CD000002EF3D0281D013E691D3200614B98471C
:104CE000B2B26A8052086A70E8E7002C00D1ACE0EA
:104CF0006608E30700D5AAE0042E00D8A9E0012247
:104D00000F236B441A700F236B441B789AB29642A0
:104D10001CD95B00EB189888534B9847FC2815D09A
:104D20000F236B441B785B00EB1898884E4B984719
:104D3000FF2805D00F226A44137801331370E2E78D
:104D400000232B706B706B8000207CE00F236B4482
:104D50001B789E4200D87EE001220F236B441A701C
:104D600004E00F226A441378013313700F236B445D
:104D70001B789AB2964210D95B00EB1898883A4B90
:104D80009847FB2809D00F236B441B785B00EB1876
:104D90009888354B9847FC28E3D10F236B441B7848
:104DA0009AB2964205D800232B706B706B8003205B
:104DB00049E05B00EB1898882B4B9847FB28F2D111
:104DC0000F2169440B7801330B700023029302AA70
:104DD0002800264B9847002805DC00232B706B70B9
:104DE0006B8003202FE001212800214B9847029B74
:104DF000984205D000232B706B706B80042022E05A
:104E00000F21694401230B700023019301AA28009C
:104E1000164B9847002805DC00232B706B706B80C5
:104E2000032010E0019A002A17D0124B19680A23B8
:104E30004B4301339A4212D000232B706B706B806E
:104E4000052000E0002004B070BD0020FBE7012039
:104E5000F9E70120F7E70120F5E70220F3E7022058
:104E6000F1E7C046439F0000C9470000A149000088
:104E70001148000054020020F0B5D646474680B5E0
:104E800091B004000D0000230F930B704B704B800A
:104E9000D34B1A6893009B185A000132FA2128005C
:104EA000D04B98470B2102AB9C46614401230B7009
:104EB00001225242CC4B1A60CC4A2000CC4B98477E
:104EC000002830DDC94B1B68002B33D1668876087B
:104ED000002398460B2302AA944663441B789AB297
:104EE000964201D800F0DCFF5B00E3189888C14BC4
:104EF0009847FC2801D100F0D3FF0B2202AB9C465F
:104F000062441378591C11705B00E3189888B94B00
:104F100098475F30C3B25E2B01D900F0BCFF980008
:104F2000B54B1B589F460822AF4B1A6001204042E8
:104F300000F0D7FFAA4A1268002AC7D091008A1849
:104F4000510001318B42C1D00922A74B1A600220C7
:104F5000404200F0C6FF0FAA0B2102AB9C46614401
:104F60002000A34B9847002802DD13229E4B1A60B5
:104F7000A24AA12128009B4B98470028AADC0622C0
:104F8000994B1A60A6E70122A2212800954B984769
:104F900000289FDC0622944B1A609BE7984AA321C5
:104FA0002800984B9847002894DA06228E4B1A6006
:104FB00090E7954AA42128008A4B9847002889DC6D
:104FC0000622894B1A6085E70FAA0B2102AB9C468B
:104FD00061442000864B9847002802DD1322824B53
:104FE0001A608A488A4B98478A4B98477C4B1A69C3
:104FF0008218A62128007B4B9847002800DD69E72E
:105000000622794B1A6065E70FAA0B2102AB9C467A
:1050100061442000764B9847002802DD1322724B32
:105020001A607A487A4B98470200C12128006D4BDC
:105030009847002800DD4DE706226B4B1A6049E7D0
:105040000FAA0B2102AB9C4661442000684B984795
:10505000002802DD1322644B1A606F486C4B98479E
:105060000200CC2128005F4B9847002800DD31E783
:1050700006225D4B1A602DE70FAA0B2102AB9C465E
:10508000614420005A4B9847002802DD1322564BFA
:105090001A6062485E4B98470200C2212800514BBB
:1050A0009847002800DD15E706224F4B1A6011E7EC
:1050B0000FAA0B2102AB9C46614420004C4B984741
:1050C000002802DD1322484B1A605548504B984780
:1050D0000200CD212800434B9847002800DDF9E667
:1050E0000622414B1A60F5E60FAA0B2102AB9C4643
:1050F000614420003E4B9847002807DD384BDB68B1
:105100000F9A93420FD81422374B1A60344B1A6A05
:10511000C3212800334B9847002800DDDAE6062239
:10512000314B1A60D6E62E4B9B8E032B03D91122EE
:105130002D4B1A60EAE73548354B9847002803D1D4
:105140001222294B1A60E1E7254B1B6A0F9A934202
:1051500005D0234B1A62986101239846D6E7204B6D
:105160009B699842F5D1D1E70FAA0B2102AB9C466F
:10517000614420001E4B9847002807DD184BDB6870
:105180000F9A93420FD81422174B1A60144B5A6A85
:10519000C4212800134B9847002800DD9AE6062218
:1051A000114B1A6096E60E4B9B8E032B03D91122EE
:1051B0000D4B1A60EAE71548154B9847002803D1B4
:1051C0001222094B1A60E1E7054B5B6A0F9A934282
:1051D00028D0034B5A62D86101239846D6E7C046CF
:1051E00054020020D94A0000000000208400002062
:1051F000A1490000C9470000949F0000020001007F
:1052000010A10000854B0000200001009802002042
:10521000F5460000ED8C00001C020020B0020020CA
:10522000EC010020CF4BDB699842D2D1AEE70FAA48
:105230000B2102AB9C4661442000CB4B98470028D1
:1052400007DDC84BDB680F9A93420FD81422C74B77
:105250001A60C44B5A6AAE212800C54B98470028F3
:1052600000DD37E60622C14B1A6033E6BD4B9B8E4C
:10527000032B03D91122BD4B1A60EAE7BD48BE4B90
:105280009847002803D11222B84B1A60E1E7B54BCA
:105290005B6A0F9A934205D0B24B5A62D8610123E0
:1052A0009846D6E7AF4BDB699842F5D1D1E70FAA14
:1052B0000B2102AB9C4661442000AB4B9847002871
:1052C00006DD0F9BAD4A93420FD91422A74B1A60FB
:1052D000A44B1A69A7212800A54B9847002800DD98
:1052E000F8E50622A14B1A60F4E59E4A12699A423B
:1052F000EED09C4A136101239846E9E70FAA0B21DF
:1053000002AB9C4661442000974B9847002802DD81
:105310001322964B1A609A48974B9847994B984797
:1053200090490B79CA688968974FB8470200A8214D
:1053300028008F4B9847002800DDCBE506228B4BD9
:105340001A60C7E50FAA0B2102AB9C4661442000FE
:10535000854B9847002802DD1322844B1A6085484C
:10536000854B9847874B98477E4B5A698218A921ED
:1053700028007F4B9847002800DDABE506227B4BD9
:105380001A60A7E50FAA0B2102AB9C4661442000DE
:10539000754B9847002806DD0F9B784A93420FD93A
:1053A0001422724B1A606F4B5A69AA212800704B65
:1053B0009847002800DD8DE506226C4B1A6089E5D0
:1053C000684A52699A42EED0664A53610123984670
:1053D000E9E70FAA0B2102AB9C4661442000624B17
:1053E0009847002802DD1322604B1A606148624B27
:1053F0009847644B98475B490B79CA688968624F44
:10540000B8470200AB212800594B9847002800DD1F
:1054100060E50622554B1A605CE50FAA0B2102AB32
:105420009C4661442000504B9847002802DD13221F
:105430004E4B1A604D4B5A68AC2128004C4B984794
:10544000002800DD46E50622484B1A6042E50FAA17
:105450000B2102AB9C4661442000434B9847002837
:1054600002DD1322414B1A604848434B9847020023
:10547000AD2128003E4B9847002800DD2AE5062292
:105480003A4B1A6026E50FAA0B2102AB9C466144F9
:105490002000354B9847002802DD1322334B1A6059
:1054A0003B48354B98470200AF212800304B9847C6
:1054B000002800DD0EE506222C4B1A600AE50FAA33
:1054C0000B2102AB9C4661442000274B98470028E3
:1054D00002DD1322254B1A60244B1A68B0212800E4
:1054E000234B9847002804DD012252421F4B1A60CB
:1054F000F0E406221D4B1A60ECE4282305AA0B21D8
:1055000002A8844661442000224FB84700285CDD91
:10551000144B9B8E012B0ED01122144B1A6005AA3E
:10552000B12128001C4B9847002800DBD2E406225A
:105530000E4B1A60CEE400230F93002100E00131EE
:1055400005AB5A5C002A29D01300303BDBB2092B93
:10555000F5D80F9B9800C01843009A18303A0F9264
:10556000EDE7C04654020020A149000000000020E1
:10557000D94A0000B0020020F546000010270000C4
:1055800098020020ED8C00006547000034020020E6
:10559000E8030020594A0000854B0000CF4B1A68F1
:1055A0000F9B9A42BBD0CD4A136000232B706B70C7
:1055B0006B80126893009B185A000132FA21280070
:1055C000C74B984701239846A9E705ABC54A118800
:1055D000198092789A700227C34B019312E0062F2C
:1055E00016D0BE4B1868C14B9A46019998470A21BC
:1055F000BF4B9847303105ABD9550A210198D047A8
:1056000001900137082FEADD002205AB5A7286E7C8
:105610002F2205ABDA55F4E71023B64A0432B22143
:105620002800B54FB847002800DD53E40622B34BED
:105630001A604FE40FAA0B2102AB9C466144200084
:10564000AF4B9847002811DDA44B9B8E022B0AD844
:10565000A24B5A8E02AB9B8E9A4207D09F4A53862A
:105660000123984602E01122A44B1A609B4B5A8EEC
:10567000B32128009A4B9847002800DD2AE406222F
:105680009E4B1A6026E40B229C4B5A60093A994BB8
:105690001A751FE40FAA0B2102AB9C46614420003F
:1056A000974B9847002813DD8C4B9B8E022B0CD810
:1056B0008A4B9A7902AB34215B181B789A4207D047
:1056C000864A93710123984602E011228B4B1A609F
:1056D000824B9A79B5212800814B9847002801DD3B
:1056E000FFF7F8FB0622854B1A60FFF7F3FB0FAAC2
:1056F0000B2102AB9C4661442000814B9847002857
:1057000010DD764B9B8E022B09D8744B9A680F9B49
:105710009A4207D0714A93600123984602E0112211
:10572000764B1A606D4B9A68B62128006C4B9847EF
:10573000002801DDFFF7CEFB0622704B1A60FFF751
:10574000C9FB0FAA0B2102AB9C46614420006C4BA5
:105750009847002813DD614B9B8E022B0CD85F4BC2
:105760001A7902AB34215B181B789A4207D05B4A46
:1057700013710123984602E01122604B1A60574BC7
:105780001A79B7212800564B9847002801DDFFF70A
:10579000A1FB0622594B1A60FFF79CFB0FAA0B21B5
:1057A00002AB9C4661442000554B9847002802DD1F
:1057B0001322524B1A60534B9847A02292000023A9
:1057C000514FB8470200B9212800454B984700289F
:1057D00001DDFFF77FFB0622484B1A60FFF77AFBDB
:1057E0000FAA0B2102AB9C4661442000444B984712
:1057F000002808DD0F9B454A9918454A914211D966
:1058000014223E4B1A60354BDA68BB212800344B1A
:105810009847002801DDFFF75DFB0622374B1A6031
:10582000FFF758FB2D4A928E022A08D82B4AD268DD
:105830009342E8D0294AD36001239846E3E7112236
:105840002E4B1A60DFE70FAA0B2102AB9C46614486
:1058500020002B4B9847002813DD204B9B8E022BFA
:105860000CD81E4B5A7902AB34215B181B789A4234
:1058700007D01A4A53710123984602E011221F4BA8
:105880001A60164B5A79BC212800154B98470028FE
:1058900001DDFFF71FFB0622184B1A60FFF71AFB0A
:1058A0000FAA0B2102AB9C4661442000144B984781
:1058B000002802DD1322114B1A601648164B984738
:1058C0000200BD212800064B9847002801DDFFF7A4
:1058D00001FB0622094B1A60FFF7FCFA5402002074
:1058E000D94A000018A10000A0860100C998000054
:1058F000D599000084000020C54B00000000002066
:10590000A1490000818C0000B59B000078ECFFFFEE
:1059100018730100CC020020F54600000FAA0B21ED
:1059200002AB9C4661442000C44B9847002802DD2E
:105930001322C34B1A60C348C34B98470200BE21D1
:105940002800C24B9847002801DDFFF7C3FA062262
:10595000BB4B1A60FFF7BEFA0FAA0B2102AB9C46A5
:1059600061442000B54B984700282ADDB84B9B8E38
:10597000032B23D8B74B0F9A9A4200D90F930F9B52
:10598000C72B01D8C8230F93B14BDA8D02AB9B8E86
:105990009A4216D0AE4AD385AF4A136000231381D2
:1059A0005381AE4A1380AE4A1380AE4A1380AE4A8A
:1059B0001380AE4A13800133984602E01122A04BB7
:1059C0001A60A34BDA8DA44B1968A94B4B43D2182C
:1059D000BF2128009D4B9847002801DDFFF77AFA88
:1059E0000622974B1A60FFF775FA0FAA0B2102AB3C
:1059F0009C4661442000914B984700281DDD944B44
:105A00009B8E022B16D80F9B002B01D101330F93D5
:105A10000F9B052B01D905230F938D4BDA7902AB30
:105A200034215B181B789A4207D0894AD37101232D
:105A3000984602E01122824B1A60854BDA79C02128
:105A40002800824B9847002801DDFFF743FA062221
:105A50007B4B1A60FFF73EFA0FAA0B2102AB9C4664
:105A600061442000754B9847002822DD784B9B8EBF
:105A7000032B1BD80F9B012B15D90F9B322B01D960
:105A800032230F93724B1B8D02AA342152181078C7
:105A900083420ED06E4B1885764B9847764B186034
:105AA0000123984605E002230F93E6E71122644B99
:105AB0001A60674B1A8DC5212800644B984700284F
:105AC00001DDFFF707FA06225D4B1A60FFF702FAC5
:105AD0000FAA0B2102AB9C4661442000574B98470C
:105AE000002823DD5A4B9B8E032B1CD80F9B272BA2
:105AF00001D828230F93564B5B8D0F9A934201D9FF
:105B00000A330F93A0235B000F9A9A4200D90F9398
:105B10004F4B9A8D02AB9B8E9A4207D04C4A93858D
:105B20000123984602E01122454B1A60484B9A8D9A
:105B3000C6212800454B9847002801DDFFF7CAF928
:105B400006223F4B1A60FFF7C5F90FAA0B2102ABE3
:105B50009C4661442000394B9847002824DD3C4B8B
:105B60009B8E032B1DD80F9B012B17D996235B000F
:105B70000F9A9A4200D90F93354B9B8D0F9A9342FF
:105B800001D20A3B0F93324B5A8D02AB9B8E9A4245
:105B90000AD02F4A53850123984605E002230F932C
:105BA000E4E71122264B1A60294B5A8DC7212800A1
:105BB000264B9847002801DDFFF78CF90622204B81
:105BC0001A60FFF787F90FAA0B2102AB9C466144CC
:105BD00020001A4B9847002821DD1D4B9B8E032B7C
:105BE0001AD80F9B002B01D101330F930F9B142B5D
:105BF00001D914230F93164B1B8E02AA342152187D
:105C0000107883420BD0124B18861C4B98471C4BC4
:105C100018600123984602E01122094B1A600C4BD0
:105C20001A8EC8212800094B9847002801DDFFF78C
:105C300051F90622024B1A60FFF74CF9A149000006
:105C40000000002004020020F5460000D94A0000B0
:105C5000540200201C0C0000E808002096020020DE
:105C6000C8020020E40200204C0200209402002020
:105C700010270000758C000020010020698C0000B6
:105C8000240100200FAA0B2102AB9C466144200096
:105C90009F4B9847002802DD13229E4B1A609E4BB3
:105CA0009A69C92128009D4B9847002804DD0022ED
:105CB000994B9A61FFF70EF90622964B1A60F6E7A8
:105CC0000FAA0B2102AB9C4661442000904B9847E1
:105CD000002802DD13228F4B1A60914B1A88930023
:105CE0009B1859008F4B1A8852188F4B19886423C0
:105CF0004B43D2188D4B19888D4B4B43D2188D4B8B
:105D000019888D4B4B43D2188C4B1A60CA2128003E
:105D1000824B984700280CDD0023824A1380804A7A
:105D20001380814A1380814A1380824A1380FFF7CF
:105D3000D1F80622774B1A60EEE70FAA0B2102ABCF
:105D40009C4661442000724B9847002808DD7C4B3C
:105D50009A8E02AB9B8E9A4211D911226D4B1A601A
:105D6000774B9A8ECB2128006C4B9847002801DD99
:105D7000FFF7B0F80622674B1A60FFF7ABF89A42BC
:105D8000EED06F4A938601239846E9E70FAA0B21CC
:105D900002AB9C46614420005D4B9847002813DD10
:105DA0000F9B142B01D914230F93654BDA8E02AB92
:105DB0009B8E9A4208D0624AD386624A536000237F
:105DC00013815381013398465D4BDA8E5D4B5968E0
:105DD000574B4B43D218CE212800504B98470028F0
:105DE00001DDFFF777F806224A4B1A60FFF772F8D9
:105DF000554AA4212800494B9847002801DDFFF7A8
:105E000069F80622434B1A60FFF764F80122414B00
:105E10001A60FFF75FF801223E4B1A60FFF75AF84D
:105E200001223C4B1A60FFF755F80122394B1A60EA
:105E3000FFF750F80122374B1A60FFF74BF80122A9
:105E4000344B1A60FFF746F80122324B1A60FFF715
:105E500041F801222F4B1A60FFF73CF801222D4B2D
:105E60001A60FFF737F80023039303AA0B2102AB54
:105E70009C4661442000264B9847002801DDFFF72F
:105E800029F80322234B1A60FFF724F81522214B2F
:105E90001A60FFF71FF802221E4B1A60FFF71AF86C
:105EA0004346002B22D11C4B9A69002A21D1194B61
:105EB0001A68531C07D0B0212800184B98470122BC
:105EC0005242144B1A6000212800204B98470200D0
:105ED000FB212800114B9847FC2128001C4B9847B8
:105EE000042011B00CBC90469A46F0BD194B98475F
:105EF000D9E7C9212800094B9847002803DD002273
:105F0000054B9A61D3E70622024B1A60F7E7C046B9
:105F1000A14900000000002084000020D94A0000B0
:105F2000C802002096020020E40200204C0200205B
:105F3000102700009402002040420F005002002071
:105F400054020020E8080020200001001148000051
:105F5000C5480000E587000010B588B00100202387
:105F60006A461948194CA047002829D1184B009AB5
:105F70009A4201D0002024E0019B012B01D0002097
:105F80001FE0144B069A9A4201D0002019E0124BF0
:105F9000059A9A4201D0002013E080235B00029A08
:105FA0009A4201D000200CE0FE23DB00039A9A42C3
:105FB00001D0002005E0049B402B02D1012000E02D
:105FC000002008B010BDC04650010020B963000099
:105FD00078563412214365872000010070B5040013
:105FE0000D0000280DD0002909D0012039220649D2
:105FF000064B984729002000054B984770BD0020AC
:10600000F4E70020F2E7C0461CA100004D6C000040
:10601000FD6E000070B504000D00431E9841C0B233
:106020004E220449044B984729002000034B98470F
:10603000002070BD1CA100004D6C0000356F0000F9
:1060400070B504000D00431E9841C0B259220449A6
:10605000044B984729002000034B9847002070BD4F
:106060001CA100004D6C0000436F0000F8B5CE4647
:10607000474680B506000D009046994600281AD084
:10608000002A1AD04B46002B19D1002067221C4948
:106090001C4FB847340030001B4B984701000600E6
:1060A00048461A4B984748424841C0B269221449B1
:1060B000B847002709E00020E8E70020E6E70120D4
:1060C000E4E7BF19BFB2B94515D92000104B984776
:1060D000290020000F4B98470028F9D02900200004
:1060E0000D4B98474346D855012EEAD97B1C000A30
:1060F0004246D054E5E738000CBC90469946F8BDBE
:106100001CA100004D6C00004F6F0000A99B000017
:10611000756F00006B6F0000896F000070B50400A0
:106120000D00431E9841C0B282220449044B984797
:1061300029002000034B9847002070BD1CA10000DF
:106140004D6C0000976F0000F8B504000D001600BC
:106150001F00431E9841C0B299220549054B98473C
:106160003B00320029002000034CA0470020F8BD6E
:106170001CA100004D6C0000A96F0000EFF310831C
:10618000036072B6BFF35F8F7047BFF35F8F036822
:1061900083F310887047000070B504000D000028DC
:1061A00010D000290CD0012032220C490C4B98470A
:1061B000290020000B4B984700280ED100230AE04D
:1061C0000020F1E70020EFE7DA00A218002151607B
:1061D00091600133DBB2002BF6D070BD38A1000016
:1061E0004D6C00009570000070B504000D00002893
:1061F0000CD000290CD0002052220649064B9847AB
:1062000029002000054B9847002070BD0020F3E7CF
:106210000120F1E738A100004D6C0000C1700000C2
:10622000F0B5CE4600B582B007000D0014009946C7
:10623000002807D0002907D1002A18D0002B18D138
:10624000002002E0002000E000206A221749184BDD
:106250009847019729003800164B9847002822D00C
:106260002E00EB00FB185C604A469A6011E00020AB
:10627000EBE70120E9E7F4003C19636819882A007C
:1062800001980D4B9847636802336360A368013B34
:10629000A360F300FB189B68002BECD1002002B038
:1062A00004BC9146F0BD1D204042F8E738A1000033
:1062B0004D6C0000D5700000E770000010B5024B77
:1062C0001860024B984710BDA0000020E17B000041
:1062D00010B5014B984710BD4572000070B50125FF
:1062E000002407E00D4AB358002B00D0984770BD3A
:1062F000013AD5B2AC42FAD82B195B10DAB2002AB7
:10630000F5D1FF210B40DE0004498919496881421B
:10631000E8D0EDD20132D4B2ECE7C046A4000020B0
:1063200010B50023002B03D00748084B984710BD39
:10633000074AD90050180124644244600020885064
:1063400001339BB2EEE7C046DD620000F57000004D
:10635000A400002010B54369002B00D0984710BD61
:1063600010B58369002B00D0984710BD70B50400AC
:106370000D00002813D000290FD001203822094930
:10638000094B984729002000084B9847002803D163
:10639000074B2360074B636070BD0020EEE70020D1
:1063A000ECE7C04654A100004D6C00006D73000086
:1063B0005563000061630000F0B5C64600B50400F7
:1063C0000E0015001F00002820D0002A20D0002B2E
:1063D00020D1002056221349134B98472000134B1D
:1063E000984780462000124B984743465843B04296
:1063F00012D3BB19984212D33B002A00310020006F
:106400000C4CA047002004BC9046F0BD0020E1E702
:106410000020DFE70120DDE70E204042F3E70E20F9
:106420004042F0E754A100004D6C0000CD73000025
:10643000D1730000D7730000F0B5C64600B5040064
:106440000D0016001F00002826D0002A26D0002BA1
:1064500026D100206A221849184B98472000184B73
:10646000984780462000174B984743465843A84218
:1064700018D37B19984218D329002000124B984753
:10648000002815D13B003200290020000F4CA04706
:10649000002004BC9046F0BD0020DBE70020D9E7D7
:1064A0000120D7E70E204042F3E70E204042F0E7FC
:1064B00011204042EDE7C04654A100004D6C0000A1
:1064C000CD730000D1730000FD740000257400003E
:1064D00010B50400431E9841C0B2F7220349044B93
:1064E00098472000034B984710BDC04654A10000B8
:1064F0004D6C0000CD73000010B50400431E9841A0
:10650000C0B2802252000349034B98472000034B3E
:10651000984710BD54A100004D6C0000D1730000DD
:1065200070B504000D00160000280ED000290AD016
:10653000012034220649074B98472368320029007E
:106540002000984770BD0020F3E70020F1E7C04627
:106550006CA100004D6C000070B504000D00160029
:1065600000280ED000290AD001203D220649074B01
:1065700098476368320029002000984770BD0020CA
:10658000F3E70020F1E7C0466CA100004D6C00006D
:1065900010B54369002B00D0984710BD10B5836932
:1065A000002B00D0984710BD70B504000D000028E6
:1065B00012D000290ED0012033220849084B9847F9
:1065C00029002000074B9847074B2360074B636067
:1065D000002070BD0020EFE70020EDE780A1000063
:1065E0004D6C0000D17C0000916500009D650000AD
:1065F00010B50400431E9841C0B24A220749084B17
:1066000098472000074B9847002804D12000064BEC
:106610009847002010BD11204042FBE780A10000F8
:106620004D6C00007D7E0000257E000010B504004A
:10663000431E9841C0B258220749084B9847200092
:10664000074B9847002804D02000064B98470020AD
:1066500010BD11204042FBE780A100004D6C0000FE
:106660007D7E0000377E000070B504000D0016002E
:10667000431E9841C0B27C220449054B9847320022
:1066800029002000034B9847002070BD80A1000026
:106690004D6C0000497E0000F8B50668002E02D05F
:1066A000330000250CE0104B984718E09F68BC466B
:1066B0006444A41A01348F68BC420BD21D001B68CD
:1066C000002B07D05C689442F0D8A41A9F68BC469F
:1066D0006444F0E7B34203D02800044B9847F8BD68
:1066E000014B9847FBE7C0466D6C0000996C0000B9
:1066F000F8B50500446903695E1C0661037EDB078B
:1067000002D4037E9B070AD52B7E02221343DBB201
:106710002B76F8BD6F69E368200098473C00002C99
:10672000F7D06368F31AA2689342F2D32F001437AC
:106730003800064B9847237C012BEBD16660320072
:1067400021003800024B9847E4E7C046A16C0000E6
:106750009966000070B504000D00002812D00029D1
:106760000ED001203B220849084B98472900200001
:10677000074B984700232361064B2360002070BD20
:106780000020EFE70020EDE798A100004D6C00002D
:1067900091750000F166000010B50400431E984199
:1067A000C0B253220749084B98472000074B98472F
:1067B000002804D12000064B9847002010BD11206E
:1067C0004042FBE798A100004D6C000045760000B8
:1067D000ED75000070B582B004000D00002826D0D1
:1067E000002922D001207A221F49204B9847237E7E
:1067F00001221343DBB22376260014362900300031
:106800001B4B9847002814D123696B60226929002B
:106810003000184B9847237E012293432376237E32
:106820009B0712D4002002B070BD0020DBE70020DF
:10683000D9E7237E0122934323767E320A49002042
:106840000A4B984712204042EDE701A80A4B9847AF
:10685000237E0222934323762000084B984701A809
:10686000074B98470020DEE798A100004D6C000020
:10687000556C0000996600007D61000057760000AD
:106880008B61000010B5083800230363436A002BB6
:1068900000D0984710BD10B5083800230363C36AC1
:1068A000002B00D0984710BD10B504002C30044BCD
:1068B0009847236A083C002B01D02000984710BD60
:1068C0004D6D000070B504000E00150000281DD0AD
:1068D00000291DD0002A1DD100203C22FF32104982
:1068E000104B98474423E25A0833E35A9A4213D193
:1068F000A6644C23E5520022083BE252433B23634B
:1069000020000830084B9847280070BD0020E4E7BD
:106910000020E2E70120E0E71C204042F5E7C04606
:10692000B0A100004D6C0000FD7A000070B50400BD
:106930000200083A4423D35A4C21525A93420DD0B4
:106940000200016C083A5D1C44201552C95C20000D
:10695000044B98472000044B984770BD034B984761
:10696000FBE7C046F57A0000FD7A0000057B0000D9
:10697000F0B585B004000D001600002817D00029DE
:1069800017D0002A17D10020AC2252001249134B15
:10699000984703A8124B9847343420000194114BB8
:1069A0009847070003A8104B984700240BE00020ED
:1069B000EAE70020E8E70120E6E70134A4B269181D
:1069C00001980A4B98472100A74201D9B442F4D359
:1069D000200005B0F0BDC046B0A100004D6C000025
:1069E0007D6100008D6D00008B610000016D000075
:1069F000F8B504000D0016001F00002826D000295D
:106A000026D0002A26D0002B26D100203A22154974
:106A1000154B9847200034303A003100134B98470B
:106A200000281BD1200008302900114B984700286E
:106A30000BD1104B6360104B2360104BA360104BC5
:106A4000E360104B2361104B6361F8BD0020DDE76C
:106A50000020DBE70020D9E70120D7E70D204042E6
:106A6000F3E7C046B0A100004D6C0000B56C00001B
:106A7000057A000071690000C56800002D690000FA
:106A8000A9680000856800009768000010B5040040
:106A9000431E9841C0B261220449054B984720002B
:106AA0000830044B9847002010BDC046B0A100003C
:106AB0004D6C0000917A000010B50400431E98410F
:106AC000C0B26C220449054B984720000830044BA3
:106AD0009847002010BDC046B0A100004D6C0000DA
:106AE000A37A000070B505000E001400431E984103
:106AF000C0B283221649174B9847012E11D0002EA1
:106B000004D0022E18D00D20404209E0AC62621E73
:106B10009441E2B22800083001210F4B9847002031
:106B200070BD6C62621E9441E2B2280008300221FE
:106B3000094B98470020F3E7EC62621E9441E2B2F1
:106B4000280008300321044B98470020E8E7C0469E
:106B5000B0A100004D6C00000D7B000070B504007A
:106B60000D00431E9841C0B2AA220549054B984723
:106B7000200008302900044B9847002070BDC04613
:106B8000B0A100004D6C0000B57A000070B50400A3
:106B90000D00431E9841C0B2CB220549054B9847D2
:106BA000200008302900044B9847002070BDC046E3
:106BB000B0A100004D6C0000C57A000070B5040063
:106BC0000D00431E9841C0B2D6220549054B984797
:106BD000200008302900044B9847002070BDC046B3
:106BE000B0A100004D6C0000D57A000070B5040023
:106BF0000D00431E9841C0B2E1220549054B98475C
:106C0000200008302900044B9847002070BDC04682
:106C1000B0A100004D6C0000E57A000010B5040042
:106C2000431E9841C0B20222FF320549054B9847E6
:106C300020003430044B9847431E984110BDC04695
:106C4000B0A100004D6C00008D6D0000002800D147
:106C500000BE70470368002B03D08B4203D01B6833
:106C6000F9E7002070470120FCE7000070B5040040
:106C70000D00064B984701235840C0B23922044901
:106C8000044B984723682B60256070BD556C00004D
:106C9000D0A100004D6C000003680B6001607047DC
:106CA0000368002B03D01A680260180070470020A8
:106CB000FCE7000070B504000E001500002812D09B
:106CC000002912D0002A12D1002028220A490B4B99
:106CD00098476B1E2B420CD163600023A360E360D6
:106CE0002660002070BD0020EFE70020EDE70120C6
:106CF000EBE70D204042F5E7F0A100004D6C0000ED
:106D000070B504000D00002816D0002912D0012013
:106D100040220C490C4B9847A368E2689A420DD078
:106D2000626813402268D35C2B70A3680133A360B0
:106D3000002070BD0020EBE70020E9E70A20404278
:106D4000F7E7C046F0A100004D6C000070B50400EC
:106D50000D00431E9841C0B251220A490A4B984780
:106D60006368E26813402268D554E368A2689A1AFF
:106D700061688A4201D9591AA1600133E360002099
:106D800070BDC046F0A100004D6C000010B50400BD
:106D9000431E9841C0B267220349044B9847E068FC
:106DA000A368C01A10BDC046F0A100004D6C0000E1
:106DB0000020704710B50B4B9847020000200028B8
:106DC00006D07F2208490020084B9847002010BDBC
:106DD000C3001B1A9900064BCB5C9A42F7D00130D6
:106DE000C0B2ECE7B16D000030A200004D6C0000B5
:106DF00014A2000070B504000D003A4BC0184342C5
:106E00005841C0B294223849384B9847384B1A68D9
:106E1000D2081202E023DB001A4036490B684968A9
:106E20004901DB0E0B43FF210B401A43637EDB0954
:106E3000FCD123789B0704D500232370637EDB09F4
:106E4000FCD101232370637EDB09FCD12285EA009B
:106E5000521B9100284B5B189A786270DA78A27006
:106E60001A79E2701A7C2275DA8AA2841A8BE2847B
:106E7000997E2A22A154DB88A380637EDB09FCD1A2
:106E8000EB005B1B9A001C4B9B18DB682361637E45
:106E9000DB09FCD1EB005B1B9A00174B9B181B7A9C
:106EA0002372637EDB09FCD1EB005B1B9A00124B63
:106EB0009B185B8AA383637EDB09FCD1EB005B1B21
:106EC0009A000D4B9B189B8A2384637EDB09FCD1BF
:106ED000EB005D1BAA00084B9B185B782370002019
:106EE00070BDC04600C0FFBD30A200004D6C000068
:106EF000246080002060800014A2000070B50500AE
:106F00000C00431E9841C0B2C5220649064B984763
:106F10002C602000054B984701002000044B984747
:106F200070BDC04630A200004D6C0000B56D000081
:106F3000F56D00000268137802210B43DBB2137079
:106F400070470268137802218B4313707047026800
:106F5000537EDB09FCD19288120903331340032BC3
:106F600001D0022070470120FCE70368187E01234E
:106F7000184070470268137B02210B43DBB2137386
:106F8000537EDB09FCD170470268537EDB09FCD1DC
:106F9000508B80B27047006843780F2293431140B2
:106FA000194341707047000030B5046823691F25FC
:106FB000AB43294019432161637EDB09FCD10168A1
:106FC0000B69064803401202F820400102401A43B0
:106FD0000A614B7EDB09FCD130BDC046FFE0FFFFFC
:106FE000BFF34F8F034A044BDA60BFF34F8FC046A5
:106FF000FDE7C0460400FA0500ED00E010B583008F
:107000001B18580101380A21014B9847013010BD67
:10701000C998000083001818430164205843704742
:1070200010B5064B5A685A60054B9847054B984770
:10703000054B9847FF20054B984710BD0040004185
:1070400055750000997B0000BD7B00009172000027
:10705000C379DB09FCD1C379DB09FCD103789B0739
:1070600007D500230370C379DB09FCD1C379DB09A1
:10707000FCD101230370C379DB09FCD1C379DB099F
:10708000FCD18370412242700370C379DB09FCD1CB
:107090000020704770B505000C00431E9841C0B237
:1070A00049220449044B98472C602000034B984721
:1070B00070BDC04648A200004D6C00005170000039
:1070C0000268137802210B43DBB21370D379DB091A
:1070D000FCD170470268D379DB09FCD113785B08D7
:1070E00001201840704702681181D379DB09FCD177
:1070F00070470000224B5B78DB09FBD1204B5B78AB
:10710000DB09FBD11E4B1B789B070AD500221C4BC9
:107110001A701B4B5B78DB09FBD1194B5B78DB09E1
:10712000FBD10122164B1A70154B5B78DB09FBD1A2
:10713000134B5B78DB09FBD1114B00229A70402185
:1071400059605A618021C9049961DA611A78022173
:107150000A43D2B21A700A4B5B78DB09FBD1094BA8
:10716000102280215A50BFF34F8FBFF36F8F013130
:10717000FF315A501A60044B186000207047C04617
:107180000018004000E100E0AC00002070B582B0C3
:10719000264B1A69D9680A400192019A1A61244B58
:1071A0001868431E9841C0B2D2222249224B984708
:1071B00001256D422EE00139CEB2B0420ED8321810
:1071C0005210D1B2FF231340DB001C4A9B5CA34248
:1071D00003D0F0DA0131C8B2EFE716256B1C03D0FB
:1071E000134B1B68280098470122A240019B934340
:1071F00001930198124B9847013844B2631C02D0A6
:1072000001260020D9E7094B1A69D9680A40019282
:10721000019A1A61019B002B05D00198084B9847F1
:10722000013844B2EAE702B070BDC0460018004021
:10723000AC00002068A200004D6C000060A20000BD
:10724000519C0000002306E059000E4A895A0E4A5C
:1072500011810133DBB21C2BF6D9002307E0990022
:10726000084A5218D16B084A51600133DBB20B2B2C
:10727000F5D9054B0222FF325A61044A1A610020F7
:107280007047C04680A2000000040042FEFEFFFFDF
:10729000C3070AD50B4B802252009A608C229203BE
:1072A0005A60084B5B78DB09FBD1830709D5054B96
:1072B0000222FF329A60044A5A60024B5B78DB0973
:1072C000FBD17047000C004001030300037DDB0786
:1072D000FCD52023FF3303834908C161024B1A43C5
:1072E00092B202807047C04600A5FFFFF8B50400C7
:1072F0000F0016001D000120084043425841C0B253
:10730000C52252001549164B98477908237DDB07A3
:10731000FCD5144B2380237DDB07FCD52023FF33D2
:1073200023830A00002304E05700388002339BB215
:107330000132AB4208D2F75CB8B23E2BF4D8F01859
:10734000407800023843EFE7237DDB07FCD5E1619D
:10735000054B069A13439BB22380F8BDECA20000B4
:107360004D6C000044A5FFFF00A5FFFF70B50500B0
:107370000C0000281CD0104B99421BD00020462244
:107380000E490F4B98472C6162689E23134063603F
:107390000C4B1D600C4B202280215A50BFF34F8FA5
:1073A000BFF36F8F0131FF315A501A60002070BD5A
:1073B0000020E4E70120E2E700400041ECA20000E9
:1073C0004D6C0000B000002000E100E0402070475C
:1073D00080204001704770B54C0805692E7DF60786
:1073E000FBD52020FF302883C80707D501340120B2
:1073F00081430988090A1170012103E0002101E09D
:1074000002312C0099420BD2651C6400208880B2A6
:1074100050545C1EA142F3D24C1C000A1055EFE7F9
:1074200070BD0000F0B5DE4657464E464546E0B515
:10743000C5B0814616001D000C0048E05346990176
:1074400004AB5A18414440234846294FB84701230A
:107450009C46E2445346032BF0D94346E31A99096C
:107460003F22134002E001340136013D039A944269
:107470000DD8002D0BD030788A0104AFBC46624491
:10748000D05401333F221340EDD10131EBE702220A
:1074900041464B461869174B984700239A460EE021
:1074A0005346990104AB5A184144042300933C33DA
:1074B00048460069104FB84701239C46E2445346B2
:1074C000032BEDD92B19013B039A9A4209D2FF23D2
:1074D00022009A4390461700FF37039700239A46ED
:1074E000B8E745B03CBC90469946A246AB46F0BDD5
:1074F000D7730000CD720000ED720000890B0269A5
:107500000904090C01238B40108C18404342584158
:10751000C0B2704710B50A4B186803691A7DD207CC
:1075200004D50368002B00D0984710BD1A7D920740
:10753000FBD502221A754368002BF6D09847F4E772
:10754000B00000203823024AD05CC0B27047C04669
:1075500000040040064B1A7AD2B21A725A7AD2B29A
:107560005A729A7AD2B29A72DA7AD2B2DA727047D0
:107570000004004010B50400C3681B7ADB0706D581
:107580000368002B00D09847E36801221A7210BDEF
:1075900070B504000D00431E9841C0B2332210495B
:1075A000104B9847E56001232B80AB7ADB09FCD1B7
:1075B000E268937ADB09FCD180331380937ADB098C
:1075C000FCD1E268936920239361937ADB09FCD1B3
:1075D0000133E268D371044B1C60002070BDC046CB
:1075E0000CA300004D6C0000B400002010B5041E78
:1075F00020D0C368002B1BD001206A220E490F4BFC
:10760000984708220E4B1A60E26813690023136141
:10761000937ADB09FCD1E268937ADB09FCD1138809
:1076200002210B439BB21380937ADB09FCD110BD7E
:107630000020E2E70020E0E70CA300004D6C000012
:1076400000E100E0C268937ADB09FCD113885B0893
:1076500001201840704770470020704710B5024B5A
:107660001868024B984710BDB400002075750000E3
:10767000024B9C466044800AC0B2704700F8FFBDD0
:1076800010B58469237EDB0702D5A37DDB070FD409
:10769000237E9B0702D5A37D9B070ED4237E5B0729
:1076A00015D5628B37231A420CD00833638310BD83
:1076B0000123237503689847F9E70223237583683C
:1076C0009847F4E74368218DC9B29847EFE7237ED6
:1076D000DB09ECD080232376C3689847638B9BB289
:1076E0006383E4E7034B984200D07047024B196074
:1076F000FBE7C04600080042B800002010B5024B6E
:1077000098470930C0B210BD7176000010B50B4B20
:10771000984702000020002806D0094A09490020A5
:10772000094B9847002010BD83001B189900074B98
:10773000CB5C9A42F7D00130C0B2ECE77176000022
:107740005E02000074A300004D6C000024A3000042
:1077500070B50400384B9847E369DB071DD48300FC
:107760001B189A00354B9B185A681C231A40E36972
:107770009B07FCD123689B0709D5236802218B4313
:107780002360E3699B07FCD1E3699B07FCD40123D9
:1077900013432360E3699B07FCD1E369DB07FCD457
:1077A00083001B189A00254B9B185B682360E369D4
:1077B0009B07FCD183001B189A00204B9B189B68E9
:1077C0006360E3695B07FCD183001B189A001B4BC5
:1077D0009B185B689A040BD4C022D201134207D1D4
:1077E00083001B189A00154B9B189B89A38115E0F9
:1077F00083001B189A00114989188A89A389D20429
:10780000D20C5B0B5B031343A3818B7B07221A40D3
:10781000A3895203DB04DB0C1343A381074A8300D3
:107820001D18A9000D005118C97BA1735219127CB3
:107830003023E254002070BD0D77000024A3000027
:1078400070B582B004000D00E3699B07FCD1266887
:10785000760801231E402368022293432360E369D4
:107860009B07FCD101A80A4B9847E3699B07FCD40E
:10787000ADB2A58101A8074B984723680222934324
:10788000760033432360E3699B07FCD102B070BDEF
:107890007D6100008B61000070B582B004000D00B6
:1078A000E3699B07FCD12668760801231E40236804
:1078B000022293432360E3699B07FCD101A8184B84
:1078C0009847E3699B07FCD4022D21D022688023CE
:1078D0005B0413432360E3695B07FCD16B1E9D418E
:1078E000EDB263680F4A13406D031D436560E369A1
:1078F0005B07FCD101A80C4B9847236802229343F5
:1079000076001E432660E3699B07FCD102B070BD80
:107910002368064A13402360E3695B07FCD1DDE777
:107920007D610000FFDFFFFF8B610000FFFFFFFEB6
:1079300070B582B004000D00E3699B07FCD1266896
:10794000760801231E402368022293432360E369E3
:107950009B07FCD101A80F4B9847E3699B07FCD418
:107960006B1E9D41EDB2636840229343AD011D4300
:107970006560E3695B07FCD101A8074B9847236862
:107980000222934376001E432660E3699B07FCD1E5
:1079900002B070BD7D6100008B61000070B582B0E7
:1079A00004000E00E3699B07FCD125686D080123E4
:1079B0001D402368022293432360E3699B07FCD1A7
:1079C00001A80E4B9847E3699B07FCD46168072325
:1079D0009943334019436160E3695B07FCD101A817
:1079E000074B9847002D06D02368022213432360DB
:1079F000E3699B07FCD102B070BDC0467D61000009
:107A00008B61000070B506000C00431E9841C0B2A7
:107A1000C4221949194B98472000194B9847051E55
:107A200001D0280070BDB46131002000154B98478B
:107A30002000154B984743B2002B0ADB1F21014061
:107A400001228A408021114C6250BFF34F8FBFF357
:107A50006F8F002B07DB1F21014001228A40C021CC
:107A600049000A4C6250002BDBDB1F2318401E3BF1
:107A70008340064A1360D4E774A300004D6C0000F5
:107A800051770000E5760000FD76000000E100E09F
:107A90008269136802210B431360D3699B07FCD1F1
:107AA00070478269136802218B431360D3699B0777
:107AB000FCD1704710B58069014B984710BDC04696
:107AC0004178000010B58069014B984710BDC04651
:107AD0009978000010B58069014B984710BDC046E9
:107AE0003179000010B58069014B984710BDC04640
:107AF0009D790000836989B21985704783690122E5
:107B00009A757047836902229A75704770B50400B0
:107B10000D001600431E9841C0B2174A1749184B72
:107B20009847002D0BD0022D09D0012D18D0032D20
:107B30000FD1A369002E1CD080229A7509E0A36999
:107B4000002E07D101221A75A369002E05D1022249
:107B50001A7570BD01229A75F6E702229A75F8E748
:107B6000A369002E02D104221A75F2E704229A7545
:107B7000EFE780221A75ECE71E02000074A30000F4
:107B80004D6C000010B5024B1868024B984710BDB1
:107B9000B800002081760000074B06221A829A69FD
:107BA00002210A439A611A7F1D310A401A77024B5B
:107BB000DB68DB07FBD5704700080040024A936989
:107BC00002218B439361704700080040024B034A37
:107BD0005A6005221A60704710E000E0FFFFFF00C6
:107BE00010B5014B984710BDCD7B0000080E0BE08F
:107BF0000B4B0C4858609860094B1B68DB03FBD5A6
:107C0000094B9C4661441000421ED2B20028EFD1BD
:107C1000034B59609960024B1B68DB03FBD570472F
:107C200010E000E0FFFFFF00010000FF034B98425F
:107C300000D07047024B1960FBE7C04600200042AD
:107C4000BC00002070B505000469E36ADB0705D5B8
:107C50000123E3620368002B00D09847A36A1B0747
:107C600006D50823E3626B68002B01D028009847F3
:107C700070BD000010B50023002B01D0002010BD06
:107C80009A00D218D100054A8A58824202D00133A4
:107C9000DBB2F1E701484018F1E7C04608000020D8
:107CA00010B50023002B01D0002010BD9A00D2187F
:107CB0009100064A5218926A824202D00133DBB226
:107CC000F0E7024828304018EFE7C04608000020DF
:107CD000F8B507000C0008004D4B9847061E00D170
:107CE0008DE020004B4B9847051E00D18AE03C6197
:107CF000A368DB0714D4A3689B07FCD123689B0708
:107D000009D52368022293432360A3689B07FCD113
:107D1000A3689B07FCD401232360A3689B07FCD1C5
:107D2000A368DB07FCD4B3682360A3689B07FCD17E
:107D3000337B6371737BA377336923622B69E363BE
:107D4000A268354B1A42FBD1AB682364A3681B06BB
:107D5000FCD4AB6873626B79012B35D0002B06D055
:107D6000022B3AD0032B41D01C2040422BE0EB6881
:107D700073616364A268F0231B011A42FAD10223E3
:107D8000237139002000254B98470423EB56002B24
:107D90000BDB1F2213401E3A9A4013008022204919
:107DA0008B50BFF34F8FBFF36F8F0423EB56002B25
:107DB0002BDB1F2213401E3A9A401300C0225200B0
:107DC00017498B500020F8BDEB68B361A364A2682B
:107DD000F0231B011A42FAD1D1E7EB68F361E364A7
:107DE000A268F0231B011A42FAD1C8E7EB6833629C
:107DF0002365A268F0231B011A42FAD1BFE70A20CB
:107E00004042E0E70A204042DDE70020DBE7C046D1
:107E1000757C0000A17C0000FF0F7F002D7C00001E
:107E200000E100E00269136802210B4313609368CC
:107E30009B07FCD170470269136802218B431360D2
:107E400093689B07FCD1704770B50E00150004695C
:107E50002000094B984700280CD0E666A3685B0316
:107E6000FCD443791C339B001D51A268F023DB0333
:107E70001A42FAD170BDC046A17C00000269936825
:107E80009B07FCD113685B08012018407047002055
:107E90007047000010B5024B1868024B984710BDA0
:107EA000BC000020457C0000144BDB7BDB09FBD1D0
:107EB000124B1B889B0708D5104A138802218B435D
:107EC00013800E4BDB7BDB09FBD101220B4B1A80AD
:107ED0000A4BDB7BDB09FBD1084B08221A802832D6
:107EE0009A71074959815A739F321A731A8802216D
:107EF0008A430A4392B21A80002070470030004241
:107F00002630000010B5041E27D00368002B22D0B5
:107F100001204F221549164B98472268D379DB0977
:107F2000FCD11378DB091AD1D379DB09FCD11378A2
:107F30009B0717D4137804218B431370D379DB0983
:107F4000FCD1226853780F218B435370D379DB091E
:107F5000FCD1002010BD0020DBE70020D9E7112074
:107F60004042F7E711204042F4E7C04690A30000EA
:107F70004D6C000070B506000D001400002838D0CC
:107F80000368002B33D0012079223E493E4B9847AD
:107F90003668F379DB09FCD13378DB0900D068E07F
:107FA000F379DB09FCD133789B0765D42A000023E1
:107FB00020000021354CA047002960D1FA239B0204
:107FC00098424AD017D9FA235B03984249D02BD95B
:107FD000FA23DB03984248D0FA231B04984246D088
:107FE000FA239B0398423ED00D20404230E000200F
:107FF000CAE70020C8E7FA23DB01984229D009D854
:10800000FA235B01984219D0FA239B019842EBD1E5
:10801000012114E0FA231B0298421CD0FA235B02D0
:108020009842E1D104210AE0FA23DB02984216D0FB
:10803000FA231B039842D7D1072100E0002173786F
:108040000F2293430B437370F379DB09FCD10020BB
:1080500070BD0221F3E70321F1E70521EFE70621D7
:10806000EDE70821EBE70921E9E70A21E7E70B2122
:10807000E5E711204042EBE711204042E8E70D2000
:108080004042E5E790A300004D6C0000FD9B00001E
:1080900010B5041E14D00368002B0FD00120FA2263
:1080A0000849094B98472268137802210B43DBB239
:1080B0001370D379DB09FCD1002010BD0020EEE75E
:1080C0000020ECE790A300004D6C000010B5041EEA
:1080D00012D00368002B0DD001208C2252000749DA
:1080E000074B98472268A5231372D379DB09FCD18B
:1080F000002010BD0020F0E70020EEE790A3000074
:108100004D6C0000044B1B78022B00D070470322FB
:10811000014B1A70FAE7C046C0000020034B1B78E1
:10812000052B01D0014B1B787047C046C0000020D2
:1081300072B6034A53680133536062B67047C04653
:10814000C000002070B50F4B1B78062B15D00622FF
:108150000C4B1A700C4C002120000C4B984701214D
:1081600020000B4B98470023192206212000094DBF
:10817000A84700212000084B98470022014B5A7065
:1081800070BDC046440000206C010020416000002A
:108190001D610000496100001560000070B50B4CC6
:1081A000220008320223002109480A4DA8472389EA
:1081B0000948584309490A4B984743001B18DB00FC
:1081C000181AE0600023238170BDC046C000002063
:1081D0006C0100206D600000B5080000FF0F00007A
:1081E000DD990000F0B583B00F0016000193114C2B
:1081F000114A01212000114DA847114A00212000F9
:10820000A847104A02212000A847390020000E4B41
:108210009847310020000D4B9847019920000C4BE6
:1082200098470C4920000C4B984720000B4B98476F
:1082300003B0F0BD8001002005810000E56A000068
:108240006D8200001D8100008D6B0000BD6B000081
:10825000ED6B000015FB00005D6B00008D6A0000F7
:10826000014B58687047C046C000002000B583B07D
:108270001748184B9847002828D06B46D91D002373
:108280000B7001221248144B98470128F0D1134B70
:108290001B78042B16D0114B1B78052BE8D1104B03
:1082A0005B88FB2BE4D80E4A591C51800432694686
:1082B00007310978D1540B4B9847084B18610122BC
:1082C0001A75D5E70522054B1A70E4E703B000BD27
:1082D000800100201D6C000059650000C0000020D6
:1082E000E80200206182000010B50400014B9847AD
:1082F000001B10BD6182000010B5524B1B78DBB231
:10830000052B00D98BE09B004F4AD3589F464D4B1D
:1083100018694E4B9847312822D94D494A88043173
:108320004C484D4B9847474C022323704B4B984782
:10833000206115E0434B1869444B9847F423FF3301
:1083400098420DD93F4CF13BFF3B2370434B98477C
:10835000206105E03B4C00232370404B984720618F
:1083600010BD3F4B1B78022B0AD03E4B1B78002BD5
:10837000F6D0344C00232370384B98472061EFE748
:108380003448394B984772B6102238493848394B2F
:108390009847394B9847E8E72A4B18692B4B984781
:1083A00018281FD82F4B1B78002B1BD1254B1B7D6A
:1083B000002BD5D00022234B1A752A4A53885B081C
:1083C000DBB25370032BCBD910002C4B98470228FB
:1083D0000FD00328C4D11B4C002323701F4B984798
:1083E0002061BDE7174C002323701C4B9847206188
:1083F000B6E7174C21001B48214B98476378002BA8
:1084000006D0104C01232370144B98472061A7E736
:108410000C4C00232370114B98472061A0E7094CB6
:10842000042323700D4B9847206100232375084ACD
:108430001370537053800B4A002111705170538098
:108440008EE7C046C0000020A8A30000E98200001B
:1084500000040020800100202165000061820000EE
:1084600098000020E8020020B96A000028A400005B
:10847000007F0020319F0000E16F0000694C000088
:10848000794E000010B5084901230B62074A4A6281
:1084900028228B541831064C2000064B98472000A8
:1084A000054B984710BDC046C00000203181000038
:1084B000D0010020D567000099670000F8B50400DE
:1084C0000E001700164B1B78834214D0144B187003
:1084D000144D00212800144B984739002800134BF5
:1084E00098470023320021002800114CA0470021AA
:1084F0002800104B98472C230F4AD35C012B00D047
:10850000F8BD140008320133002106480B4DA8477E
:1085100002222C23E2540A4B98472063F0E7C0461E
:10852000440000206C010020416000001D6100003B
:108530004961000015600000C00000206D6000006F
:108540006182000070B52C23924AD35CDBB2012B10
:1085500000D1C6E0002B00D1D9E0022B00D010E101
:108560001389002B34D08B4B586B8B4B98470928C1
:1085700000D80DE1874B1B78042B00D008E1874B16
:108580005B78002B09D1834B38215A5C01325A5455
:108590001A89D96B8C466244DA637E4B00221A81B9
:1085A0007E4A0021517038229B5C022B18D97B4BEC
:1085B0009B78012B72D0002B31D0022B00D181E0AF
:1085C000744C00222C23E254754B98472063DFE063
:1085D000140000222C33E254714B98472063D7E0FB
:1085E0006C4C373A2C23E2546D4B984720636B4B0D
:1085F0009B78012B07D0022B0BD0012219210720D9
:10860000684B9847C4E0002218211820654B984712
:10861000BEE0012219210120624B9847B8E05D4B72
:10862000DB6B61485843614D6149A84706006148CA
:10863000801BFA24A40060435F49A8470100200082
:108640007043A84700230C2B07DCD9005B4A521863
:108650005268904201D20133F5E70C2B17DC002B56
:108660001ADD5D1E554AED0051194968DB00D4182A
:108670006468091B001B9C58AA58A21A64235A4319
:108680005C435043494B9847211A643900E04C49F8
:108690004C484D4B984793E70021F9E73D4BDB6B86
:1086A0004A4858434249414B9847494BC3186420B4
:1086B00058431821474B9847474BC1184748424BEE
:1086C00098477DE7334BDB6B374858433849374B86
:1086D0009847810009184900091841483A4B9847C2
:1086E0006EE72C4B186B2C4B9847632850D9FF2210
:1086F0002A4B1A70FE3A192106202A4B9847254C1E
:1087000000222C23E254264B9847206340E0214B63
:108710001B78042B3CD11F4B586B1F4B9847F423FD
:10872000FF33984234D91E4DA8471A4C606301228A
:108730002C23E254A84720630023E3633822A35488
:10874000164B9B78002B0AD0012B11D00022134B23
:108750009A70013219210720124B984718E0012224
:108760000E4B9A700022182118200E4B98470FE0EC
:1087700002220A4B9A70013A19210120094B9847AD
:1087800006E0044C00222C23E254054B984720635A
:1087900070BDC046C0000020E982000044000020F7
:1087A00061820000BD840000B5080000C998000087
:1087B000FD2F0000E40C0000983A0000C0A3000068
:1087C0007017000034020020BD4600001027000092
:1087D000F2E5FFFFDD990000C4090000E803002076
:1087E0000402002070B50D4D3E2229000C480D4BAF
:1087F0009847E8870C4C20000C4B98470600200057
:108800000B4B9847411E714340232A002000094C1E
:10881000A047002800D0FEE770BDC04654020020EB
:10882000FFFF00006947000050010020D1640000F4
:10883000F96400003964000070B5254C2000254B18
:10884000984705002000244B9847411E6943402368
:10885000224A2000224CA047002800D0FEE71F4CEF
:108860003E2221001F48204B9847E38F98422DD08D
:108870001A4C4022FF2120001C4B98477B23236089
:108880007A3BA386012222716371A3710523E371F0
:10889000174AA260174AE260174AA261174AE261CA
:1088A000174A2262174A62620022226162610A321A
:1088B00022850F3262858732A285134AE285C8225B
:1088C0006286C63A2286E386104B984770BDC04642
:1088D00050010020D1640000F9640000540200201F
:1088E000B9630000FFFF000069470000679F0000B8
:1088F000983A000038630000B20C00005C5E04008F
:10890000A8610000B80B00001A040000E587000011
:1089100010B5074B1B68002B08D00120A922054980
:10892000054B98470248054B984710BD0020F5E7D6
:1089300070010020789F00004D6C0000CD80000089
:1089400010B5174B1B68002B23D001206F2215494F
:10895000154B9847124CFA22802109022000134B34
:1089600098472368002B16D001208C220D490E4B0E
:1089700098470B4C20000E4B98472368002B0CD0D7
:108980000120A9220749084B98470548094B9847F9
:1089900010BD0020DAE70020E7E70020F1E7C0463D
:1089A00070010020789F00004D6C0000757F000072
:1089B00091800000CD80000070B5404B984772B6A2
:1089C0003F4B404A5A6040489860404B98470028C7
:1089D0006ED010223E493F483F4B98473F4B984747
:1089E00004223F4B1A603F4B98473F4B18700023BF
:1089F000012202219620C0013C4CA0473C4B1A6842
:108A00003C4B1A603C4A12685A603C4A12689A60B1
:108A10003B4A1268DA6080256D002A00002139483F
:108A2000394CA0472A0000213848A0473848394C23
:108A3000A0473948A0473948A0473948A047394896
:108A4000A0473948A047394B9847394B9847394A8E
:108A5000136C02210B431364374D2800374B9847A2
:108A6000374CA18D00222800364B9847208E364B7C
:108A70009847364B1860208D354B9847354B18601A
:108A80000022354B1A60354B5A81E18D1960E18E19
:108A900059601A8162B6324DA847324CA047324B1A
:108AA0009847A047A847A047304B9847A047F2E710
:108AB00010222F490748084B98478FE715410000BF
:108AC0004400002000FE010000FD0100595F00008D
:108AD00038A40000007F0020319F00004189000081
:108AE00004000020457500009C000020E581000086
:108AF0000CA080008800002040A0800044A08000DE
:108B000048A0800000040020679F0000E8020020C9
:108B100098020020A9460000B00200203402002084
:108B2000CC020020E803002004020020858400001D
:108B30003988000000080040340100202D66000044
:108B40005402002069660000698C000024010020A6
:108B5000758C000020010020C4050020E8080020DA
:108B6000F98200001189000041960000458500004F
:108B700048A400000A4B00229A61DA611A6110329F
:108B80009A7310329A731A8802210A4392B21A8099
:108B9000044B80221203C02149005A501A607047CA
:108BA0000030004200E100E0802109038023084AF0
:108BB000D150BFF34F8FBFF36F8F064A1388022146
:108BC0008B431380034BDB7BDB09FBD17047C04633
:108BD00000E100E00030004210B5214B9B7BDB063A
:108BE0003AD51F4B9A69102199731D4B9B7B9B06AD
:108BF00034D51B49CB69202088731949897BC90763
:108C000002D50120164988731549897B890706D545
:108C10001448418801314180022011498873002B9A
:108C20000BD010490988172907D80E4CC800201806
:108C300083600131218002230371002A0BD0094B8C
:108C40001B88172B07D80748D90041188A600133C1
:108C5000038001230B7110BD0022C6E70023CCE77F
:108C6000003000420005002010B5014B984710BDB0
:108C7000FD6F000010B5014B984710BD1570000046
:108C800070B5164C226A0023606A0021121A8B41CB
:108C900014001D1E19DD114EF0690021B269002378
:108CA000801A99410E4A00230E4EB04722002B0035
:108CB0000D4CA047002904DB0ED1FA239B009842FB
:108CC0000AD2FA208000002106E0002B01D1002A00
:108CD000E1D1FA208000002170BDC046540200207E
:108CE00010270000FD9B0000B59B0000F8B5002890
:108CF00025D015494C6A0025CA69002306000027C3
:108D0000921BBB4110001900104A0023104EB047BF
:108D100006000F000F4B984702000B00300039008F
:108D20000D4EB04724184D41002D09DB064BD86885
:108D300000239D4203DC01D1844200D82000F8BD0D
:108D400000240025F2E7C04654020020102700004E
:108D5000FD9B0000818C0000B59B0000F8B5A24B84
:108D60000A229B5E182B00DCDDE09F4B0022DA60BC
:108D70000121494219615A619A61D9611A625A62A4
:108D80009962DA621A6359639A63DA6319645A64FE
:108D9000002300E00133182B66DC93499800C018CB
:108DA00082008A1848320020125EC8688018C860A5
:108DB00009698A4201D28C490A618B4949698A4210
:108DC00001D989494A61884A9800C0188100511820
:108DD000C96C906940189061D269914201D2824A6F
:108DE000D161814A126A914201D97F4A11627E4A59
:108DF0009800C01881005118096D506A40185062DF
:108E0000926A914201D2784A9162774AD26A91423B
:108E100001D9754AD162744A9800C018810051186E
:108E2000496D106B40181063526B914201D26E4A2B
:108E300051636D4A926B914201D96B4A91636A4AC0
:108E40009800C01881005118896DD06B4018D0630C
:108E5000126C914201D2644A1164634A526C91428D
:108E600098D9614A516495E75F4C604D1921E068DB
:108E7000A8470700E0601921A069A847A06119214F
:108E8000606AA847060060621921206BA84720632A
:108E90001921E06BA847E063554BDB8D554A93429F
:108EA00051D922681100C831994212D952498A42D7
:108EB0000FD90D2F0DD8182E05D94D494979002904
:108EC00007D0182805D8484B193A1A6000221A8191
:108ED00026E0C8339A4212D2484B9A420FD8042F48
:108EE0000DD9642E05D8424B5B79002B07D064283E
:108EF00005D93D4B19321A6000221A8110E03C4B13
:108F00005B79002B10D03200083290420CD9364ADF
:108F10005268012A08D9344B023A5A6000221A8159
:108F20000022314B5A81F8BD002BF9D0083086421F
:108F3000F6D92D4B5B68122BF2D82B4A02335360C3
:108F400000231381ECE7284A12681900C8318A42CD
:108F500012D22B498A420FD80D2F0DD8182E05D9C1
:108F600023494979002907D0182805D81E4B193202
:108F70001A6000221A81D3E71100C831994211D931
:108F8000C82A0FD9042F0DD9642E05D8184B5B7948
:108F9000002B07D0642805D9134B193A1A60002218
:108FA0001A81BDE7124B5B79002B0DD032000832DD
:108FB000904209D90C4A5268012A05D90A4B023A53
:108FC0005A6000221A81ABE7002BA9D008308642F4
:108FD000A6D9054B5B68122BA2D8034A0233536013
:108FE000002313819CE7C046E8080020C9980000D0
:108FF00054020020720600003A070000C309000076
:10900000A9050000F0B5D6464F464646C0B58CB01F
:109010000190BE4B1E88BE4B186ABE4B9847BE4B94
:1090200098421CD8BA4B986CBA4B9847BA4B9842A6
:1090300022D8BA48BA4DA84707000400621E9441DE
:10904000E4B2B848A84703005A1E9341DBB2002F90
:1090500018D0002816D00222B34B1A6017E0AF4890
:10906000B24DA847B248A8470023B24A1380B24A7B
:109070001380B24A1380D5E7AA48AC4DA847B04840
:10908000A847D6E7234323D00322A74B1A60AD4B52
:109090001B68002B11D0AC4A1168AC4A91420CD924
:1090A000AB4A914209D8FA2292009A18914204D20E
:1090B000FA2292008A1893420ED3A34B1A68A14B4E
:1090C0001A6001200CB01CBC90469946A246F0BD27
:1090D0000422954B1A60DAE79A4B19609D489E4B23
:1090E00098478A4B5B88002B01D00220EAE79B4A15
:1090F0001388013313809A4BDB8D9846994B984522
:1091000008D90120974B984506D902239C46002791
:1091100000250FE00220F5E701239C46F7E7CB008E
:109120007A4CE3181B799C450DD18E4213DC032049
:10913000C8E70D00691C8E42F7DDEA00734B9B18EF
:109140001A799042EBD0022AF3D1ED006F4B5D19F2
:10915000AB68FF18EDE72822002102A8824B984750
:10916000794B1B68029300239C46002099466B1C98
:109170009E4266DD7B4A904546D9E900634A521813
:109180001279012A00D030E2604A51188968D8006B
:1091900012181279022A00D029E202355B4B1B1803
:1091A0009A68511A0800BF18019B9F4249D26F4B21
:1091B0009F4246D89142DAD26D4B9F42D7D90223C3
:1091C0009A46D4444B46FB1AB42292009342CED91D
:1091D000831F973AFF3A9342C9D8039B5A1C924681
:1091E000032AC4D85F49884524D944083C1BD100D0
:1091F00002AA8C500133DB0002AA91464B4458600E
:1092000053460393B946B2E7EA0040498A181279F7
:10921000022A00D0EDE1EA008A189268DC00091900
:109220000979012900D0E6E10235384B1B1901000C
:109230009868B8E744083C19591CC90002AA8C5028
:10924000D8E76346632B00DD63234A4A13804A4B09
:1092500008229B5E312B07DC0133474A1381039BB5
:10926000002B41D108202DE7434B0A229A5E182A91
:10927000F5DC14215143404B5B184833614619809B
:10928000039B002B1ED0049B0193142353433A4AA3
:10929000D218019BD364059B1365039B012B19D93D
:1092A000354B0A22995E069A019214224A439B1872
:1092B000019A5A65079A9A652F4A0A21535E01332B
:1092C0005381CCE714235A432B4B9B180022DA64BA
:1092D0001A65E2E7284B0A22995E14224A439B183A
:1092E00000225A659A65E7E7164A5268002A01D1BA
:1092F000144A5360134A526893423FD011498A6816
:1093000001328A60022A39DC0920DBE600050020F0
:10931000240B0020E98200001027000098020020A2
:10932000F5460000B002002004000020B346000013
:109330001C02002096020020C80200209402002097
:10934000EC01002008010020CC000020204E00008D
:10935000C7AF0000CC020020BD460000E4020020A0
:109360005402002072060000679F00003F9C00002E
:10937000CF0200004C020020E8080020A24A5360FF
:1093800000219160092B00D90923A04A13800023F2
:1093900016E05C1C9E489A00D318D900411804318D
:1093A000A3001B19DA00801804300B00020023CA46
:1093B00023C323CA23C323CA23C312681A6023000A
:1093C000122BE6DD924802A9BF239B00C3180A00B6
:1093D00032CA32C332CA32C332CA32C312681A60C6
:1093E0000368132B04D801330360132B00D804E166
:1093F000854AD368591CD160032B00D8FFE00021B7
:10940000D16014E0834B28224A4301204042D050CF
:109410009B1800225A609A60DA6018615A619A615A
:10942000DA6118002430027025331A7001310229E4
:10943000E8DD00226FE049423FE09800C018C40018
:109440007449091924310878013008700133022B5E
:1094500060DC91008918C8006D4909188968994233
:10946000F4D991008918C9180131C9006848411818
:1094700048689C00E418E50066494919CC6824183E
:10948000CC604968884202D962494919486099000C
:10949000C918CC005F496158884201D25D496050CB
:1094A000002A15DD541EA1000919C9180131C9008F
:1094B000574C61184968411ABDD49800C018C400BF
:1094C000544800198069884202D2524800198161CB
:1094D00091008918C9180131C9004D4841188C689C
:1094E0009800C018C5004B494919C8690019C861DE
:1094F00049698C4202D9474949194C619900C918F8
:10950000C8004449091809698C4296D24149091892
:109510000C6192E70132132A01DC002397E7002453
:10952000394B1C8200E00134022C35DC394A2823F7
:109530006343D518696888469F58CE1BAE60E868BB
:10954000354B984724352B78142BECD1334B9F4265
:10955000E9D9B845E7D3282262432E4B9B189A6974
:10956000A0235B009A42DED8C8235B019E42DAD872
:10957000022C01D10028D6D028236343254DED18B5
:109580002B00253301221A70254B984728621E4A6A
:10959000138A01331382C6E71B4B1B8A002B05D0AD
:1095A0001A1C092B00D909221E4B1A802523194A9F
:1095B000D35C002B07D01500D1681B481B4CA0477B
:1095C000E9691B48A047134B1A4A198B11804D2299
:1095D0009B5C002B16D00F4D696B1748134CA047AE
:1095E000696C1648A04700206CE504206AE5052058
:1095F00068E5062066E5072064E50A2062E50120AB
:1096000040425FE500205DE5080100209602002051
:10961000C4050020240B0020ED8C0000CF020000C8
:1096200061820000C802002098020020BD460000B0
:109630001C02002094020020B0020020EC01002057
:10964000F0B5DE46574680B587B07A4B1B78002BC5
:1096500000D0E1E0784B1B78042B04D007B00CBCA1
:1096600092469B46F0BD754B5869754B9847754BB4
:109670005B8E9842F2D3744B984701226D4B1A705F
:10968000724B98476D4B5861714C23689802C01A11
:109690007049714B984704ABD8806068142808D88B
:1096A000002836D08302181A6A496B4B984785B256
:1096B00000E00625002D2ED16420684B98470290CB
:1096C000674E00213000674B9847012304AA0632F9
:1096D00000213000644EB047644B984714220023A9
:1096E000634EB047634A01235B4212184B41002B83
:1096F00002D103D1502A01D95F480021514BDA68C9
:10970000FA239B009C4662445C4B9A4205D8002396
:1097100005E00025CEE75020CFE7584A0023584EF9
:10972000B047534F574A0023B8470390564A002387
:10973000B04700900191554CA047554B9847414B7D
:10974000998D5A8D5348544B98475248534B9847DC
:109750003A4B9B4699690020514B9A469847514B8A
:109760009847A04772B6C42200214F484F4B9847F4
:10977000C026F60580242401B4615B46D969002027
:10978000D047746143484A4B98474A4B984762B662
:10979000494A002300980199B8470600029C10E04E
:1097A00004AB9A1DDB88EB181380012304AA063250
:1097B00000212B482C4FB84721000020384B9847F8
:1097C000013E002E0CDB002DF6D01E4BDA8D3B4BFC
:1097D0009A42E5D904AB9A1DDB885B1B1380E4E752
:1097E0002A4B9847364B9847124E02233370174D39
:1097F000A847124C60610398324B984720620023BF
:109800003370A8476061236A002B00DC26E70B4A0F
:10981000536A0133536221E71E48254B9847254B75
:1098200098470022034B1A70084B9847034B586126
:1098300014E7C04654000020C000002008010020AA
:10984000E9820000540200205D8D0000618200006A
:10985000E8080020E40C0000C9980000FD6F00003B
:1098600074010020E961000021620000818C000089
:10987000B59B000080E9FFFFA8160000A08601004C
:10988000FD9B00001027000040420F0011890000DE
:10989000458100003401002069660000F165000088
:1098A000ED7B00009D81000000050020679F000007
:1098B0002D660000758B000000105E5F72060000D0
:1098C000A98B000005900000002243088B4274D34E
:1098D00003098B425FD3030A8B4244D3030B8B42B1
:1098E00028D3030C8B420DD3FF22090212BA030CBA
:1098F0008B4202D31212090265D0030B8B4219D39B
:1099000000E0090AC30B8B4201D3CB03C01A5241BA
:10991000830B8B4201D38B03C01A5241430B8B4202
:1099200001D34B03C01A5241030B8B4201D30B03EB
:10993000C01A5241C30A8B4201D3CB02C01A524112
:10994000830A8B4201D38B02C01A5241430A8B42D5
:1099500001D34B02C01A5241030A8B4201D30B02BE
:10996000C01A5241CDD2C3098B4201D3CB01C01AD8
:10997000524183098B4201D38B01C01A52414309E2
:109980008B4201D34B01C01A524103098B4201D3D0
:109990000B01C01A5241C3088B4201D3CB00C01A3D
:1099A000524183088B4201D38B00C01A52414308B5
:1099B0008B4201D34B00C01A5241411A00D20146DA
:1099C000524110467047FFE701B5002000F0F0F863
:1099D00002BDC0460029F7D076E7704703460B4327
:1099E0007FD4002243088B4274D303098B425FD398
:1099F000030A8B4244D3030B8B4228D3030C8B42C4
:109A00000DD3FF22090212BA030C8B4202D31212A9
:109A1000090265D0030B8B4219D300E0090AC30B7E
:109A20008B4201D3CB03C01A5241830B8B4201D32B
:109A30008B03C01A5241430B8B4201D34B03C01A14
:109A40005241030B8B4201D30B03C01A5241C30A8C
:109A50008B4201D3CB02C01A5241830A8B4201D3FD
:109A60008B02C01A5241430A8B4201D34B02C01AE7
:109A70005241030A8B4201D30B02C01A5241CDD28C
:109A8000C3098B4201D3CB01C01A524183098B42D7
:109A900001D38B01C01A524143098B4201D34B01C0
:109AA000C01A524103098B4201D30B01C01A524123
:109AB000C3088B4201D3CB00C01A524183088B42AA
:109AC00001D38B00C01A524143088B4201D34B0093
:109AD000C01A5241411A00D2014652411046704705
