:10400000F023002025410000214100002141000053
:1040100000000000000000000000000000000000A0
:10402000000000000000000000000000214100002E
:1040300000000000000000002141000021410000BC
:10404000214100002141000021410000E5660000FF
:10405000616200009D6500002141000021410000D7
:10406000214100000D6C00002141000021410000B1
:10407000214100000000000000000000C56C0000AD
:1040800021410000214100002141000021410000A8
:10409000214100000000000000000000214100005C
:1040A0002141000021410000214100002141000088
:1040B0000000000010B5064C2378002B07D1054BFB
:1040C000002B02D0044800E000BF0123237010BD84
:1040D0001800002000000000847F0000084B10B58D
:1040E000002B03D00749084800E000BF07480368D9
:1040F000002B00D110BD064B002BFBD09847F9E7F1
:10410000000000001C000020847F0000847F00006D
:104110000000000010B5014B984710BD4944000055
:10412000FEE70000F8B5234A234B9A4209D0224B00
:10413000204A03E011681960043304321F498B429E
:10414000F8D31F4B02E000221A6004331D4A934249
:10415000F9D31D4AFF211D4B8B439360FD399023FA
:104160005B001B4AD1501B4AD3780325AB43022482
:104170002343D370D3780C27BB4308263343D37033
:10418000154B987B30229043202210439873997BE3
:10419000B943314399739A7BAA4322439A730F4AD6
:1041A000516880230B4353600D4B98470D4B984744
:1041B000FEE7C046847F00000000002018000020B9
:1041C00018000020F003002000ED00E00040000097
:1041D0000070004100500041004800410040004193
:1041E000AD7A0000E575000010B5084A93692021FA
:1041F0000B439361064A074B5A80074B98470200CE
:1042000006490748074B984710BDC04600040040C8
:1042100004410000000C0040E16600000014004072
:104220004C01002089590000F0B5C64600B5C023F6
:10423000DB0598460823424653601F4B1F4A9A628B
:10424000C0210906996243201A5C0124A446A243B6
:1042500001273A43D2B21A5412381A5C0F26324060
:1042600010252A43D2B21A54402240464260144AD2
:104270009A62996246201A5CA2433A43D2B21A5417
:104280003234185D0F2290433843C0B21855713252
:10429000404642600B4A9A6299624722995C6046A6
:1042A00081433943C9B299541A5D32402A43D2B28C
:1042B0001A5504BC9046F0BD00440041080000407F
:1042C0004000004080000040044A116A80235B02E5
:1042D0000B431362024A034B5A80704700040040AC
:1042E0001E400000000C004010B5054B9847054BE0
:1042F0009847002204490548054B984710BDC04621
:10430000C94200002942000000400042E8000020AD
:10431000C1540000024AD36904210B43D3617047A2
:104320000004004010B5034B984703490348044B71
:10433000984710BD1543000000400041CC0000200C
:10434000A9560000044A136A04210B431362034A6E
:10435000034B5A807047C0460004004014400000E0
:10436000000C004030B50F4B4422995C0125A94355
:1043700001242143C9B299543220195C353A914342
:1043800003221143C9B2195445215A5CAA4322435E
:10439000D2B25A541A5C36390A4030210A43D2B29A
:1043A0001A5430BD0044004110B582B0064B984706
:1043B000002300931033054A05490648064CA047E0
:1043C000064B984702B010BD454300003400002062
:1043D00000080042FC000020255C0000654300004E
:1043E00010B50248024B984710BDC04610E000E0EF
:1043F0007D560000044A936910210B439361034AE0
:10440000034B5A807047C04600040040034100003F
:10441000000C004010B5064B984748220549012082
:10442000054B98470548064B0360064B984710BD5F
:10443000F54300003C7B0000815E0000EC000020A2
:1044400000100040D96C000070B5154B9847C02291
:10445000D20580235B0053619360124B124999622D
:10446000C02424069C624825595D0120814359558A
:1044700080210901516191600C4A9A629C624B2132
:104480005A5C82435A540A4B98470A4B98470A4B46
:1044900098470A4B98470A4B98470A4B984770BD74
:1044A000316200000044004100010040000800406B
:1044B000E942000025430000A9430000E143000059
:1044C000E941000015440000002801D0FF230375D6
:1044D000704710B5002817D0037D052B01D90023A4
:1044E0000375037D042B01D900230AE05A1C0275D1
:1044F0009B00195008E05A1C940024589B001C5043
:104500001300032BF7DD016110BD000010B500287A
:1045100025D0017DFF2907D0FE2909D005290BD917
:1045200000230375104802E0002303750F4810BDF7
:10453000002303750E48FAE7002912D0012902D0A2
:104540000023002205E00068F1E79C0024581219BE
:1045500001338B42F9DB1000064B9847E7E706482A
:10456000E5E70020E3E7C04683969800819698002F
:1045700082969800197700000100FFFF30B50025F2
:104580000CE040080133DBB2072B06D8C407F8D58E
:104590004008064C604080B2F4E70135954203DAEA
:1045A0004B5D58400023EFE730BDC04601A0FFFF40
:1045B0000022002305E003210B439BB24000C0B260
:1045C0000132072A08DC9B009BB241B20029F2DBD2
:1045D00001210B439BB2F1E71800704710B5104B57
:1045E00002001A409A4202D0FF23180010BD002199
:1045F000002305E001221343DBB2800080B20131C9
:104600000729F2DC5B00DBB2820B9203C024240298
:10461000A242EFD08024E401A242EED0FF23E4E7DF
:1046200055550000F0B583B0070001914378012B88
:1046300003D80120404203B0F0BD8088234B984747
:10464000FA2802D001204042F5E70126204C0DE077
:1046500064080133DBB2072B06D8E207F8D56008FF
:104660001C4C4440A4B2F4E70136F6B27B789E427B
:1046700017D235007300FB189888144B9847FB2815
:104680000FD07300FB189888104B9847FC2808D06F
:104690006B00FB1898880D4B984780B2444000236C
:1046A000D9E7019B002B0FD07B789E4202D30120DB
:1046B0004042C0E77600BF19B888044B9847FB28F2
:1046C00002D001204042B6E72000B4E7DD450000FB
:1046D000FFFF000001A0FFFF70B5050044787C2CAF
:1046E00010D87D2C01D901200DE0631C4370080017
:1046F000054B984764002C19A0806B8802336B80AF
:10470000012000E0002070BDB145000070B505003B
:104710000C009F290BD9A021064B9847002808D0F0
:1047200021006031C9B22800024B984701E0014BDB
:10473000984770BDD946000010B543788B4201D828
:10474000002010BD490040188088044B9847002382
:10475000A02282425B41D8B2F3E7C046DD450000AB
:1047600070B504000D000B784278934201D3FF200E
:1047700070BD5B00C31898880F4B9847A02801D9DB
:10478000FF20F5E72B785A1C2A705B00E318988805
:10479000094B9847A028EBD12B786278934201D33C
:1047A000FF20E5E75A1C2A705B00E418A088024B42
:1047B00098476038C0B2DBE7DD450000F8B504007B
:1047C0000E00151E4ED000292DD00978437899424D
:1047D0002FD2264B9847002831D000232B6000278A
:1047E00031782000214B9847002833D03100200039
:1047F0001F4B98470F2302009A43D3B29F2B24DC10
:104800002B689A00D21853000209D2B29B182B6071
:104810000F22104009281FDC9A00D3185A001018E4
:1048200028600137DCE701235B42136002277F42E7
:1048300010E001235B42136003277F420AE001235B
:104840005B422B6004277F4204E001235B422B6024
:1048500005277F423800F8BD01235B422B60062705
:104860007F42F7E701277F42F4E7C046394700005F
:1048700061470000F0B5CE4600B582B001900E0051
:10488000171E994628D0002929D0002313700978D3
:104890004378994226D2154B9847002801D000242E
:1048A00009E00324644212E03C1931000198104BE6
:1048B000984720702C00651C4D4505DA3178019829
:1048C0000A4B98470028EFD13B1900221A702000AC
:1048D00002B004BC9146F0BD01246442F7E7012414
:1048E0006442F4E702246442F1E7C046394700001D
:1048F00061470000F0B5CE4600B586B001901600C5
:10490000234B9847002838D0002E1BD01024002CB1
:1049100025DD002E21D0013C1E4B99460A21300096
:104920009847CDB21C4F0A213000B8470A21C8472A
:104930000901C9B2294302AB195564213000B847B7
:104940000600E4E700210198144B9847002801D0A5
:10495000012517E003256D4214E0002500E0002545
:104960000F2C0FD80135661C02AB195D01980B4B5B
:104970009847002804D03400F2E702256D4201E098
:1049800003256D42280006B004BC9146F0BDC04628
:10499000D946000025780000197700000D47000077
:1049A00070B50500161E11D00B4B9847002810D08B
:1049B0000024315D002907D001342800074B9847B7
:1049C0000028F6D103246442200070BD0124644213
:1049D000FAE702246442F7E7D94600000D470000D9
:1049E000F0B5C64600B582B00190171E984636D085
:1049F000244B9847002835D0002622E00134E4B249
:104A0000A519A84203DDBA5D7B5D9A42F6D0032C5E
:104A100004D8B95D9F2919D9022C17D9FD21019815
:104A2000184B9847002820D021000198164B984732
:104A3000002820D0B95D0198134B984700281DD05D
:104A40002E004046464512DA0124D9E7751C01982C
:104A50000D4B98470028F3D10620404207E0012083
:104A6000404204E00220404201E00320404202B004
:104A700004BC9046F0BD04204042F8E705204042C7
:104A8000F5E7C046D94600000D47000070B584B078
:104A900005004488002C00D1E6E0F92C07D900235A
:104AA0000370437043800020DFE0013CA4B2002C7F
:104AB00012D02A7955231340552B0DD06E88002E25
:104AC000F3D0281D013E691D32006F4B9847B2B2EA
:104AD0006A8052086A70E8E7002C03D10020C4E025
:104AE000013CA4B2012C12D9A888684B9847FA2837
:104AF0000DD06E88002EF3D0281D013E691D3200B6
:104B0000614B9847B2B26A8052086A70E8E7002C9D
:104B100000D1ACE06608E30700D5AAE0042E00D877
:104B2000A9E001220F236B441A700F236B441B78FA
:104B30009AB296421CD95B00EB189888534B984761
:104B4000FC2815D00F236B441B785B00EB1898886A
:104B50004E4B9847FF2805D00F226A441378013343
:104B60001370E2E700232B706B706B8000207CE0F9
:104B70000F236B441B789E4200D87EE001220F2356
:104B80006B441A7004E00F226A44137801331370E7
:104B90000F236B441B789AB2964210D95B00EB1836
:104BA00098883A4B9847FB2809D00F236B441B7811
:104BB0005B00EB189888354B9847FC28E3D10F230E
:104BC0006B441B789AB2964205D800232B706B7009
:104BD0006B80032049E05B00EB1898882B4B9847CB
:104BE000FB28F2D10F2169440B7801330B700023AD
:104BF000029302AA2800264B9847002805DC0023D0
:104C00002B706B706B8003202FE001212800214B5B
:104C10009847029B984205D000232B706B706B80E5
:104C2000042022E00F21694401230B70002301932B
:104C300001AA2800164B9847002805DC00232B709A
:104C40006B706B80032010E0019A002A17D0124B82
:104C500019680A234B4302339A4212D000232B7067
:104C60006B706B80052000E0002004B070BD002058
:104C7000FBE70120F9E70120F7E70120F5E7022033
:104C8000F3E70220F1E7C046077B0000DD450000A6
:104C9000BD4700002546000080010020F0B5DE463B
:104CA00057464E464546E0B58FB005000C00002340
:104CB0000D930B704B704B80C24B1A6893009B187E
:104CC0005A000232FA212000BF4B98470B21694459
:104CD00001230B7001225242BC4B1A60BC4A2800CF
:104CE000BC4B9847002829DDB94B1B68002B2BD102
:104CF0006E88760800239B460B236B441B789AB280
:104D0000964200D853E35B00EB189888B24B984763
:104D1000FC2800D14BE30B226A441378591C117014
:104D20005B00EB189888AC4B98475F30C3B25E2BA2
:104D300000D938E39800A94B1B589F460822A34B83
:104D40001A600120404253E39E4A1268002ACFD0E5
:104D500091008A18510002319942C9D009229B4B17
:104D60001A600220404243E30DAA0B216944280047
:104D7000984B9847002802DD1322944B1A60984AFA
:104D8000A1212000904B98470028B5DC06228F4BCC
:104D90001A60B1E70222A22120008B4B984700281D
:104DA000AADC0622894B1A60A6E78E4AA3212000BE
:104DB0008D4B984700289FDA0622844B1A609BE7A8
:104DC0008A4AA4212000804B9847002894DC0622C0
:104DD0007E4B1A6090E701227C4B1A608CE701221F
:104DE0007A4B1A6088E70122784B1A6084E7012227
:104DF000764B1A6080E70122744B1A607CE701222F
:104E0000724B1A6078E70DAA0B2169442800714B98
:104E10009847002806DD6B4B9B8E032B0FD9112280
:104E20006A4B1A60674B9A69C3212000664B98470A
:104E3000002800DD60E70622644B1A605CE76C48DE
:104E40006C4B9847002803D05E4BDB69984203D82F
:104E500012225E4B1A60E5E75A4B9B699842E1D0FB
:104E6000584B986101239B46DCE70DAA0B2169444E
:104E70002800584B9847002806DD524B9B8E032B89
:104E80000FD91122514B1A604E4BDA69C421200010
:104E90004D4B9847002800DD2EE706224B4B1A6049
:104EA0002AE75348534B9847002803D0454B1B6AC9
:104EB000984203D81222454B1A60E5E7414BDB6963
:104EC0009842E1D03F4BD86101239B46DCE70DAA15
:104ED0000B21694428003F4B9847002806DD394BD9
:104EE0009B8E032B0FD91122384B1A60354B1A6A4F
:104EF000AE212000344B9847002800DDFCE6062256
:104F0000324B1A60F8E63A483A4B9847002803D1EA
:104F100012222E4B1A60E9E72A4B1B6A9842E5D011
:104F2000284B186202225A6201239B46DEE70122C7
:104F3000264B1A60E0E60122244B1A60DCE60122CF
:104F4000224B1A60D8E60122204B1A60D4E60122D7
:104F50001E4B1A60D0E60DAA0B21694428001D4B98
:104F60009847002802DD1322184B1A60174B5A6825
:104F7000AC212000144B9847002800DDBCE6062237
:104F8000124B1A60B8E60122104B1A60B4E60DAA63
:104F90000B21694428000F4B9847002802DD13229B
:104FA0000A4B1A601448134B98470200AF212000A7
:104FB000054B9847002800DD9EE60622034B1A6049
:104FC0009AE6C04680010020F5480000000000205D
:104FD00044000020BD470000DD450000587B000074
:104FE00002000100D47C0000A1490000050001007E
:104FF000C00100200D450000D80200200DAA0B21A1
:1050000069442800CE4B9847002802DD1322CD4B7F
:105010001A60CC4B1A68B0212000CB4B984700286F
:1050200004DD01225242C74B1A6065E60622C54BD9
:105030001A6061E60122C34B1A605DE6282303AAC9
:105040000B2169442800C14FB84700283FDDC04B01
:105050009B8E012B0ED01122BA4B1A6003AAB121EC
:105060002000BC4B9847002800DB45E60622B54BE4
:105070001A6041E600230D93002100E0013103ABEB
:105080005A5C002A0CD01300303BDBB2092BF5D858
:105090000D9B9800C01843009A18303A0D92EDE726
:1050A000AB4B1A680D9B9A42D8D0A94A13600023D3
:1050B000237063706380126893009B185A00023259
:1050C000FA212000A04B984701239B46C6E703AB7B
:1050D000A14A1188198092789A70022399469F4BB1
:1050E0001F0016E04B46062B1AD0994B18689C4BB4
:1050F0009A46390098470A219A4B9847303103ABBA
:105100004A4699540A213800D047070001239C469B
:10511000E1444B46082BE5DD002203AB5A729DE7C4
:105120002F2203AB49465A54F0E710238E4A04322B
:10513000B22120008D4FB847002800DDDCE50622B3
:10514000804B1A60D8E501227E4B1A60D4E50B2211
:105150007C4B5A60093A844B1A75CDE57C4B9A79A1
:10516000B5212000784B9847002800DDC4E50622D1
:10517000744B1A60C0E50122724B1A60BCE5012233
:10518000704B1A60B8E501226E4B1A60B4E501223B
:105190006C4B1A60B0E501226A4B1A60ACE50DAAAF
:1051A0000B2169442800664B9847002802DD132232
:1051B000644B1A606E486F4B98470200BD21200077
:1051C000614B9847002800DD96E506225D4B1A608A
:1051D00092E50DAA0B2169442800594B98470028F5
:1051E00002DD1322574B1A606348624B9847020056
:1051F000BE212000544B9847002800DD7CE50622A4
:10520000504B1A6078E501224E4B1A6074E501227A
:105210004C4B1A6070E501224A4B1A606CE5012282
:10522000484B1A6068E50122464B1A6064E501228A
:10523000444B1A6060E50122424B1A605CE50DAAFE
:105240000B21694428003E4B9847002802DD1322B9
:105250003C4B1A60444B9A69C92120003A4B98474D
:10526000002803DD0022404B9A6145E50622354BBC
:105270001A60F7E70122334B1A603DE50DAA0B21B6
:10528000694428002E4B9847002808DD304B9A8E41
:105290006B469B8E9A420FD911222A4B1A602C4BD7
:1052A0009A8ECB212000284B9847002800DD23E56B
:1052B0000622244B1A601FE59A42F0D0244A9386B6
:1052C00001239B46EBE701221E4B1A6014E50122E5
:1052D0001C4B1A6010E501221A4B1A600CE5274A94
:1052E000A4212000184B9847002800DD04E5062281
:1052F000144B1A6000E50122124B1A60FCE40122F3
:10530000104B1A60F8E401220E4B1A60F4E40122FB
:105310000C4B1A60F0E401220A4B1A60ECE4012203
:10532000084B1A60E8E40122064B1A60E4E401220B
:10533000044B1A60E0E40122024B1A60DCE4C04630
:10534000BD47000000000020F5480000754800003F
:1053500080010020A1490000DC7C0000A086010043
:10536000197700002578000044000020E149000082
:10537000C00100200D45000068010020050001006B
:105380000023019301AA0B2169442800244B98476C
:10539000002800DDB0E40322224B1A60ACE41522A1
:1053A000204B1A60A8E402221E4B1A60A4E45B465C
:1053B000002B24D11C4B9A69002A23D1194B1A685F
:1053C000531C07D0B0212000184B984701225242AD
:1053D000144B1A6000212000154B98470200FB2156
:1053E0002000124B9847FC212000124B98470420C4
:1053F0000FB03CBC90469946A246AB46F0BD0E4B62
:105400009847D7E7C9212000084B9847002803DDBB
:105410000022054B9A61D1E70622024B1A60F7E79A
:10542000BD4700000000002044000020F5480000B7
:1054300025460000D94600005974000010B588B018
:10544000010020236A461948194CA047002829D199
:10545000184B009A9A4201D0002024E0019B022BB5
:1054600001D000201FE0144B069A9A4201D0002080
:1054700019E0124B059A9A4201D0002013E08023D4
:105480005B00029A9A4201D000200CE0FE23DB0070
:10549000039A9A4201D0002005E0049B402B02D1E0
:1054A000012000E0002008B010BDC046CC00002064
:1054B000F556000078563412214365870500010037
:1054C00070B504000D0000280DD0002909D001207E
:1054D00039220649064B984729002000054B98477A
:1054E00070BD0020F4E70020F2E7C046E07C000039
:1054F000815E00003161000070B504000D00431EA4
:105500009841C0B24E220449044B9847290020001C
:10551000034B9847002070BDE07C0000815E0000D6
:105520006961000070B504000D00431E9841C0B2CF
:1055300059220449044B984729002000034B9847FF
:10554000002070BDE07C0000815E000077610000FB
:10555000F8B5CE46474680B506000D009046994600
:1055600000281AD0002A1AD04B46002B19D100204F
:1055700067221C491C4FB847340030001B4B98472A
:105580000100060048461A4B984748424841C0B2BD
:1055900069221449B847002709E00020E8E7002005
:1055A000E6E70120E4E7BF19BFB2B94515D92000ED
:1055B000104B9847290020000F4B98470028F9D03E
:1055C000290020000D4B98474346D855012EEAD9B3
:1055D0007B1C000A4246D054E5E738000CBC9046DC
:1055E0009946F8BDE07C0000815E00008361000008
:1055F000F9790000A96100009F610000BD61000011
:1056000070B504000D00431E9841C0B282220449C7
:10561000044B984729002000034B9847002070BD99
:10562000E07C0000815E0000CB610000F8B5040062
:105630000D0016001F00431E9841C0B29922054973
:10564000054B98473B00320029002000034CA0473F
:105650000020F8BDE07C0000815E0000DD610000FC
:10566000EFF31083036072B6BFF35F8F7047BFF331
:105670005F8F036883F310887047000010B5024BFA
:105680001860024B984710BD60000020896C000034
:1056900010B54369002B00D0984710BD10B5836941
:1056A000002B00D0984710BD70B504000D000028F5
:1056B00013D000290FD0012038220949094B9847FF
:1056C00029002000084B9847002803D1074B23608E
:1056D000074B636070BD0020EEE70020ECE7C0469A
:1056E000FC7C0000815E0000F56300009156000024
:1056F0009D560000F0B5C64600B504000E0015002A
:105700001F00002820D0002A20D0002B20D100200C
:1057100056221349134B98472000134B9847804655
:105720002000124B984743465843B04212D3BB194E
:10573000984212D33B002A00310020000C4CA047B5
:10574000002004BC9046F0BD0020E1E70020DFE728
:105750000120DDE70E204042F3E70E204042F0E753
:10576000FC7C0000815E000055640000596400006C
:105770005F640000F0B5C64600B504000D001600D9
:105780001F00002826D0002A26D0002B26D100207A
:105790006A221849184B98472000184B98478046B2
:1057A0002000174B984743465843A84218D37B190B
:1057B000984218D329002000124B9847002815D191
:1057C0003B003200290020000F4CA047002004BC01
:1057D0009046F0BD0020DBE70020D9E70120D7E7A5
:1057E0000E204042F3E70E204042F0E711204042F5
:1057F000EDE7C046FC7C0000815E000055640000BF
:105800005964000085650000AD64000010B5040017
:10581000431E9841C0B2F7220349044B9847200029
:10582000034B984710BDC046FC7C0000815E000021
:105830005564000010B50400431E9841C0B2802298
:1058400052000349034B98472000034B984710BD73
:10585000FC7C0000815E00005964000070B504000B
:105860000D00160000280ED000290AD00120342295
:105870000649074B984723683200290020009847C3
:1058800070BD0020F3E70020F1E7C046147D000062
:10589000815E000070B504000D00160000280ED0D7
:1058A00000290AD001203D220649074B984763682A
:1058B000320029002000984770BD0020F3E7002047
:1058C000F1E7C046147D0000815E0000F8B506686F
:1058D000002E02D0330000250CE0104B984718E052
:1058E0009F68BC466444A41A01348F68BC420BD242
:1058F0001D001B68002B07D05C689442F0D8A41AE6
:105900009F68BC466444F0E7B34203D02800044BD0
:105910009847F8BD014B9847FBE7C046A15E0000E1
:10592000CD5E0000F8B50500446903695E1C0661A0
:10593000037EDB0702D4037E9B070AD52B7E02225F
:105940001343DBB22B76F8BD6F69E36820009847FC
:105950003C00002CF7D06368F31AA2689342F2D39C
:105960002F0014373800064B9847237C012BEBD1CE
:105970006660320021003800024B9847E4E7C046D9
:10598000D55E0000CD58000070B504000D00002861
:1059900012D000290ED001203B220849084B98471D
:1059A00029002000074B984700232361064B236002
:1059B000002070BD0020EFE70020EDE7287D00000B
:1059C000815E0000196600002559000010B5040032
:1059D000431E9841C0B253220749084B9847200004
:1059E000074B9847002804D12000064B9847002019
:1059F00010BD11204042FBE7287D0000815E0000C1
:105A0000CD6600007566000070B582B004000D0020
:105A1000002826D0002922D001207A221F49204BBD
:105A20009847237E01221343DBB2237626001436E7
:105A3000290030001B4B9847002814D123696B6064
:105A4000226929003000184B9847237E0122934396
:105A50002376237E9B0712D4002002B070BD002065
:105A6000DBE70020D9E7237E0122934323767E32B1
:105A70000A4900200A4B984712204042EDE701A84E
:105A80000A4B9847237E0222934323762000084B3B
:105A9000984701A8074B98470020DEE7287D0000C3
:105AA000815E0000895E0000CD5800006156000054
:105AB000DF6600006F56000010B50838002303634E
:105AC000436A002B00D0984710BD10B5083800235A
:105AD0000363C36A002B00D0984710BD10B50400C3
:105AE0002C30044B9847236A083C002B01D020003F
:105AF000984710BD815F000070B504000E001500CE
:105B000000281DD000291DD0002A1DD100203C22D4
:105B1000FF321049104B98474423E25A0833E35AA6
:105B20009A4213D1A6644C23E5520022083BE2526C
:105B3000433B236320000830084B9847280070BD82
:105B40000020E4E70020E2E70120E0E71C204042DB
:105B5000F5E7C046407D0000815E0000856B0000D7
:105B600070B504000200083A4423D35A4C21525A1B
:105B700093420DD00200016C083A5D1C442015527E
:105B8000C95C2000044B98472000044B984770BD27
:105B9000034B9847FBE7C0467D6B0000856B000018
:105BA0008D6B0000F0B585B004000D0016000028D4
:105BB00017D0002917D0002A17D10020AC2252009C
:105BC0001249134B984703A8124B984734342000CE
:105BD0000194114B9847070003A8104B98470024E5
:105BE0000BE00020EAE70020E8E70120E6E70134C7
:105BF000A4B2691801980A4B98472100A74201D91D
:105C0000B442F4D3200005B0F0BDC046407D000092
:105C1000815E000061560000C15F00006F56000009
:105C2000355F0000F8B504000D0016001F000028C5
:105C300026D0002926D0002A26D0002B26D10020ED
:105C40003A221549154B9847200034303A0031006C
:105C5000134B984700281BD1200008302900114B16
:105C6000984700280BD1104B6360104B2360104BFA
:105C7000A360104BE360104B2361104B6361F8BDD0
:105C80000020DDE70020DBE70020D9E70120D7E78F
:105C90000D204042F3E7C046407D0000815E0000D9
:105CA000E95E00008D6A0000A55B0000F95A000063
:105CB000615B0000DD5A0000B95A0000CB5A0000B9
:105CC00010B50400431E9841C0B261220449054B3F
:105CD000984720000830044B9847002010BDC0466C
:105CE000407D0000815E0000196B000010B50400CB
:105CF000431E9841C0B26C220449054B98472000CE
:105D00000830044B9847002010BDC046407D00007D
:105D1000815E00002B6B000070B505000E001400C2
:105D2000431E9841C0B283221649174B9847012E53
:105D300011D0002E04D0022E18D00D20404209E0D0
:105D4000AC62621E9441E2B22800083001210F4B80
:105D50009847002070BD6C62621E9441E2B2280038
:105D600008300221094B98470020F3E7EC62621EDD
:105D70009441E2B2280008300321044B98470020E8
:105D8000E8E7C046407D0000815E0000956B0000A2
:105D900070B504000D00431E9841C0B2AA22054907
:105DA000054B9847200008302900044B98470020F5
:105DB00070BDC046407D0000815E00003D6B00006C
:105DC00070B504000D00431E9841C0B2CB220549B6
:105DD000054B9847200008302900044B98470020C5
:105DE00070BDC046407D0000815E00004D6B00002C
:105DF00070B504000D00431E9841C0B2D62205497B
:105E0000054B9847200008302900044B9847002094
:105E100070BDC046407D0000815E00005D6B0000EB
:105E200070B504000D00431E9841C0B2E12205493F
:105E3000054B9847200008302900044B9847002064
:105E400070BDC046407D0000815E00006D6B0000AB
:105E500010B50400431E9841C0B20222FF3205492A
:105E6000054B984720003430044B9847431E984117
:105E700010BDC046407D0000815E0000C15F000093
:105E8000002800D100BE70470368002B03D08B426E
:105E900003D01B68F9E7002070470120FCE70000F1
:105EA00070B504000D00064B984701235840C0B25E
:105EB00039220449044B984723682B60256070BD44
:105EC000895E0000607D0000815E000003680B6059
:105ED000016070470368002B03D01A680260180045
:105EE00070470020FCE7000070B504000E001500AC
:105EF000002812D0002912D0002A12D10020282216
:105F00000A490B4B98476B1E2B420CD16360002350
:105F1000A360E3602660002070BD0020EFE7002052
:105F2000EDE70120EBE70D204042F5E7807D000022
:105F3000815E000070B504000D00002816D0002915
:105F400012D0012040220C490C4B9847A368E2680C
:105F50009A420DD0626813402268D35C2B70A3680C
:105F60000133A360002070BD0020EBE70020E9E7CB
:105F70000A204042F7E7C046807D0000815E0000B5
:105F800070B504000D00431E9841C0B251220A4969
:105F90000A4B98476368E26813402268D554E36867
:105FA000A2689A1A61688A4201D9591AA16001331C
:105FB000E360002070BDC046807D0000815E00006F
:105FC00010B50400431E9841C0B267220349044B38
:105FD0009847E068A368C01A10BDC046807D0000E5
:105FE000815E00000020704710B50B4B98470200FF
:105FF0000020002806D07F2208490020084B98473F
:10600000002010BDC3001B1A9900064BCB5C9A42BE
:10601000F7D00130C0B2ECE7E55F0000C07D0000C2
:10602000815E0000A47D000070B504000D003A4BB5
:10603000C01843425841C0B294223849384B98475F
:10604000384B1A68D2081202E023DB001A403649A6
:106050000B6849684901DB0E0B43FF210B401A43D3
:10606000637EDB09FCD123789B0704D500232370D2
:10607000637EDB09FCD101232370637EDB09FCD145
:106080002285EA00521B9100284B5B189A786270B7
:10609000DA78A2701A79E2701A7C2275DA8AA28400
:1060A0001A8BE284997E2A22A154DB88A380637E26
:1060B000DB09FCD1EB005B1B9A001C4B9B18DB68D7
:1060C0002361637EDB09FCD1EB005B1B9A00174B5D
:1060D0009B181B7A2372637EDB09FCD1EB005B1BF0
:1060E0009A00124B9B185B8AA383637EDB09FCD169
:1060F000EB005B1B9A000D4B9B189B8A2384637EED
:10610000DB09FCD1EB005D1BAA00084B9B185B78F8
:106110002370002070BDC04600C0FFBDC07D0000E0
:10612000815E00002460800020608000A47D00006B
:1061300070B505000C00431E9841C0B2C522064947
:10614000064B98472C602000054B98470100200023
:10615000044B984770BDC046C07D0000815E0000C2
:10616000E95F0000296000000268137802210B43F8
:10617000DBB2137070470268137802218B431370EF
:1061800070470268537EDB09FCD192881209033301
:106190001340032B01D0022070470120FCE7036865
:1061A000187E0123184070470268137B02210B43BD
:1061B000DBB21373537EDB09FCD170470268537E58
:1061C000DB09FCD1508B80B27047006843780F2206
:1061D00093431140194341707047000030B5046883
:1061E00023691F25AB43294019432161637EDB09E5
:1061F000FCD101680B69064803401202F8204001F7
:1062000002401A430A614B7EDB09FCD130BDC04617
:10621000FFE0FFFFBFF34F8F034A044BDA60BFF389
:106220004F8FC046FDE7C0460400FA0500ED00E0D0
:1062300010B5064B5A685A60054B9847054B98476E
:10624000054B9847FF20054B984710BD0040004183
:10625000DD650000216C0000656C00001963000022
:1062600070B582B0264B1A69D9680A400192019A2A
:106270001A61244B1868431E9841C0B2D2222249A9
:10628000224B984701256D422EE00139CEB2B04233
:106290000ED832185210D1B2FF231340DB001C4A33
:1062A0009B5CA34203D0F0DA0131C8B2EFE71625B8
:1062B0006B1C03D0134B1B68280098470122A24097
:1062C000019B934301930198124B9847013844B2C4
:1062D000631C02D001260020D9E7094B1A69D9684E
:1062E0000A400192019A1A61019B002B05D0019886
:1062F000084B9847013844B2EAE702B070BDC04687
:106300000018004064000020E07D0000815E000075
:10631000D87D0000597A0000C3070AD50B4B8022B4
:1063200052009A608C2292035A60084B5B78DB091A
:10633000FBD1830709D5054B0222FF329A60044A3C
:106340005A60024B5B78DB09FBD17047000C0040C0
:1063500001030300037DDB07FCD52023FF33038308
:106360004908C161024B1A4392B202807047C0468D
:1063700000A5FFFFF8B504000F0016001D00012066
:10638000084043425841C0B2C52252001549164B3D
:1063900098477908237DDB07FCD5144B2380237DA8
:1063A000DB07FCD52023FF3323830A00002304E00E
:1063B0005700388002339BB20132AB4208D2F75CFF
:1063C000B8B23E2BF4D8F018407800023843EFE71B
:1063D000237DDB07FCD5E161054B069A13439BB295
:1063E0002380F8BDF87D0000815E000044A5FFFF1A
:1063F00000A5FFFF70B505000C0000281CD0104B55
:1064000099421BD0002046220E490F4B98472C6121
:1064100062689E23134063600C4B1D600C4B20226E
:1064200080215A50BFF34F8FBFF36F8F0131FF317F
:106430005A501A60002070BD0020E4E70120E2E716
:1064400000400041F87D0000815E000068000020EF
:1064500000E100E04020704780204001704770B5A7
:106460004C0805692E7DF607FBD52020FF302883D8
:10647000C80707D50134012081430988090A117032
:10648000012103E0002101E002312C0099420BD2EE
:10649000651C6400208880B250545C1EA142F3D277
:1064A0004C1C000A1055EFE770BD0000F0B5DE4649
:1064B00057464E464546E0B5C5B0814616001D001C
:1064C0000C0048E05346990104AB5A18414440235C
:1064D0004846294FB84701239C46E2445346032BC4
:1064E000F0D94346E31A99093F22134002E00134F0
:1064F0000136013D039A94420DD8002D0BD030781F
:106500008A0104AFBC466244D05401333F22134099
:10651000EDD10131EBE7022241464B461869174B9A
:10652000984700239A460EE05346990104AB5A1847
:106530004144042300933C3348460069104FB84758
:1065400001239C46E2445346032BEDD92B19013B12
:10655000039A9A4209D2FF2322009A4390461700D9
:10656000FF37039700239A46B8E745B03CBC9046F6
:106570009946A246AB46F0BD5F640000556300003B
:1065800075630000890B02690904090C01238B4023
:10659000108C184043425841C0B2704710B50A4BA6
:1065A000186803691A7DD20704D50368002B00D050
:1065B000984710BD1A7D9207FBD502221A754368D1
:1065C000002BF6D09847F4E7680000203823024AF1
:1065D000D05CC0B27047C04600040040064B1A7A37
:1065E000D2B21A725A7AD2B25A729A7AD2B29A72D3
:1065F000DA7AD2B2DA7270470004004010B50400B3
:10660000C3681B7ADB0706D50368002B00D09847C8
:10661000E36801221A7210BD70B504000D00431E1C
:106620009841C0B233221049104B9847E5600123CE
:106630002B80AB7ADB09FCD1E268937ADB09FCD1D1
:1066400080331380937ADB09FCD1E26893692023BD
:106650009361937ADB09FCD10133E268D371044B77
:106660001C60002070BDC046187E0000815E0000E6
:106670006C00002010B5041E20D0C368002B1BD076
:1066800001206A220E490F4B984708220E4B1A60D0
:10669000E268136900231361937ADB09FCD1E26895
:1066A000937ADB09FCD1138802210B439BB2138040
:1066B000937ADB09FCD110BD0020E2E70020E0E77F
:1066C000187E0000815E000000E100E0C268937A5D
:1066D000DB09FCD113885B08012018407047704724
:1066E0000020704710B5024B1868024B984710BD48
:1066F0006C000020FD650000024B9C466044800A4F
:10670000C0B2704700F8FFBD10B58469237EDB0777
:1067100002D5A37DDB070FD4237E9B0702D5A37D83
:106720009B070ED4237E5B0715D5628B37231A4255
:106730000CD00833638310BD012323750368984789
:10674000F9E70223237583689847F4E74368218DAE
:10675000C9B29847EFE7237EDB09ECD0802323768C
:10676000C3689847638B9BB26383E4E7034B98420B
:1067700000D07047024B1960FBE7C046000800429A
:106780007000002010B5024B98470930C0B210BD10
:10679000F966000010B50B4B984702000020002856
:1067A00006D0094A09490020094B9847002010BD2E
:1067B00083001B189900074BCB5C9A42F7D001303D
:1067C000C0B2ECE7F96600005E020000807E0000C7
:1067D000815E0000307E000070B50400384B9847A1
:1067E000E369DB071DD483001B189A00354B9B1807
:1067F0005A681C231A40E3699B07FCD123689B0756
:1068000009D5236802218B432360E3699B07FCD1F0
:10681000E3699B07FCD4012313432360E3699B07CF
:10682000FCD1E369DB07FCD483001B189A00254BDD
:106830009B185B682360E3699B07FCD183001B18EE
:106840009A00204B9B189B686360E3695B07FCD14F
:1068500083001B189A001B4B9B185B689A040BD48F
:10686000C022D201134207D183001B189A00154B96
:106870009B189B89A38115E083001B189A0011497E
:1068800089188A89A389D204D20C5B0B5B0313435A
:10689000A3818B7B07221A40A3895203DB04DB0C04
:1068A0001343A381074A83001D18A9000D00511846
:1068B000C97BA1735219127C3023E254002070BDB1
:1068C00095670000307E000070B582B004000D00B6
:1068D000E3699B07FCD12668760801231E402368E4
:1068E000022293432360E3699B07FCD101A80A4B72
:1068F0009847E3699B07FCD4ADB2A58101A8074B7B
:106900009847236802229343760033432360E36968
:106910009B07FCD102B070BD615600006F560000AD
:1069200070B582B004000D00E3699B07FCD12668B6
:10693000760801231E402368022293432360E36903
:106940009B07FCD101A8184B9847E3699B07FCD42F
:10695000022D21D0226880235B0413432360E36966
:106960005B07FCD16B1E9D41EDB263680F4A13407B
:106970006D031D436560E3695B07FCD101A80C4B07
:10698000984723680222934376001E432660E369FA
:106990009B07FCD102B070BD2368064A13402360F8
:1069A000E3695B07FCD1DDE761560000FFDFFFFF15
:1069B0006F560000FFFFFFFE70B582B004000D00AF
:1069C000E3699B07FCD12668760801231E402368F3
:1069D000022293432360E3699B07FCD101A80F4B7C
:1069E0009847E3699B07FCD46B1E9D41EDB2636839
:1069F00040229343AD011D436560E3695B07FCD111
:106A000001A8074B984723680222934376001E4350
:106A10002660E3699B07FCD102B070BD615600009F
:106A20006F56000070B582B004000E00E3699B074A
:106A3000FCD125686D0801231D4023680222934381
:106A40002360E3699B07FCD101A80E4B9847E369DB
:106A50009B07FCD461680723994333401943616065
:106A6000E3695B07FCD101A8074B9847002D06D0CE
:106A70002368022213432360E3699B07FCD102B021
:106A800070BDC046615600006F56000070B506002C
:106A90000C00431E9841C0B2C4221949194B9847B3
:106AA0002000194B9847051E01D0280070BDB46125
:106AB00031002000154B98472000154B984743B2F2
:106AC000002B0ADB1F21014001228A408021114C4A
:106AD0006250BFF34F8FBFF36F8F002B07DB1F2177
:106AE000014001228A40C02149000A4C6250002B1B
:106AF000DBDB1F2318401E3B8340064A1360D4E7AC
:106B0000807E0000815E0000D96700006D67000094
:106B10008567000000E100E08269136802210B43F1
:106B20001360D3699B07FCD1704782691368022107
:106B30008B431360D3699B07FCD1704710B5806904
:106B4000014B984710BDC046C968000010B5806968
:106B5000014B984710BDC0462169000010B58069FF
:106B6000014B984710BDC046B969000010B5806957
:106B7000014B984710BDC046256A0000836989B261
:106B800019857047836901229A75704783690222CB
:106B90009A75704770B504000D001600431E9841A9
:106BA000C0B2174A1749184B9847002D0BD0022D39
:106BB00009D0012D18D0032D0FD1A369002E1CD0B0
:106BC00080229A7509E0A369002E07D101221A7567
:106BD000A369002E05D102221A7570BD01229A7593
:106BE000F6E702229A75F8E7A369002E02D1042283
:106BF0001A75F2E704229A75EFE780221A75ECE71E
:106C00001E020000807E0000815E000010B5024B75
:106C10001868024B984710BD7000002009670000FB
:106C20000E4A116A090C136A9B0F9B0709040C4852
:106C300001400B4302210B43136293690B439361A1
:106C4000137F1D310B401377044BDB681B07FBD50B
:106C5000024A136A80210B43136270470008004008
:106C60000000FF0F024A936902218B439361704732
:106C700000080040024B034A5A6005221A60704720
:106C800010E000E0FFFFFF0010B5014B984710BD7A
:106C9000756C000070B505000469E36ADB0705D573
:106CA0000123E3620368002B00D09847A36A1B0707
:106CB00006D50823E3626B68002B01D028009847B3
:106CC00070BD000010B5024B1868024B984710BD0C
:106CD00074000020956C000010B5041E27D00368D6
:106CE000002B22D001204F221549164B98472268CD
:106CF000D379DB09FCD11378DB091AD1D379DB090D
:106D0000FCD113789B0717D4137804218B4313709D
:106D1000D379DB09FCD1226853780F218B43537060
:106D2000D379DB09FCD1002010BD0020DBE7002077
:106D3000D9E711204042F7E711204042F4E7C0466E
:106D40009C7E0000815E000070B506000D001400FE
:106D5000002838D00368002B33D0012079223E4927
:106D60003E4B98473668F379DB09FCD13378DB0971
:106D700000D068E0F379DB09FCD133789B0765D458
:106D80002A00002320000021354CA047002960D1B3
:106D9000FA239B0298424AD017D9FA235B03984200
:106DA00049D02BD9FA23DB03984248D0FA231B049D
:106DB000984246D0FA239B0398423ED00D20404291
:106DC00030E00020CAE70020C8E7FA23DB01984240
:106DD00029D009D8FA235B01984219D0FA239B01E4
:106DE0009842EBD1012114E0FA231B0298421CD0F7
:106DF000FA235B029842E1D104210AE0FA23DB0284
:106E0000984216D0FA231B039842D7D1072100E0FD
:106E1000002173780F2293430B437370F379DB09DE
:106E2000FCD1002070BD0221F3E70321F1E7052129
:106E3000EFE70621EDE70821EBE70921E9E70A2161
:106E4000E7E70B21E5E711204042EBE71120404244
:106E5000E8E70D204042E5E79C7E0000815E0000EF
:106E6000057A000010B5041E14D00368002B0FD063
:106E70000120FA220849094B984722681378022119
:106E80000B43DBB21370D379DB09FCD1002010BDBA
:106E90000020EEE70020ECE79C7E0000815E000011
:106EA00010B5041E12D00368002B0DD001208C22D7
:106EB00052000749074B98472268A5231372D379DC
:106EC000DB09FCD1002010BD0020F0E70020EEE738
:106ED0009C7E0000815E0000044B1B78022B00D0DA
:106EE00070470322014B1A70FAE7C0467800002071
:106EF000034B1B78052B01D0014B1B787047C04614
:106F00007800002072B6034A53680133536062B6BA
:106F10007047C04678000020F0B583B00F0016001F
:106F20000193114C114A01212000114DA847114A2B
:106F300000212000A847104A02212000A84739005C
:106F400020000E4B9847310020000D4B98470199C7
:106F500020000C4B98470C4920000C4B9847200010
:106F60000B4B984703B0F0BDFC000020D96E000029
:106F7000195D0000A16F0000F16E0000C15D00000E
:106F8000F15D0000215E00002BF60000915D000025
:106F9000C15C0000014B58687047C0467800002073
:106FA00000B583B01748184B9847002828D06B4687
:106FB000D91D00230B7001221248144B9847012859
:106FC000F0D1134B1B78042B16D0114B1B78052BDB
:106FD000E8D1104B5B88FB2BE4D80E4A591C51803A
:106FE0000432694607310978D1540B4B9847084B56
:106FF000986001221A73D5E70522054B1A70E4E761
:1070000003B000BDFC000020515E00009558000058
:1070100078000020D8010020956F000010B5040012
:10702000014B9847001B10BD956F000010B5524BE7
:107030001B78DBB2052B00D98BE09B004F4AD3585D
:107040009F464D4B98684E4B9847312822D94D4961
:107050004A8804314C484D4B9847474C02232370D3
:107060004B4B9847A06015E0434B9868444B9847BA
:10707000F423FF3398420DD93F4CF13BFF3B237083
:10708000434B9847A06005E03B4C00232370404BE6
:107090009847A06010BD3F4B1B78022B0AD03E4B97
:1070A0001B78002BF6D0344C00232370384B9847C4
:1070B000A060EFE73448394B984772B61022384940
:1070C0003848394B9847394B9847E8E72A4B986836
:1070D0002B4B984718281FD82F4B1B78002B1BD100
:1070E000254B1B7B002BD5D00022234B1A732A4A39
:1070F00053885B08DBB25370032BCBD910002C4BA9
:10710000984702280FD00328C4D11B4C00232370BA
:107110001F4B9847A060BDE7174C002323701C4B02
:107120009847A060B6E7174C21001B48214B9847B1
:107130006378002B06D0104C01232370144B984722
:10714000A060A7E70C4C00232370114B9847A06068
:10715000A0E7094C042323700D4B9847A06000233F
:107160002373084A1370537053800B4A0021117027
:10717000517053808EE7C04678000020B47E000036
:107180001D700000F0020020FC0000205D5800008F
:10719000956F000058000020D8010020ED5C000031
:1071A000347F0000007F0020F57A000015620000A7
:1071B0008D4A00009D4C000010B5084901238B61E9
:1071C000074ACA6120228B541031064C2000064B1E
:1071D00098472000054B984710BDC0467800002016
:1071E000056F00004C010020095A0000CD59000035
:1071F000F8B504000E001700154B1B78834214D01D
:10720000134B1870134D00212800134B9847390079
:107210002800124B98470023320021002800104C10
:10722000A047002128000F4B984724230E4AD35C27
:10723000012B00D0F8BD140026320133002105488F
:107240000A4DA84702222423E254094B9847F1E74C
:1072500008000020E800002025550000015600002D
:107260002D560000F9540000780000205155000010
:10727000956F000070B52423654AD35CDBB2002B08
:1072800008D0022B32D000212423614AD154614B13
:10729000984770BD5E4B1B78042BFAD15C4B986A03
:1072A0005D4B9847F928F4D95A4DA847584CA0622D
:1072B00001222423E254A8470023E3623022A3548E
:1072C000564B5B78042B08D12F3A544B5A7000224E
:1072D00018211820524B9847DBE704224F4B5A7075
:1072E000033A192107204E4B9847D2E7484BD88CD8
:1072F000002818D0464A3021535C0133DBB2535486
:10730000D16A8C466044D062022B13D9434B5B7820
:10731000012B24D0042B34D0002124233C4AD15407
:107320003C4B9847B5E700212423394AD154394BC7
:107330009847AEE701212423D154364B9847374B69
:107340005B78012B05D1002218211820344B984777
:107350009FE7012219210720314B984799E7314BCC
:1073600058433149314B9847314BC3186420584337
:107370001821304B9847304BC1183048304B984754
:10738000CAE7304B58432849284B984701002E4CF8
:1073900020002B4B984720002C4B98472C4B5C6AC5
:1073A000E207121B5300FA2292009446634498426B
:1073B00002D2FA23DB00181A254DEB69AA69991845
:1073C00049082D6A5B195B086432904203D90A228E
:1073D000204B1A60A0E76218904203D907221D4B88
:1073E0001A6099E7091B884208D31A4B1B68063BB1
:1073F000012B91D90722174B1A608DE7984203D3CE
:107400000622144B1A6087E70822124B1A6083E7A2
:1074100078000020956F00001D700000080000201B
:10742000F171000010270000FD2F00001977000007
:10743000F2E5FFFF2D780000C4090000D80200200B
:10744000D3440000B5080000C00100200D45000035
:10745000800100200400002070B50D4D3E2229005F
:107460000C480D4B9847E8870C4C20000C4B984774
:10747000060020000B4B9847411E714340232A0011
:107480002000094CA047002800D0FEE770BDC04690
:1074900080010020FFFF00007D450000CC0000209F
:1074A0000D580000355800007557000070B5184C95
:1074B0002000184B984705002000174B9847411EA5
:1074C00069434023154A2000154CA047002800D0EE
:1074D000FEE7124C3E2221001248134B9847E38FDF
:1074E000984213D00D4C4022FF2120000F4B9847AB
:1074F0007B2323607A3BA3860D4BA3610D4BE36195
:10750000073B2362022363620B4B984770BDC04662
:10751000CC0000200D5800003558000080010020EC
:10752000F5560000FFFF00007D4500002B7B0000AA
:107530007E040000F70300005974000010B5074BEB
:107540001B68002B08D00120A9220549054B98474C
:107550000248054B984710BD0020F5E7EC000020DD
:107560003C7B0000815E0000A16E000010B5174B4F
:107570001B68002B23D001206F221549154B98471B
:10758000124CFA22802109022000134B98472368ED
:10759000002B16D001208C220D490E4B98470B4C26
:1075A00020000E4B98472368002B0CD00120A92205
:1075B0000749084B98470548094B984710BD0020DC
:1075C000DAE70020E7E70020F1E7C046EC00002002
:1075D0003C7B0000815E0000496D0000656E00008C
:1075E000A16E000070B52C4B984772B62B4B2C4AFD
:1075F0005A602C4898602C4B9847002845D01022A0
:107600002A492B482B4B98472B4B984709222B4B49
:107610001A602B4B98472B4B187000230122022134
:107620009620C001284CA047284B1A68284B1A60A6
:10763000284A12685A60284A12689A60274A1268D3
:10764000DA6080256D002A0000212548254CA047DE
:107650002A0000212448A0472448254CA04725485B
:10766000A0472548A047254B9847254B9847254AD2
:10767000136C02210B43136462B6234B9847234CCF
:10768000A047234B9847A047F7E710222149084815
:10769000084B9847B8E7C046154100000800002095
:1076A00000FE010000FD01003D540000447F000089
:1076B000007F0020F57A00006D75000004000020B6
:1076C000CD6500005C000020196F00000CA0800058
:1076D0004800002040A0800044A0800048A0800016
:1076E000F00200202B7B0000D8010020C001002008
:1076F000C9440000D802002068010020B9710000D0
:10770000AD740000000800402D7000003D750000C1
:1077100075720000547F0000002243088B4274D32E
:1077200003098B425FD3030A8B4244D3030B8B4282
:1077300028D3030C8B420DD3FF22090212BA030C8B
:107740008B4202D31212090265D0030B8B4219D36C
:1077500000E0090AC30B8B4201D3CB03C01A52418C
:10776000830B8B4201D38B03C01A5241430B8B42D4
:1077700001D34B03C01A5241030B8B4201D30B03BD
:10778000C01A5241C30A8B4201D3CB02C01A5241E4
:10779000830A8B4201D38B02C01A5241430A8B42A7
:1077A00001D34B02C01A5241030A8B4201D30B0290
:1077B000C01A5241CDD2C3098B4201D3CB01C01AAA
:1077C000524183098B4201D38B01C01A52414309B4
:1077D0008B4201D34B01C01A524103098B4201D3A2
:1077E0000B01C01A5241C3088B4201D3CB00C01A0F
:1077F000524183088B4201D38B00C01A5241430887
:107800008B4201D34B00C01A5241411A00D20146AB
:10781000524110467047FFE701B5002000F0F0F834
:1078200002BDC0460029F7D076E7704703460B43F8
:107830007FD4002243088B4274D303098B425FD369
:10784000030A8B4244D3030B8B4228D3030C8B4295
:107850000DD3FF22090212BA030C8B4202D312127B
:10786000090265D0030B8B4219D300E0090AC30B50
:107870008B4201D3CB03C01A5241830B8B4201D3FD
:107880008B03C01A5241430B8B4201D34B03C01AE6
:107890005241030B8B4201D30B03C01A5241C30A5E
:1078A0008B4201D3CB02C01A5241830A8B4201D3CF
:1078B0008B02C01A5241430A8B4201D34B02C01AB9
:1078C0005241030A8B4201D30B02C01A5241CDD25E
:1078D000C3098B4201D3CB01C01A524183098B42A9
:1078E00001D38B01C01A524143098B4201D34B0192
:1078F000C01A524103098B4201D30B01C01A5241F5
:10790000C3088B4201D3CB00C01A524183088B427B
:1079100001D38B00C01A524143088B4201D34B0064
:10792000C01A5241411A00D20146524110467047D6
:107930005DE0CA0F00D04942031000D340425340DB
:1079400000229C4603098B422DD3030A8B4212D39B
:10795000FC22890112BA030A8B420CD389019211CD
:107960008B4208D3890192118B4204D389013AD00A
:10797000921100E08909C3098B4201D3CB01C01ADF
:10798000524183098B4201D38B01C01A52414309F2
:107990008B4201D34B01C01A524103098B4201D3E0
:1079A0000B01C01A5241C3088B4201D3CB00C01A4D
:1079B000524183088B4201D38B00C01A5241D9D265
:1079C00043088B4201D34B00C01A5241411A00D2E6
:1079D0000146634652415B10104601D34042002BE2
:1079E00000D54942704763465B1000D3404201B561
:1079F000002000F005F802BD0029F8D016E7704716
:107A00007047C046F0B5CE46474615042D0C2E00F3
:107A100080B50704140C3F0C9946030C7E435D436C
:107A2000674363437F19340CE4199C46A54203D98C
:107A300080235B029846C4444B465143434336047B
:107A4000360C250C24046544A41959184919200042
:107A50000CBC90469946F0BD10B50023002802D01A
:107A600000F004F8431C180010BDC0464142084015
:107A70001C2101231B04984201D3000C10391B0A5E
:107A8000984201D3000A08391B09984201D3000922
:107A9000043902A2105C401A7047C0461B1C1D1D11
:107AA0001E1E1E1E1F1F1F1F1F1F1F1F70B500261B
:107AB0000C4D0D4C641BA410A64209D1002600F009
:107AC00051FA0A4D0A4C641BA410A64205D170BDA0
:107AD000B300EB5898470136EEE7B300EB589847F0
:107AE0000136F2E7707F0000707F0000707F0000B9
:107AF000747F0000002310B59A4200D110BDCC5C09
:107B0000C4540133F8E710B5884202D98B18984263
:107B100008D300239A4207D0CC5CC4540133F9E760
:107B20008B5C8354013AFBD210BD03008218934250
:107B300000D1704719700133F9E700002E2E2F682D
:107B4000616C2F696E636C7564652F68616C5F771B
:107B500064742E6800000000684D0000944D000021
:107B6000AA4D0000C04D0000D64D0000DE4D0000C3
:107B70002E4F0000364F00003E4F0000464F0000E1
:107B80004E4F0000564F0000864F0000CE4E0000C2
:107B90008E4F0000FC4F00003C5000002A510000B6
:107BA000465100004E5100005C510000765100002B
:107BB0007E5100008E51000086510000A653000047
:107BC0008E510000965100009E510000D2510000DD
:107BD0000652000016520000E64D0000F64D00006F
:107BE000064E00006A4E00001E52000026520000A1
:107BF0002E520000365200003E5200007452000027
:107C00007C520000EE4D0000FE4D0000D6520000F8
:107C1000C6520000CE5200000E5200003450000048
:107C2000A6530000A6530000A6530000A653000070
:107C3000A6530000A6530000A6530000A653000060
:107C4000A6530000A6530000A6530000A653000050
:107C5000A6530000DE520000F6520000FE52000063
:107C6000065300000E530000165300001E53000080
:107C7000265300002E53000036530000A653000088
:107C8000A6530000A6530000A6530000A653000010
:107C9000A6530000A6530000A6530000A653000000
:107CA000A6530000A6530000A6530000A6530000F0
:107CB000A6530000A6530000A6530000A6530000E0
:107CC00080530000A6530000A6530000A6530000F6
:107CD0009E530000455A54656368000045530000F8
:107CE0002E2E2F68616C2F7372632F68616C5F6139
:107CF00064635F73796E632E630000002E2E2F681D
:107D0000616C2F7372632F68616C5F666C6173685E
:107D10002E6300002E2E2F68616C2F7372632F6804
:107D2000616C5F696F2E63002E2E2F68616C2F735C
:107D300072632F68616C5F74696D65722E630000F9
:107D40002E2E2F68616C2F7372632F68616C5F75C4
:107D5000736172745F6173796E632E63000000005B
:107D60002E2E2F68616C2F7574696C732F7372637C
:107D70002F7574696C735F6C6973742E63000000F7
:107D80002E2E2F68616C2F7574696C732F7372635C
:107D90002F7574696C735F72696E6762756666656C
:107DA000722E6300000201000000000400000000C9
:107DB00007190000000000000000000000000000A3
:107DC0002E2E2F68706C2F6164632F68706C5F615A
:107DD00064632E630000000006000000160000002F
:107DE0002E2E2F68706C2F6569632F68706C5F652D
:107DF00069632E63000000002E2E2F68706C2F6EBA
:107E0000766D6374726C2F68706C5F6E766D6374E0
:107E1000726C2E63000000002E2E2F68706C2F7283
:107E200074632F68706C5F7274632E6300000000CF
:107E30000000000004001040400003002BF600008A
:107E40000000000000000000000000000000000032
:107E50000000000000000000000000000000000022
:107E60000000000000000000000000000000000012
:107E70000000000000000000000000000000000002
:107E80002E2E2F68706C2F736572636F6D2F687064
:107E90006C5F736572636F6D2E6300002E2E2F680A
:107EA000706C2F7764742F68706C5F7764742E63C6
:107EB0000000000052710000427000006870000075
:107EC0008870000096700000CC7000000000000078
:107ED0002A7F000005000000FB6200000A0000008D
:107EE000A04D00000F000000523D000014000000F3
:107EF000C830000019000000102700001E0000001C
:107F00007B1F0000230000008719000028000000EC
:107F1000D21400002D0000001411000032000000F7
:107F2000150E000037000000AD0B00003C00000003
:107F3000BA0900005B7E20676F746F20626F6F74F8
:107F4000207E5D005B2B2020696E20417070202018
:107F5000202B5D005B3D20696E204552524F522020
:107F6000203D5D00F8B5C046F8BC08BC9E46704791
:107F7000DD400000F8B5C046F8BC08BC9E4670471E
:047F8000B540000008
:107F8400FFFFFFFF08000000FF05000000FE0100E6
:087F940000FD0100007F002048
:020000021000EC
:10FD0000785634120200000000010000F0070000E5
:10FD1000400000000500010021436587FFFFFFFF51
:10FE0000F0DEBC9A00010000F00700004000000096
:10FE1000EFCD230105000100A9CBED0FFFFFFFFF90
:020000020000FC
:020000042000DA
:107F00005B3F2020436F6D70696C6520203F5D00F2
:0400000300004000B9
:00000001FF
